{
  "_format": "hh-sol-artifact-1",
  "contractName": "EventPKChallenge",
  "sourceName": "contracts/core/EventPKChallenge.sol",
  "abi": [
    {
      "inputs": [
        {
          "internalType": "address",
          "name": "_paymentToken",
          "type": "address"
        },
        {
          "internalType": "address",
          "name": "_treasury",
          "type": "address"
        },
        {
          "internalType": "address",
          "name": "_oracleResolver",
          "type": "address"
        }
      ],
      "stateMutability": "nonpayable",
      "type": "constructor"
    },
    {
      "inputs": [],
      "name": "EnforcedPause",
      "type": "error"
    },
    {
      "inputs": [],
      "name": "ExpectedPause",
      "type": "error"
    },
    {
      "inputs": [
        {
          "internalType": "address",
          "name": "owner",
          "type": "address"
        }
      ],
      "name": "OwnableInvalidOwner",
      "type": "error"
    },
    {
      "inputs": [
        {
          "internalType": "address",
          "name": "account",
          "type": "address"
        }
      ],
      "name": "OwnableUnauthorizedAccount",
      "type": "error"
    },
    {
      "inputs": [],
      "name": "ReentrancyGuardReentrantCall",
      "type": "error"
    },
    {
      "inputs": [
        {
          "internalType": "address",
          "name": "token",
          "type": "address"
        }
      ],
      "name": "SafeERC20FailedOperation",
      "type": "error"
    },
    {
      "anonymous": false,
      "inputs": [
        {
          "indexed": true,
          "internalType": "uint256",
          "name": "challengeId",
          "type": "uint256"
        },
        {
          "indexed": true,
          "internalType": "address",
          "name": "opponent",
          "type": "address"
        },
        {
          "indexed": false,
          "internalType": "uint256",
          "name": "opponentAmount",
          "type": "uint256"
        }
      ],
      "name": "ChallengeAccepted",
      "type": "event"
    },
    {
      "anonymous": false,
      "inputs": [
        {
          "indexed": true,
          "internalType": "uint256",
          "name": "challengeId",
          "type": "uint256"
        }
      ],
      "name": "ChallengeCancelled",
      "type": "event"
    },
    {
      "anonymous": false,
      "inputs": [
        {
          "indexed": true,
          "internalType": "uint256",
          "name": "challengeId",
          "type": "uint256"
        },
        {
          "indexed": true,
          "internalType": "address",
          "name": "creator",
          "type": "address"
        },
        {
          "indexed": false,
          "internalType": "string",
          "name": "question",
          "type": "string"
        },
        {
          "indexed": false,
          "internalType": "enum EventPKChallenge.Position",
          "name": "creatorPosition",
          "type": "uint8"
        },
        {
          "indexed": false,
          "internalType": "uint256",
          "name": "minAmount",
          "type": "uint256"
        },
        {
          "indexed": false,
          "internalType": "uint256",
          "name": "maxAmount",
          "type": "uint256"
        },
        {
          "indexed": false,
          "internalType": "uint256",
          "name": "resolveTime",
          "type": "uint256"
        },
        {
          "indexed": false,
          "internalType": "bool",
          "name": "isPublic",
          "type": "bool"
        }
      ],
      "name": "ChallengeCreated",
      "type": "event"
    },
    {
      "anonymous": false,
      "inputs": [
        {
          "indexed": true,
          "internalType": "uint256",
          "name": "challengeId",
          "type": "uint256"
        }
      ],
      "name": "ChallengeDisputed",
      "type": "event"
    },
    {
      "anonymous": false,
      "inputs": [
        {
          "indexed": true,
          "internalType": "uint256",
          "name": "challengeId",
          "type": "uint256"
        }
      ],
      "name": "ChallengeExpired",
      "type": "event"
    },
    {
      "anonymous": false,
      "inputs": [
        {
          "indexed": true,
          "internalType": "uint256",
          "name": "challengeId",
          "type": "uint256"
        },
        {
          "indexed": false,
          "internalType": "enum EventPKChallenge.Result",
          "name": "result",
          "type": "uint8"
        },
        {
          "indexed": false,
          "internalType": "address",
          "name": "winner",
          "type": "address"
        },
        {
          "indexed": false,
          "internalType": "uint256",
          "name": "prizeAmount",
          "type": "uint256"
        }
      ],
      "name": "ChallengeResolved",
      "type": "event"
    },
    {
      "anonymous": false,
      "inputs": [
        {
          "indexed": true,
          "internalType": "uint256",
          "name": "challengeId",
          "type": "uint256"
        },
        {
          "indexed": false,
          "internalType": "enum EventPKChallenge.Result",
          "name": "result",
          "type": "uint8"
        }
      ],
      "name": "DisputeResolved",
      "type": "event"
    },
    {
      "anonymous": false,
      "inputs": [
        {
          "indexed": true,
          "internalType": "address",
          "name": "previousOwner",
          "type": "address"
        },
        {
          "indexed": true,
          "internalType": "address",
          "name": "newOwner",
          "type": "address"
        }
      ],
      "name": "OwnershipTransferred",
      "type": "event"
    },
    {
      "anonymous": false,
      "inputs": [
        {
          "indexed": false,
          "internalType": "address",
          "name": "account",
          "type": "address"
        }
      ],
      "name": "Paused",
      "type": "event"
    },
    {
      "anonymous": false,
      "inputs": [
        {
          "indexed": false,
          "internalType": "address",
          "name": "account",
          "type": "address"
        }
      ],
      "name": "Unpaused",
      "type": "event"
    },
    {
      "anonymous": false,
      "inputs": [
        {
          "indexed": true,
          "internalType": "uint256",
          "name": "challengeId",
          "type": "uint256"
        },
        {
          "indexed": true,
          "internalType": "address",
          "name": "voter",
          "type": "address"
        },
        {
          "indexed": false,
          "internalType": "enum EventPKChallenge.Result",
          "name": "vote",
          "type": "uint8"
        }
      ],
      "name": "VoteSubmitted",
      "type": "event"
    },
    {
      "inputs": [
        {
          "internalType": "uint256",
          "name": "challengeId",
          "type": "uint256"
        },
        {
          "internalType": "uint256",
          "name": "amount",
          "type": "uint256"
        },
        {
          "internalType": "address",
          "name": "referrer",
          "type": "address"
        }
      ],
      "name": "acceptChallenge",
      "outputs": [],
      "stateMutability": "nonpayable",
      "type": "function"
    },
    {
      "inputs": [
        {
          "internalType": "uint256",
          "name": "challengeId",
          "type": "uint256"
        }
      ],
      "name": "cancelChallenge",
      "outputs": [],
      "stateMutability": "nonpayable",
      "type": "function"
    },
    {
      "inputs": [],
      "name": "challengeExpiry",
      "outputs": [
        {
          "internalType": "uint256",
          "name": "",
          "type": "uint256"
        }
      ],
      "stateMutability": "view",
      "type": "function"
    },
    {
      "inputs": [
        {
          "internalType": "uint256",
          "name": "",
          "type": "uint256"
        }
      ],
      "name": "challenges",
      "outputs": [
        {
          "internalType": "uint256",
          "name": "challengeId",
          "type": "uint256"
        },
        {
          "internalType": "string",
          "name": "question",
          "type": "string"
        },
        {
          "internalType": "string",
          "name": "category",
          "type": "string"
        },
        {
          "internalType": "address",
          "name": "creator",
          "type": "address"
        },
        {
          "internalType": "address",
          "name": "opponent",
          "type": "address"
        },
        {
          "internalType": "enum EventPKChallenge.Position",
          "name": "creatorPosition",
          "type": "uint8"
        },
        {
          "internalType": "uint256",
          "name": "minAmount",
          "type": "uint256"
        },
        {
          "internalType": "uint256",
          "name": "maxAmount",
          "type": "uint256"
        },
        {
          "internalType": "uint256",
          "name": "creatorAmount",
          "type": "uint256"
        },
        {
          "internalType": "uint256",
          "name": "opponentAmount",
          "type": "uint256"
        },
        {
          "internalType": "uint256",
          "name": "createdAt",
          "type": "uint256"
        },
        {
          "internalType": "uint256",
          "name": "acceptedAt",
          "type": "uint256"
        },
        {
          "internalType": "uint256",
          "name": "expiresAt",
          "type": "uint256"
        },
        {
          "internalType": "uint256",
          "name": "resolveTime",
          "type": "uint256"
        },
        {
          "internalType": "enum EventPKChallenge.ChallengeState",
          "name": "state",
          "type": "uint8"
        },
        {
          "internalType": "enum EventPKChallenge.Result",
          "name": "result",
          "type": "uint8"
        },
        {
          "internalType": "address",
          "name": "winner",
          "type": "address"
        },
        {
          "internalType": "enum EventPKChallenge.Result",
          "name": "creatorVote",
          "type": "uint8"
        },
        {
          "internalType": "enum EventPKChallenge.Result",
          "name": "opponentVote",
          "type": "uint8"
        },
        {
          "internalType": "bool",
          "name": "creatorVoted",
          "type": "bool"
        },
        {
          "internalType": "bool",
          "name": "opponentVoted",
          "type": "bool"
        },
        {
          "internalType": "address",
          "name": "creatorReferrer",
          "type": "address"
        },
        {
          "internalType": "address",
          "name": "opponentReferrer",
          "type": "address"
        },
        {
          "internalType": "bool",
          "name": "isPublic",
          "type": "bool"
        }
      ],
      "stateMutability": "view",
      "type": "function"
    },
    {
      "inputs": [
        {
          "internalType": "string",
          "name": "question",
          "type": "string"
        },
        {
          "internalType": "string",
          "name": "category",
          "type": "string"
        },
        {
          "internalType": "enum EventPKChallenge.Position",
          "name": "position",
          "type": "uint8"
        },
        {
          "internalType": "uint256",
          "name": "minAmount",
          "type": "uint256"
        },
        {
          "internalType": "uint256",
          "name": "maxAmount",
          "type": "uint256"
        },
        {
          "internalType": "uint256",
          "name": "creatorAmount",
          "type": "uint256"
        },
        {
          "internalType": "uint256",
          "name": "resolveTime",
          "type": "uint256"
        },
        {
          "internalType": "address",
          "name": "referrer",
          "type": "address"
        },
        {
          "internalType": "bool",
          "name": "isPublic",
          "type": "bool"
        }
      ],
      "name": "createChallenge",
      "outputs": [
        {
          "internalType": "uint256",
          "name": "challengeId",
          "type": "uint256"
        }
      ],
      "stateMutability": "nonpayable",
      "type": "function"
    },
    {
      "inputs": [],
      "name": "disputeTimeout",
      "outputs": [
        {
          "internalType": "uint256",
          "name": "",
          "type": "uint256"
        }
      ],
      "stateMutability": "view",
      "type": "function"
    },
    {
      "inputs": [
        {
          "internalType": "address",
          "name": "token",
          "type": "address"
        },
        {
          "internalType": "uint256",
          "name": "amount",
          "type": "uint256"
        }
      ],
      "name": "emergencyWithdraw",
      "outputs": [],
      "stateMutability": "nonpayable",
      "type": "function"
    },
    {
      "inputs": [
        {
          "internalType": "uint256",
          "name": "challengeId",
          "type": "uint256"
        }
      ],
      "name": "expireChallenge",
      "outputs": [],
      "stateMutability": "nonpayable",
      "type": "function"
    },
    {
      "inputs": [
        {
          "internalType": "uint256",
          "name": "challengeId",
          "type": "uint256"
        }
      ],
      "name": "forceResolve",
      "outputs": [],
      "stateMutability": "nonpayable",
      "type": "function"
    },
    {
      "inputs": [
        {
          "internalType": "uint256",
          "name": "challengeId",
          "type": "uint256"
        }
      ],
      "name": "getChallenge",
      "outputs": [
        {
          "components": [
            {
              "internalType": "uint256",
              "name": "challengeId",
              "type": "uint256"
            },
            {
              "internalType": "string",
              "name": "question",
              "type": "string"
            },
            {
              "internalType": "string",
              "name": "category",
              "type": "string"
            },
            {
              "internalType": "address",
              "name": "creator",
              "type": "address"
            },
            {
              "internalType": "address",
              "name": "opponent",
              "type": "address"
            },
            {
              "internalType": "enum EventPKChallenge.Position",
              "name": "creatorPosition",
              "type": "uint8"
            },
            {
              "internalType": "uint256",
              "name": "minAmount",
              "type": "uint256"
            },
            {
              "internalType": "uint256",
              "name": "maxAmount",
              "type": "uint256"
            },
            {
              "internalType": "uint256",
              "name": "creatorAmount",
              "type": "uint256"
            },
            {
              "internalType": "uint256",
              "name": "opponentAmount",
              "type": "uint256"
            },
            {
              "internalType": "uint256",
              "name": "createdAt",
              "type": "uint256"
            },
            {
              "internalType": "uint256",
              "name": "acceptedAt",
              "type": "uint256"
            },
            {
              "internalType": "uint256",
              "name": "expiresAt",
              "type": "uint256"
            },
            {
              "internalType": "uint256",
              "name": "resolveTime",
              "type": "uint256"
            },
            {
              "internalType": "enum EventPKChallenge.ChallengeState",
              "name": "state",
              "type": "uint8"
            },
            {
              "internalType": "enum EventPKChallenge.Result",
              "name": "result",
              "type": "uint8"
            },
            {
              "internalType": "address",
              "name": "winner",
              "type": "address"
            },
            {
              "internalType": "enum EventPKChallenge.Result",
              "name": "creatorVote",
              "type": "uint8"
            },
            {
              "internalType": "enum EventPKChallenge.Result",
              "name": "opponentVote",
              "type": "uint8"
            },
            {
              "internalType": "bool",
              "name": "creatorVoted",
              "type": "bool"
            },
            {
              "internalType": "bool",
              "name": "opponentVoted",
              "type": "bool"
            },
            {
              "internalType": "address",
              "name": "creatorReferrer",
              "type": "address"
            },
            {
              "internalType": "address",
              "name": "opponentReferrer",
              "type": "address"
            },
            {
              "internalType": "bool",
              "name": "isPublic",
              "type": "bool"
            }
          ],
          "internalType": "struct EventPKChallenge.Challenge",
          "name": "",
          "type": "tuple"
        }
      ],
      "stateMutability": "view",
      "type": "function"
    },
    {
      "inputs": [],
      "name": "getOpenChallenges",
      "outputs": [
        {
          "internalType": "uint256[]",
          "name": "",
          "type": "uint256[]"
        }
      ],
      "stateMutability": "view",
      "type": "function"
    },
    {
      "inputs": [
        {
          "internalType": "string",
          "name": "category",
          "type": "string"
        }
      ],
      "name": "getOpenChallengesByCategory",
      "outputs": [
        {
          "internalType": "uint256[]",
          "name": "",
          "type": "uint256[]"
        }
      ],
      "stateMutability": "view",
      "type": "function"
    },
    {
      "inputs": [],
      "name": "getStatistics",
      "outputs": [
        {
          "internalType": "uint256",
          "name": "_totalChallenges",
          "type": "uint256"
        },
        {
          "internalType": "uint256",
          "name": "_totalVolume",
          "type": "uint256"
        },
        {
          "internalType": "uint256",
          "name": "_totalResolved",
          "type": "uint256"
        },
        {
          "internalType": "uint256",
          "name": "_openCount",
          "type": "uint256"
        }
      ],
      "stateMutability": "view",
      "type": "function"
    },
    {
      "inputs": [
        {
          "internalType": "address",
          "name": "user",
          "type": "address"
        }
      ],
      "name": "getUserChallenges",
      "outputs": [
        {
          "internalType": "uint256[]",
          "name": "",
          "type": "uint256[]"
        }
      ],
      "stateMutability": "view",
      "type": "function"
    },
    {
      "inputs": [],
      "name": "nextChallengeId",
      "outputs": [
        {
          "internalType": "uint256",
          "name": "",
          "type": "uint256"
        }
      ],
      "stateMutability": "view",
      "type": "function"
    },
    {
      "inputs": [
        {
          "internalType": "uint256",
          "name": "",
          "type": "uint256"
        }
      ],
      "name": "openChallenges",
      "outputs": [
        {
          "internalType": "uint256",
          "name": "",
          "type": "uint256"
        }
      ],
      "stateMutability": "view",
      "type": "function"
    },
    {
      "inputs": [],
      "name": "oracleResolver",
      "outputs": [
        {
          "internalType": "address",
          "name": "",
          "type": "address"
        }
      ],
      "stateMutability": "view",
      "type": "function"
    },
    {
      "inputs": [],
      "name": "owner",
      "outputs": [
        {
          "internalType": "address",
          "name": "",
          "type": "address"
        }
      ],
      "stateMutability": "view",
      "type": "function"
    },
    {
      "inputs": [],
      "name": "pause",
      "outputs": [],
      "stateMutability": "nonpayable",
      "type": "function"
    },
    {
      "inputs": [],
      "name": "paused",
      "outputs": [
        {
          "internalType": "bool",
          "name": "",
          "type": "bool"
        }
      ],
      "stateMutability": "view",
      "type": "function"
    },
    {
      "inputs": [],
      "name": "paymentToken",
      "outputs": [
        {
          "internalType": "contract IERC20",
          "name": "",
          "type": "address"
        }
      ],
      "stateMutability": "view",
      "type": "function"
    },
    {
      "inputs": [],
      "name": "protocolFeeBps",
      "outputs": [
        {
          "internalType": "uint256",
          "name": "",
          "type": "uint256"
        }
      ],
      "stateMutability": "view",
      "type": "function"
    },
    {
      "inputs": [],
      "name": "referralFeeBps",
      "outputs": [
        {
          "internalType": "uint256",
          "name": "",
          "type": "uint256"
        }
      ],
      "stateMutability": "view",
      "type": "function"
    },
    {
      "inputs": [],
      "name": "renounceOwnership",
      "outputs": [],
      "stateMutability": "nonpayable",
      "type": "function"
    },
    {
      "inputs": [
        {
          "internalType": "uint256",
          "name": "challengeId",
          "type": "uint256"
        },
        {
          "internalType": "enum EventPKChallenge.Result",
          "name": "result",
          "type": "uint8"
        }
      ],
      "name": "resolveDispute",
      "outputs": [],
      "stateMutability": "nonpayable",
      "type": "function"
    },
    {
      "inputs": [
        {
          "internalType": "uint256",
          "name": "_expiry",
          "type": "uint256"
        }
      ],
      "name": "setChallengeExpiry",
      "outputs": [],
      "stateMutability": "nonpayable",
      "type": "function"
    },
    {
      "inputs": [
        {
          "internalType": "uint256",
          "name": "_timeout",
          "type": "uint256"
        }
      ],
      "name": "setDisputeTimeout",
      "outputs": [],
      "stateMutability": "nonpayable",
      "type": "function"
    },
    {
      "inputs": [
        {
          "internalType": "address",
          "name": "_oracle",
          "type": "address"
        }
      ],
      "name": "setOracleResolver",
      "outputs": [],
      "stateMutability": "nonpayable",
      "type": "function"
    },
    {
      "inputs": [
        {
          "internalType": "uint256",
          "name": "_feeBps",
          "type": "uint256"
        }
      ],
      "name": "setProtocolFee",
      "outputs": [],
      "stateMutability": "nonpayable",
      "type": "function"
    },
    {
      "inputs": [
        {
          "internalType": "uint256",
          "name": "_feeBps",
          "type": "uint256"
        }
      ],
      "name": "setReferralFee",
      "outputs": [],
      "stateMutability": "nonpayable",
      "type": "function"
    },
    {
      "inputs": [
        {
          "internalType": "address",
          "name": "_treasury",
          "type": "address"
        }
      ],
      "name": "setTreasury",
      "outputs": [],
      "stateMutability": "nonpayable",
      "type": "function"
    },
    {
      "inputs": [
        {
          "internalType": "uint256",
          "name": "challengeId",
          "type": "uint256"
        },
        {
          "internalType": "enum EventPKChallenge.Result",
          "name": "vote",
          "type": "uint8"
        }
      ],
      "name": "submitVote",
      "outputs": [],
      "stateMutability": "nonpayable",
      "type": "function"
    },
    {
      "inputs": [],
      "name": "totalChallenges",
      "outputs": [
        {
          "internalType": "uint256",
          "name": "",
          "type": "uint256"
        }
      ],
      "stateMutability": "view",
      "type": "function"
    },
    {
      "inputs": [],
      "name": "totalResolved",
      "outputs": [
        {
          "internalType": "uint256",
          "name": "",
          "type": "uint256"
        }
      ],
      "stateMutability": "view",
      "type": "function"
    },
    {
      "inputs": [],
      "name": "totalVolume",
      "outputs": [
        {
          "internalType": "uint256",
          "name": "",
          "type": "uint256"
        }
      ],
      "stateMutability": "view",
      "type": "function"
    },
    {
      "inputs": [
        {
          "internalType": "address",
          "name": "newOwner",
          "type": "address"
        }
      ],
      "name": "transferOwnership",
      "outputs": [],
      "stateMutability": "nonpayable",
      "type": "function"
    },
    {
      "inputs": [],
      "name": "treasury",
      "outputs": [
        {
          "internalType": "address",
          "name": "",
          "type": "address"
        }
      ],
      "stateMutability": "view",
      "type": "function"
    },
    {
      "inputs": [],
      "name": "unpause",
      "outputs": [],
      "stateMutability": "nonpayable",
      "type": "function"
    },
    {
      "inputs": [
        {
          "internalType": "address",
          "name": "",
          "type": "address"
        },
        {
          "internalType": "uint256",
          "name": "",
          "type": "uint256"
        }
      ],
      "name": "userChallenges",
      "outputs": [
        {
          "internalType": "uint256",
          "name": "",
          "type": "uint256"
        }
      ],
      "stateMutability": "view",
      "type": "function"
    }
  ],
  "bytecode": "0x6080346200013c57601f62002bd438819003918201601f19168301916001600160401b0383118484101762000141578084926060946040528339810103126200013c576200004d8162000157565b620000696040620000616020850162000157565b930162000157565b9033156200012357600080546001600160a01b03198082163390811784556040519691956001600160a01b0395909486949192918516907f8be0079c531659141344cd1fd0a4f28419497f9722a3daafe3b4186f6b6457e09080a3600180556201518060065562093a8060075560c8600855603260095560025490610100600160a81b039060081b1690610100600160a81b031916176002551683600354161760035516906004541617600455612a6790816200016d8239f35b604051631e4fbdf760e01b815260006004820152602490fd5b600080fd5b634e487b7160e01b600052604160045260246000fd5b51906001600160a01b03821682036200013c5756fe60a080604052600436101561001357600080fd5b60003560e01c90816311da8e541461210c575080631aab33ae14611f665780631bdd4b7414611b74578063251e3f0e14611aff5780633013ce2914611ad257806335659fb814611ab4578063372d6b2714611a7d5780633deb9cc0146113995780633f4ba83a1461132f5780635c975abb1461130c5780635f81a57c146112ee57806361d027b3146112c5578063713494d714611297578063715018a61461123e578063755923ff14610fce578063787dce3d14610f9f5780638456cb5914610f455780638da5cb5b14610f1c5780638f1d377614610cf357806394479bbb14610cb057806395ccea6714610c7157806399653fbe14610a02578063a34803ad146108a1578063a41483e314610772578063a5ff0a1314610728578063b5acbd43146106ff578063c04c22a4146106e1578063cdd67030146106c3578063d0192ed214610593578063d17defcb14610575578063d4bdb26614610557578063d9c5483014610520578063e1231d50146104a9578063e55e421114610364578063f0f4426014610321578063f2fde38b14610298578063f5e8e75f1461027a578063fc67aa501461025c5763fd76cb35146101cc57600080fd5b346102575760003660031901126102575760405180600c5491828152602080910192600c6000527fdf6966c971051c3d54ec59162606531493a51404a002842f56009d7e5cf4a8c7916000905b8282106102405761023c8561023081890382612353565b60405191829182612196565b0390f35b835486529485019460019384019390910190610219565b600080fd5b34610257576000366003190112610257576020600554604051908152f35b34610257576000366003190112610257576020600f54604051908152f35b34610257576020366003190112610257576102b1612180565b6102b96123e3565b6001600160a01b0390811690811561030857600054826001600160601b0360a01b821617600055167f8be0079c531659141344cd1fd0a4f28419497f9722a3daafe3b4186f6b6457e0600080a3005b604051631e4fbdf760e01b815260006004820152602490fd5b346102575760203660031901126102575761033a612180565b6103426123e3565b600380546001600160a01b0319166001600160a01b0392909216919091179055005b346102575761037236612375565b6004546001600160a01b031633036104765781600052600a60205260ff600d6040600020015416600681101561042c5760050361044257600481101561042c5780156103f6576020816103e67f2ffcfee146bc0d5ff304c6b65111a0d485af9456dc64eee7d66ebdcc90b223ea938561265d565b6103f36040518092612259565ba2005b60405162461bcd60e51b815260206004820152600e60248201526d125b9d985b1a59081c995cdd5b1d60921b6044820152606490fd5b634e487b7160e01b600052602160045260246000fd5b60405162461bcd60e51b815260206004820152600c60248201526b139bdd08191a5cdc1d5d195960a21b6044820152606490fd5b60405162461bcd60e51b815260206004820152600b60248201526a4f6e6c79206f7261636c6560a81b6044820152606490fd5b34610257576020366003190112610257576004356104c56123e3565b6201518081101580610513575b156104dc57600755005b60405162461bcd60e51b815260206004820152600f60248201526e125b9d985b1a59081d1a5b595bdd5d608a1b6044820152606490fd5b5062278d008111156104d2565b3461025757602036600319011261025757600435600c5481101561025757610549602091612394565b90546040519160031b1c8152f35b34610257576000366003190112610257576020600954604051908152f35b34610257576000366003190112610257576020600d54604051908152f35b34610257576020366003190112610257576004356105af61252b565b80600052600a6020526040600020600d81019081549060ff8216600681101561042c5761068e57600b81015442106106575760ff926004600f9385191617905561061360018060a01b038060025460081c16906003840154166007840154916125cd565b015460a01c16610649575b7f5e804f6ab65f629e96873f89acb6e5d1456139dc56369bcfc528171e348baa42600080a260018055005b610652816128eb565b61061e565b60405162461bcd60e51b815260206004820152600f60248201526e139bdd08195e1c1a5c9959081e595d608a1b6044820152606490fd5b60405162461bcd60e51b815260206004820152600d60248201526c43616e6e6f742065787069726560981b6044820152606490fd5b34610257576000366003190112610257576020600654604051908152f35b34610257576000366003190112610257576020600754604051908152f35b34610257576000366003190112610257576004546040516001600160a01b039091168152602090f35b3461025757604036600319011261025757610741612180565b6001600160a01b03166000908152600b602052604090208054602435919082101561025757602091610549916123cb565b346102575760203660031901126102575760043561078e61252b565b6000818152600a6020526040902060038101546001600160a01b0391908216903382900361086d57600d81019182549060ff8216600681101561042c576108385760ff94600f9460036107f49488191617905560025460081c16906007840154916125cd565b015460a01c1661082a575b7f8f468517950218b9c61ac630652209be7aeda4de4f6eda5e0d4b106d784fa4e9600080a260018055005b610833816128eb565b6107ff565b60405162461bcd60e51b815260206004820152600d60248201526c10d85b9b9bdd0818d85b98d95b609a1b6044820152606490fd5b60405162461bcd60e51b815260206004820152600c60248201526b27b7363c9031b932b0ba37b960a11b6044820152606490fd5b34610257576020366003190112610257576004356108bd61252b565b80600052600a602052604060002090600d82019182549260ff91828516600681101561042c57610900916108f56001600c931461254e565b01546007549061240f565b42106109c757818460c01c1680811591826109bb575b156109815780610974575b1561093d575061093793505460b01c169061265d565b60018055005b905080610968575b610952575b505050610937565b6109609260b81c169061265d565b80808061094a565b50808360c81c16610945565b50828560c81c1615610921565b60405162461bcd60e51b8152602060048201526012602482015271139bc81d9bdd195cc81cdd589b5a5d1d195960721b6044820152606490fd5b50838660c81c16610916565b60405162461bcd60e51b8152602060048201526013602482015272151a5b595bdd5d081b9bdd081c995858da1959606a1b6044820152606490fd5b3461025757610a1036612375565b90610a1961252b565b80600052600a6020526040600020600d810192835460ff92838216600681101561042c576001610a49911461254e565b600c8101544210610c3857600483101561042c578215610c04576003810154336001600160a01b0391821614918291908215610bf3575b505015610bba5715610b8957508354610a9e838260c01c1615612591565b62ff00ff60b01b191660b082901b60ff60b01b1617600160c01b1784555b610ac96040518092612259565b827f4dad34f5c0bfc89aa43660836c7a6aa46a7a6a5d437c6b9db430ac5d82c69b0760203393a3825492818460c01c1680610b7d575b610b095760018055005b818460b01c16828560b81c1690600482101561042c57600481101561042c5703610b4657610b3d93505460b01c169061265d565b80808080610937565b91926005915060ff19161790557f4b0cf736486179bc4937e4b9c08b0d38cf3ef34270dcda3dd0206b6ce4c2af11600080a2610b3d565b50818460c81c16610aff565b610b98838260c81c1615612591565b62ff00ff60b81b191660b882901b60ff60b81b1617600160c81b178455610abc565b60405162461bcd60e51b8152602060048201526011602482015270139bdd0818481c185c9d1a58da5c185b9d607a1b6044820152606490fd5b600491925001541633148780610a80565b60405162461bcd60e51b815260206004820152600c60248201526b496e76616c696420766f746560a01b6044820152606490fd5b60405162461bcd60e51b8152602060048201526011602482015270546f6f206561726c7920746f20766f746560781b6044820152606490fd5b3461025757604036600319011261025757610cae610c8d612180565b610c956123e3565b600054602435916001600160a01b0391821691166125cd565b005b3461025757602036600319011261025757610cc9612180565b610cd16123e3565b600480546001600160a01b0319166001600160a01b0392909216919091179055005b3461025757602036600319011261025757600435600052600a602052604060002080546040519182806001830190610d2a916122a0565b03610d359084612353565b6040519283610d4781600285016122a0565b03610d529085612353565b600160a01b60019003600383015416936004830154600584015460068501546007860154600887015490600988015492600a89015494600b8a015496600c8b015498600d8c01549a8c600160a01b6001900390600e0154169c600f01549d6040518060805252610300806080516020015260805101610dd0916121ff565b6080518082039060400152610de4916121ff565b9c60805160600152600160a01b6001900381166080516080015260805160a0019060a01c60ff1690610e159161223f565b60805160c0015260805160e00152608051610100015260805161012001526080516101400152608051610160015260805161018001526080516101a001526080516101c00160ff821690610e689161224c565b6080516101e0018160081c60ff1690610e8091612259565b60808051601083901c6001600160a01b03166102009091015251610eaf906102200160ff60b084901c16612259565b608051610240018160b81c60ff1690610ec791612259565b8060c01c60ff161515608051610260015260c81c60ff16151560805161028001526080516102a00152600160a01b6001900381166080516102c0015260a01c60ff1615156080516102e0015260805180910390f35b34610257576000366003190112610257576000546040516001600160a01b039091168152602090f35b3461025757600036600319011261025757610f5e6123e3565b610f6661250d565b600160ff1960025416176002557f62e78cea01bee320cd4e420270b5ea74000d11b0c9f74754ebdbfc544b05a2586020604051338152a1005b3461025757602036600319011261025757600435610fbb6123e3565b610fc96101f48211156129f6565b600855005b34610257576060366003190112610257576024803590600435906001600160a01b0390604435828116908190036102575761100761250d565b61100f61252b565b83600052602092600a8452604060002090600d82019360ff8554166006811015611229576111e657600b8301544210156111af5781600384015416331461116c5760058301548810158061115e575b15611125575091600f7f92908348abc2acb40e8d36acdad97909db4110254e1625c0509520a68bd999c99594926110a28960ff966002543091339160081c16612450565b60048101936001600160601b0360a01b94338682541617905589600883015542600a83015560018619825416179055019182541617815533600052600b83526110ef85604060002061242b565b5460a01c16611117575b61110584600e5461240f565b600e556040519384523393a360018055005b611120836128eb565b6110f9565b8560136064926040519262461bcd60e51b8452600484015282015272416d6f756e74206f7574206f662072616e676560681b6044820152fd5b50600683015488111561105e565b85601b6064926040519262461bcd60e51b845260048401528201527f43616e6e6f7420616363657074206f776e206368616c6c656e676500000000006044820152fd5b8560116064926040519262461bcd60e51b845260048401528201527010da185b1b195b99d948195e1c1a5c9959607a1b6044820152fd5b8560176064926040519262461bcd60e51b845260048401528201527f4368616c6c656e6765206e6f7420617661696c61626c650000000000000000006044820152fd5b50634e487b7160e01b60009081526021600452fd5b34610257576000366003190112610257576112576123e3565b600080546001600160a01b0319811682556001600160a01b03167f8be0079c531659141344cd1fd0a4f28419497f9722a3daafe3b4186f6b6457e08280a3005b34610257576020366003190112610257576004356112b36123e3565b6112c060c88211156129f6565b600955005b34610257576000366003190112610257576003546040516001600160a01b039091168152602090f35b34610257576000366003190112610257576020600e54604051908152f35b3461025757600036600319011261025757602060ff600254166040519015158152f35b34610257576000366003190112610257576113486123e3565b60025460ff8116156113875760ff19166002557f5db9ee0a495bf2e6ff9c91a7834c1ba4fdd244a5e8aa4e537bd38aeae4b073aa6020604051338152a1005b604051638dfc202b60e01b8152600490fd5b34610257576101203660031901126102575760043567ffffffffffffffff8111610257576113cb9036906004016121d1565b60243567ffffffffffffffff8111610257576113eb9036906004016121d1565b91906044906002823510156102575760e4356001600160a01b03811681036102575761010435151561010435036102575761142461250d565b61142c61252b565b8315611a45576101f48411611a0d57606435156119d057606435608435106119975760643560a435101580611989575b1561194557610e10420180421161192f5760c43511156118f3576002546114969060a435903090339060081c6001600160a01b0316612450565b600554946114a38661241c565b60055585600052600a60205260406000209286845567ffffffffffffffff861161174c576114d46001850154612266565b601f81116118ac575b50856000601f821160011461183c57600091611831575b508660011b906000198860031b1c19161760018501555b67ffffffffffffffff821161174c5781906115296002860154612266565b601f81116117de575b50600090601f831160011461176d57600092611762575b50508160011b916000199060031b1c19161760028301555b600f60038301926001600160601b0360a01b933385825416179055600481019283549460ff60a01b9460ff60a01b199687878a3560a01b1691161790556064356005840155608435600684015560a43560078401554260098401556115c86006544261240f565b600b84015560c435600c840155600d830161ffff198154169055600e83019160018060a01b031690825416179055019182549161010435151560a01b16911617905533600052600b60205261162183604060002061242b565b610104356116db575b7f43571d9d9707484bc7f42fecd2c0f6e20856842803222cd0a01a1abab0b8d2cc602094611699859361165e600d5461241c565b600d5561166f60a435600e5461240f565b600e55856040519360c085528160c086015260e0850137600060e08785010152878301903561223f565b6064356040820152608435606082015260c435608082015261010435151560a08201523393601f01601f1916810181900360e00190a360018055604051908152f35b600c5490600160401b82101561174c576020946116997f43571d9d9707484bc7f42fecd2c0f6e20856842803222cd0a01a1abab0b8d2cc9261174187611728876001839901600c55612394565b90919082549060031b91821b91600019901b1916179055565b93505094505061162a565b634e487b7160e01b600052604160045260246000fd5b013590508880611549565b909250600285016000526020600020906000935b601f19841685106117c6576001945083601f198116106117ac575b505050811b016002830155611561565b0135600019600384901b60f8161c1916905588808061179c565b81810135835560209485019460019093019201611781565b909150600285016000526020600020601f840160051c81016020851061182a575b90849392915b601f830160051c8201811061181b575050611532565b60008155859450600101611805565b50806117ff565b9050880135896114f4565b90506001850160005260206000209060005b8a601f198a16821061189457505087601f1981161061187a575b5050600186811b01600185015561150b565b890135600019600389901b60f8161c191690558880611868565b6001839460209394849301358155019301910161184e565b600185016000526020600020601f880160051c8101602089106118ec575b601f830160051c820181106118e05750506114dd565b600081556001016118ca565b50806118ca565b60405162461bcd60e51b81526020600482015260156024820152742932b9b7b63b32903a34b6b2903a37b79039b7b7b760591b81850152606490fd5b634e487b7160e01b600052601160045260246000fd5b60405162461bcd60e51b815260206004820152601b60248201527f43726561746f7220616d6f756e74206f7574206f662072616e6765000000000081850152606490fd5b5060843560a435111561145c565b60405162461bcd60e51b815260206004820152601260248201527126b0bc1036bab9ba103132901f1e9036b4b760711b81850152606490fd5b60405162461bcd60e51b815260206004820152601660248201527504d696e20616d6f756e74206d757374206265203e20360541b81850152606490fd5b60405162461bcd60e51b81526020600482015260116024820152705175657374696f6e20746f6f206c6f6e6760781b81850152606490fd5b60405162461bcd60e51b8152602060048201526011602482015270145d595cdd1a5bdb881c995c5d5a5c9959607a1b81850152606490fd5b34610257576000366003190112610257576080600d54600e54600f54600c5491604051938452602084015260408301526060820152f35b34610257576000366003190112610257576020600854604051908152f35b346102575760003660031901126102575760025460405160089190911c6001600160a01b03168152602090f35b3461025757602036600319011261025757600435611b1b6123e3565b610e1081101580611b67575b15611b3157600655005b60405162461bcd60e51b815260206004820152600e60248201526d496e76616c69642065787069727960901b6044820152606490fd5b5062093a80811115611b27565b346102575760203660031901126102575760006102e0604051611b9681612336565b82815260606020820152606060408201528260608201528260808201528260a08201528260c08201528260e08201528261010082015282610120820152826101408201528261016082015282610180820152826101a0820152826101c0820152826101e08201528261020082015282610220820152826102408201528261026082015282610280820152826102a0820152826102c08201520152600435600052600a602052604060002060405190611c4d82612336565b80548252604051611c6c81611c6581600186016122a0565b0382612353565b6020830152604051611c8581611c6581600286016122a0565b604083015260038101546001600160a01b03908116606084015260048201549081166080840152600260a082901c60ff16101561042c5760ff9060a01c1660a0830152600581015460c0830152600681015460e0830152600781015461010083015260088101546101208301526009810154610140830152600a810154610160830152600b810154610180830152600c8101546101a0830152600d810154600660ff8216101561042c5760ff91828281600f94166101c0870152611d52828260081c166101e0880161298b565b601081901c6001600160a01b0316610200870152611d7a60b082901c8316610220880161298b565b611d8d828260b81c16610240880161298b565b818160c01c16151561026087015260c81c16151561028085015260018060a01b03600e820154166102a0850152015460018060a01b0381166102c084015260a01c1615156102e0820152604051809160208252805160208301526102e0611e1e611e08602084015161030060408701526103208601906121ff565b6040840151858203601f190160608701526121ff565b9160018060a01b03606082015116608085015260018060a01b0360808201511660a0850152611e5560a082015160c086019061223f565b60c081015160e085015260e08101516101008501526101008101516101208501526101208101516101408501526101408101516101608501526101608101516101808501526101808101516101a08501526101a08101516101c0850152611ec66101c08201516101e086019061224c565b611eda6101e0820151610200860190612259565b60018060a01b0361020082015116610220850152611f02610220820151610240860190612259565b611f16610240820151610260860190612259565b610260810151151561028085015261028081015115156102a085015260018060a01b036102a0820151166102c085015260018060a01b036102c08201511682850152015115156103008301520390f35b34610257576020806003193601126102575760043567ffffffffffffffff811161025757611f989036906004016121d1565b600c549092600092835b83811061209b5750611fb3846129de565b93611fc16040519586612353565b808552611fd0601f19916129de565b01368386013760009460005b848110611ff1576040518061023c8882612196565b611ffa81612394565b9054600391821b1c600052600a8552611c656120236002604060002001604051928380926122a0565b858151910120612034368587612997565b8681519101201461204f575b5061204a9061241c565b611fdc565b61205a829892612394565b9054911b1c966120698261241c565b978751831015612085578561204a9360051b8901015290612040565b634e487b7160e01b600052603260045260246000fd5b6120a481612394565b90549060031b1c600052600a8352611c656120cc6002604060002001604051928380926122a0565b8381519101206120dd368885612997565b848151910120146120f7575b6120f29061241c565b611fa2565b936121046120f29161241c565b9490506120e9565b346102575760209081600319360112610257576001600160a01b0361212f612180565b16600052600b825260406000209182548083528183019360005281600020916000905b8282106121695761023c8561023081890382612353565b835486529485019460019384019390910190612152565b600435906001600160a01b038216820361025757565b6020908160408183019282815285518094520193019160005b8281106121bd575050505090565b8351855293810193928101926001016121af565b9181601f840112156102575782359167ffffffffffffffff8311610257576020838186019501011161025757565b919082519283825260005b84811061222b575050826000602080949584010152601f8019910116010190565b60208183018101518483018201520161220a565b90600282101561042c5752565b90600682101561042c5752565b90600482101561042c5752565b90600182811c92168015612296575b602083101461228057565b634e487b7160e01b600052602260045260246000fd5b91607f1691612275565b90600092918054916122b183612266565b91828252600193848116908160001461231357506001146122d3575b50505050565b90919394506000526020928360002092846000945b8386106122ff5750505050010190388080806122cd565b8054858701830152940193859082016122e8565b9294505050602093945060ff191683830152151560051b010190388080806122cd565b610300810190811067ffffffffffffffff82111761174c57604052565b90601f8019910116810190811067ffffffffffffffff82111761174c57604052565b6040906003190112610257576004359060243560048110156102575790565b600c5481101561208557600c6000527fdf6966c971051c3d54ec59162606531493a51404a002842f56009d7e5cf4a8c70190600090565b80548210156120855760005260206000200190600090565b6000546001600160a01b031633036123f757565b60405163118cdaa760e01b8152336004820152602490fd5b9190820180921161192f57565b600019811461192f5760010190565b90815491600160401b83101561174c578261172891600161244e950181556123cb565b565b6040516323b872dd60e01b60208201526001600160a01b03928316602482015292909116604483015260648083019390935291815260a081019181831067ffffffffffffffff84111761174c5761244e926040525b906000602091828151910182855af115612501576000513d6124f857506001600160a01b0381163b155b6124d65750565b604051635274afe760e01b81526001600160a01b039091166004820152602490fd5b600114156124cf565b6040513d6000823e3d90fd5b60ff6002541661251957565b60405163d93c066560e01b8152600490fd5b60026001541461253c576002600155565b604051633ee5aeb560e01b8152600490fd5b1561255557565b60405162461bcd60e51b81526020600482015260146024820152734368616c6c656e6765206e6f742061637469766560601b6044820152606490fd5b1561259857565b60405162461bcd60e51b815260206004820152600d60248201526c105b1c9958591e481d9bdd1959609a1b6044820152606490fd5b60405163a9059cbb60e01b60208201526001600160a01b039092166024830152604480830193909352918152608081019167ffffffffffffffff83118284101761174c5761244e926040526124a5565b8181029291811591840414171561192f57565b811561263a570490565b634e487b7160e01b600052601260045260246000fd5b9190820391821161192f57565b919091600090808252600a6020526040822090600d820180549560048110156128d75760089361ff0082861b1697600294858a61ffff1984161717855560078301908154946126b18986019687549061240f565b9361271090816126c28c548861261d565b049b6126ce8d88612650565b916003850361278b5750505050505061277b9899508161270861270e8a61270861275098979661270361271b9754809461261d565b612630565b90612650565b945491612703838c61261d565b8554600383015491936001600160a01b039261273e92908416908a1c84166125cd565b6004818754891c1692015416906125cd565b805462010000600160b01b03191690555b546003546001600160a01b03908116929190911c166125cd565b612786600f5461241c565b600f55565b9194999296955092975060048701549660ff8860a01c168b8110156128d75761277b9e9f61285b9560609a98958f948f949685917f9e56c0558d431e47325b9b528c8710473984ca053a40995401d86635d01cba939f9d9b9860018f149015149c8d6000146128c8575060038101546001600160a01b03169c5b156128b557600e01546001600160a01b0316945b6001600160b01b03199091161760108c901b62010000600160b01b0316171790556001600160a01b0397909588919083831661288a575b505050505050612650565b9161286c8382848b548d1c166125cd565b6128796040518095612259565b1660208301526040820152a2612761565b6128aa95975061289d906009549061261d565b0495869354901c166125cd565b8a8a38868180612850565b600f01546001600160a01b031694612819565b6001600160a01b03169c612805565b634e487b7160e01b85526021600452602485fd5b60005b600c90815491828210156122cd57839261290783612394565b959054600396871b1c1461292757505061292291925061241c565b6128ee565b9092506000199182820191821161192f5761172861294761295393612394565b905490871b1c91612394565b815480156129755781019261296784612394565b81939154921b1b1916905555565b634e487b7160e01b600052603160045260246000fd5b600482101561042c5752565b92919267ffffffffffffffff821161174c57604051916129c1601f8201601f191660200184612353565b829481845281830111610257578281602093846000960137010152565b67ffffffffffffffff811161174c5760051b60200190565b156129fd57565b60405162461bcd60e51b815260206004820152600c60248201526b08ccaca40e8dede40d0d2ced60a31b6044820152606490fdfea2646970667358221220c6146e1e9e32822be08848824f3ff00923ca204d214ff7cdf2cd04eea2a1965a64736f6c63430008140033",
  "linkReferences": {},
  "deployedLinkReferences": {}
}