{
  "_format": "hh-sol-artifact-1",
  "contractName": "PKChallenge",
  "sourceName": "contracts/core/PKChallenge.sol",
  "abi": [
    {
      "inputs": [
        {
          "internalType": "address",
          "name": "_paymentToken",
          "type": "address"
        },
        {
          "internalType": "address",
          "name": "_protocolTreasury",
          "type": "address"
        }
      ],
      "stateMutability": "nonpayable",
      "type": "constructor"
    },
    {
      "inputs": [],
      "name": "EnforcedPause",
      "type": "error"
    },
    {
      "inputs": [],
      "name": "ExpectedPause",
      "type": "error"
    },
    {
      "inputs": [
        {
          "internalType": "address",
          "name": "owner",
          "type": "address"
        }
      ],
      "name": "OwnableInvalidOwner",
      "type": "error"
    },
    {
      "inputs": [
        {
          "internalType": "address",
          "name": "account",
          "type": "address"
        }
      ],
      "name": "OwnableUnauthorizedAccount",
      "type": "error"
    },
    {
      "inputs": [],
      "name": "ReentrancyGuardReentrantCall",
      "type": "error"
    },
    {
      "inputs": [
        {
          "internalType": "address",
          "name": "token",
          "type": "address"
        }
      ],
      "name": "SafeERC20FailedOperation",
      "type": "error"
    },
    {
      "anonymous": false,
      "inputs": [
        {
          "indexed": true,
          "internalType": "uint256",
          "name": "challengeId",
          "type": "uint256"
        },
        {
          "indexed": true,
          "internalType": "address",
          "name": "opponent",
          "type": "address"
        },
        {
          "indexed": false,
          "internalType": "uint256",
          "name": "opponentAmount",
          "type": "uint256"
        },
        {
          "indexed": false,
          "internalType": "int256",
          "name": "startPrice",
          "type": "int256"
        },
        {
          "indexed": false,
          "internalType": "uint256",
          "name": "settleTime",
          "type": "uint256"
        }
      ],
      "name": "ChallengeAccepted",
      "type": "event"
    },
    {
      "anonymous": false,
      "inputs": [
        {
          "indexed": true,
          "internalType": "uint256",
          "name": "challengeId",
          "type": "uint256"
        },
        {
          "indexed": true,
          "internalType": "address",
          "name": "canceller",
          "type": "address"
        }
      ],
      "name": "ChallengeCancelled",
      "type": "event"
    },
    {
      "anonymous": false,
      "inputs": [
        {
          "indexed": true,
          "internalType": "uint256",
          "name": "challengeId",
          "type": "uint256"
        },
        {
          "indexed": true,
          "internalType": "address",
          "name": "creator",
          "type": "address"
        },
        {
          "indexed": false,
          "internalType": "string",
          "name": "assetSymbol",
          "type": "string"
        },
        {
          "indexed": false,
          "internalType": "enum PKChallenge.Duration",
          "name": "duration",
          "type": "uint8"
        },
        {
          "indexed": false,
          "internalType": "enum PKChallenge.PriceDirection",
          "name": "creatorDirection",
          "type": "uint8"
        },
        {
          "indexed": false,
          "internalType": "uint256",
          "name": "minAmount",
          "type": "uint256"
        },
        {
          "indexed": false,
          "internalType": "uint256",
          "name": "maxAmount",
          "type": "uint256"
        },
        {
          "indexed": false,
          "internalType": "uint256",
          "name": "creatorAmount",
          "type": "uint256"
        },
        {
          "indexed": false,
          "internalType": "bool",
          "name": "isPublic",
          "type": "bool"
        }
      ],
      "name": "ChallengeCreated",
      "type": "event"
    },
    {
      "anonymous": false,
      "inputs": [
        {
          "indexed": true,
          "internalType": "uint256",
          "name": "challengeId",
          "type": "uint256"
        }
      ],
      "name": "ChallengeExpired",
      "type": "event"
    },
    {
      "anonymous": false,
      "inputs": [
        {
          "indexed": true,
          "internalType": "uint256",
          "name": "challengeId",
          "type": "uint256"
        },
        {
          "indexed": true,
          "internalType": "address",
          "name": "winner",
          "type": "address"
        },
        {
          "indexed": false,
          "internalType": "int256",
          "name": "startPrice",
          "type": "int256"
        },
        {
          "indexed": false,
          "internalType": "int256",
          "name": "endPrice",
          "type": "int256"
        },
        {
          "indexed": false,
          "internalType": "uint256",
          "name": "winnerPayout",
          "type": "uint256"
        },
        {
          "indexed": false,
          "internalType": "bool",
          "name": "isDraw",
          "type": "bool"
        }
      ],
      "name": "ChallengeResolved",
      "type": "event"
    },
    {
      "anonymous": false,
      "inputs": [
        {
          "indexed": true,
          "internalType": "address",
          "name": "previousOwner",
          "type": "address"
        },
        {
          "indexed": true,
          "internalType": "address",
          "name": "newOwner",
          "type": "address"
        }
      ],
      "name": "OwnershipTransferred",
      "type": "event"
    },
    {
      "anonymous": false,
      "inputs": [
        {
          "indexed": false,
          "internalType": "address",
          "name": "account",
          "type": "address"
        }
      ],
      "name": "Paused",
      "type": "event"
    },
    {
      "anonymous": false,
      "inputs": [
        {
          "indexed": true,
          "internalType": "string",
          "name": "symbol",
          "type": "string"
        },
        {
          "indexed": false,
          "internalType": "address",
          "name": "priceFeed",
          "type": "address"
        }
      ],
      "name": "PriceFeedAdded",
      "type": "event"
    },
    {
      "anonymous": false,
      "inputs": [
        {
          "indexed": true,
          "internalType": "uint256",
          "name": "challengeId",
          "type": "uint256"
        },
        {
          "indexed": true,
          "internalType": "address",
          "name": "referrer",
          "type": "address"
        },
        {
          "indexed": false,
          "internalType": "uint256",
          "name": "amount",
          "type": "uint256"
        }
      ],
      "name": "ReferralReward",
      "type": "event"
    },
    {
      "anonymous": false,
      "inputs": [
        {
          "indexed": false,
          "internalType": "address",
          "name": "account",
          "type": "address"
        }
      ],
      "name": "Unpaused",
      "type": "event"
    },
    {
      "inputs": [],
      "name": "FEE_DENOMINATOR",
      "outputs": [
        {
          "internalType": "uint256",
          "name": "",
          "type": "uint256"
        }
      ],
      "stateMutability": "view",
      "type": "function"
    },
    {
      "inputs": [
        {
          "internalType": "uint256",
          "name": "challengeId",
          "type": "uint256"
        },
        {
          "internalType": "uint256",
          "name": "amount",
          "type": "uint256"
        },
        {
          "internalType": "address",
          "name": "referrer",
          "type": "address"
        }
      ],
      "name": "acceptChallenge",
      "outputs": [],
      "stateMutability": "nonpayable",
      "type": "function"
    },
    {
      "inputs": [],
      "name": "accumulatedFees",
      "outputs": [
        {
          "internalType": "uint256",
          "name": "",
          "type": "uint256"
        }
      ],
      "stateMutability": "view",
      "type": "function"
    },
    {
      "inputs": [
        {
          "internalType": "string",
          "name": "symbol",
          "type": "string"
        },
        {
          "internalType": "address",
          "name": "feed",
          "type": "address"
        }
      ],
      "name": "addPriceFeed",
      "outputs": [],
      "stateMutability": "nonpayable",
      "type": "function"
    },
    {
      "inputs": [
        {
          "internalType": "uint256",
          "name": "challengeId",
          "type": "uint256"
        }
      ],
      "name": "canResolve",
      "outputs": [
        {
          "internalType": "bool",
          "name": "",
          "type": "bool"
        }
      ],
      "stateMutability": "view",
      "type": "function"
    },
    {
      "inputs": [
        {
          "internalType": "uint256",
          "name": "challengeId",
          "type": "uint256"
        }
      ],
      "name": "cancelChallenge",
      "outputs": [],
      "stateMutability": "nonpayable",
      "type": "function"
    },
    {
      "inputs": [],
      "name": "challengeExpireDuration",
      "outputs": [
        {
          "internalType": "uint256",
          "name": "",
          "type": "uint256"
        }
      ],
      "stateMutability": "view",
      "type": "function"
    },
    {
      "inputs": [
        {
          "internalType": "uint256",
          "name": "",
          "type": "uint256"
        }
      ],
      "name": "challenges",
      "outputs": [
        {
          "internalType": "uint256",
          "name": "challengeId",
          "type": "uint256"
        },
        {
          "internalType": "address",
          "name": "creator",
          "type": "address"
        },
        {
          "internalType": "address",
          "name": "opponent",
          "type": "address"
        },
        {
          "internalType": "uint256",
          "name": "minAmount",
          "type": "uint256"
        },
        {
          "internalType": "uint256",
          "name": "maxAmount",
          "type": "uint256"
        },
        {
          "internalType": "uint256",
          "name": "creatorAmount",
          "type": "uint256"
        },
        {
          "internalType": "uint256",
          "name": "opponentAmount",
          "type": "uint256"
        },
        {
          "internalType": "string",
          "name": "assetSymbol",
          "type": "string"
        },
        {
          "internalType": "enum PKChallenge.Duration",
          "name": "duration",
          "type": "uint8"
        },
        {
          "internalType": "enum PKChallenge.PriceDirection",
          "name": "creatorDirection",
          "type": "uint8"
        },
        {
          "internalType": "address",
          "name": "priceFeed",
          "type": "address"
        },
        {
          "internalType": "int256",
          "name": "startPrice",
          "type": "int256"
        },
        {
          "internalType": "int256",
          "name": "endPrice",
          "type": "int256"
        },
        {
          "internalType": "uint256",
          "name": "createdAt",
          "type": "uint256"
        },
        {
          "internalType": "uint256",
          "name": "acceptedAt",
          "type": "uint256"
        },
        {
          "internalType": "uint256",
          "name": "expiresAt",
          "type": "uint256"
        },
        {
          "internalType": "uint256",
          "name": "settleTime",
          "type": "uint256"
        },
        {
          "internalType": "enum PKChallenge.ChallengeState",
          "name": "state",
          "type": "uint8"
        },
        {
          "internalType": "address",
          "name": "winner",
          "type": "address"
        },
        {
          "internalType": "address",
          "name": "creatorReferrer",
          "type": "address"
        },
        {
          "internalType": "address",
          "name": "opponentReferrer",
          "type": "address"
        }
      ],
      "stateMutability": "view",
      "type": "function"
    },
    {
      "inputs": [
        {
          "internalType": "string",
          "name": "assetSymbol",
          "type": "string"
        },
        {
          "internalType": "enum PKChallenge.Duration",
          "name": "duration",
          "type": "uint8"
        },
        {
          "internalType": "enum PKChallenge.PriceDirection",
          "name": "direction",
          "type": "uint8"
        },
        {
          "internalType": "uint256",
          "name": "minAmount",
          "type": "uint256"
        },
        {
          "internalType": "uint256",
          "name": "maxAmount",
          "type": "uint256"
        },
        {
          "internalType": "uint256",
          "name": "creatorAmount",
          "type": "uint256"
        },
        {
          "internalType": "address",
          "name": "referrer",
          "type": "address"
        },
        {
          "internalType": "bool",
          "name": "isPublic",
          "type": "bool"
        }
      ],
      "name": "createChallenge",
      "outputs": [
        {
          "internalType": "uint256",
          "name": "challengeId",
          "type": "uint256"
        }
      ],
      "stateMutability": "nonpayable",
      "type": "function"
    },
    {
      "inputs": [
        {
          "internalType": "uint256",
          "name": "challengeId",
          "type": "uint256"
        }
      ],
      "name": "expireChallenge",
      "outputs": [],
      "stateMutability": "nonpayable",
      "type": "function"
    },
    {
      "inputs": [
        {
          "internalType": "uint256",
          "name": "challengeId",
          "type": "uint256"
        }
      ],
      "name": "getChallenge",
      "outputs": [
        {
          "components": [
            {
              "internalType": "uint256",
              "name": "challengeId",
              "type": "uint256"
            },
            {
              "internalType": "address",
              "name": "creator",
              "type": "address"
            },
            {
              "internalType": "address",
              "name": "opponent",
              "type": "address"
            },
            {
              "internalType": "uint256",
              "name": "minAmount",
              "type": "uint256"
            },
            {
              "internalType": "uint256",
              "name": "maxAmount",
              "type": "uint256"
            },
            {
              "internalType": "uint256",
              "name": "creatorAmount",
              "type": "uint256"
            },
            {
              "internalType": "uint256",
              "name": "opponentAmount",
              "type": "uint256"
            },
            {
              "internalType": "string",
              "name": "assetSymbol",
              "type": "string"
            },
            {
              "internalType": "enum PKChallenge.Duration",
              "name": "duration",
              "type": "uint8"
            },
            {
              "internalType": "enum PKChallenge.PriceDirection",
              "name": "creatorDirection",
              "type": "uint8"
            },
            {
              "internalType": "address",
              "name": "priceFeed",
              "type": "address"
            },
            {
              "internalType": "int256",
              "name": "startPrice",
              "type": "int256"
            },
            {
              "internalType": "int256",
              "name": "endPrice",
              "type": "int256"
            },
            {
              "internalType": "uint256",
              "name": "createdAt",
              "type": "uint256"
            },
            {
              "internalType": "uint256",
              "name": "acceptedAt",
              "type": "uint256"
            },
            {
              "internalType": "uint256",
              "name": "expiresAt",
              "type": "uint256"
            },
            {
              "internalType": "uint256",
              "name": "settleTime",
              "type": "uint256"
            },
            {
              "internalType": "enum PKChallenge.ChallengeState",
              "name": "state",
              "type": "uint8"
            },
            {
              "internalType": "address",
              "name": "winner",
              "type": "address"
            },
            {
              "internalType": "address",
              "name": "creatorReferrer",
              "type": "address"
            },
            {
              "internalType": "address",
              "name": "opponentReferrer",
              "type": "address"
            }
          ],
          "internalType": "struct PKChallenge.Challenge",
          "name": "",
          "type": "tuple"
        }
      ],
      "stateMutability": "view",
      "type": "function"
    },
    {
      "inputs": [],
      "name": "getOpenChallenges",
      "outputs": [
        {
          "internalType": "uint256[]",
          "name": "",
          "type": "uint256[]"
        }
      ],
      "stateMutability": "view",
      "type": "function"
    },
    {
      "inputs": [],
      "name": "getOpenChallengesCount",
      "outputs": [
        {
          "internalType": "uint256",
          "name": "",
          "type": "uint256"
        }
      ],
      "stateMutability": "view",
      "type": "function"
    },
    {
      "inputs": [],
      "name": "getStatistics",
      "outputs": [
        {
          "internalType": "uint256",
          "name": "_totalChallenges",
          "type": "uint256"
        },
        {
          "internalType": "uint256",
          "name": "_totalVolume",
          "type": "uint256"
        },
        {
          "internalType": "uint256",
          "name": "_totalResolved",
          "type": "uint256"
        },
        {
          "internalType": "uint256",
          "name": "_openChallengesCount",
          "type": "uint256"
        }
      ],
      "stateMutability": "view",
      "type": "function"
    },
    {
      "inputs": [],
      "name": "getSupportedAssets",
      "outputs": [
        {
          "internalType": "string[]",
          "name": "",
          "type": "string[]"
        }
      ],
      "stateMutability": "view",
      "type": "function"
    },
    {
      "inputs": [
        {
          "internalType": "uint256",
          "name": "challengeId",
          "type": "uint256"
        }
      ],
      "name": "getTimeRemaining",
      "outputs": [
        {
          "internalType": "uint256",
          "name": "",
          "type": "uint256"
        }
      ],
      "stateMutability": "view",
      "type": "function"
    },
    {
      "inputs": [
        {
          "internalType": "address",
          "name": "user",
          "type": "address"
        }
      ],
      "name": "getUserChallengeCount",
      "outputs": [
        {
          "internalType": "uint256",
          "name": "",
          "type": "uint256"
        }
      ],
      "stateMutability": "view",
      "type": "function"
    },
    {
      "inputs": [
        {
          "internalType": "address",
          "name": "user",
          "type": "address"
        }
      ],
      "name": "getUserChallenges",
      "outputs": [
        {
          "internalType": "uint256[]",
          "name": "",
          "type": "uint256[]"
        }
      ],
      "stateMutability": "view",
      "type": "function"
    },
    {
      "inputs": [],
      "name": "maxChallengeAmount",
      "outputs": [
        {
          "internalType": "uint256",
          "name": "",
          "type": "uint256"
        }
      ],
      "stateMutability": "view",
      "type": "function"
    },
    {
      "inputs": [],
      "name": "minChallengeAmount",
      "outputs": [
        {
          "internalType": "uint256",
          "name": "",
          "type": "uint256"
        }
      ],
      "stateMutability": "view",
      "type": "function"
    },
    {
      "inputs": [],
      "name": "nextChallengeId",
      "outputs": [
        {
          "internalType": "uint256",
          "name": "",
          "type": "uint256"
        }
      ],
      "stateMutability": "view",
      "type": "function"
    },
    {
      "inputs": [
        {
          "internalType": "uint256",
          "name": "",
          "type": "uint256"
        }
      ],
      "name": "openChallengeIndex",
      "outputs": [
        {
          "internalType": "uint256",
          "name": "",
          "type": "uint256"
        }
      ],
      "stateMutability": "view",
      "type": "function"
    },
    {
      "inputs": [
        {
          "internalType": "uint256",
          "name": "",
          "type": "uint256"
        }
      ],
      "name": "openChallenges",
      "outputs": [
        {
          "internalType": "uint256",
          "name": "",
          "type": "uint256"
        }
      ],
      "stateMutability": "view",
      "type": "function"
    },
    {
      "inputs": [],
      "name": "owner",
      "outputs": [
        {
          "internalType": "address",
          "name": "",
          "type": "address"
        }
      ],
      "stateMutability": "view",
      "type": "function"
    },
    {
      "inputs": [],
      "name": "pause",
      "outputs": [],
      "stateMutability": "nonpayable",
      "type": "function"
    },
    {
      "inputs": [],
      "name": "paused",
      "outputs": [
        {
          "internalType": "bool",
          "name": "",
          "type": "bool"
        }
      ],
      "stateMutability": "view",
      "type": "function"
    },
    {
      "inputs": [],
      "name": "paymentToken",
      "outputs": [
        {
          "internalType": "contract IERC20",
          "name": "",
          "type": "address"
        }
      ],
      "stateMutability": "view",
      "type": "function"
    },
    {
      "inputs": [
        {
          "internalType": "string",
          "name": "",
          "type": "string"
        }
      ],
      "name": "priceFeeds",
      "outputs": [
        {
          "internalType": "address",
          "name": "",
          "type": "address"
        }
      ],
      "stateMutability": "view",
      "type": "function"
    },
    {
      "inputs": [],
      "name": "protocolFeeRate",
      "outputs": [
        {
          "internalType": "uint256",
          "name": "",
          "type": "uint256"
        }
      ],
      "stateMutability": "view",
      "type": "function"
    },
    {
      "inputs": [],
      "name": "protocolTreasury",
      "outputs": [
        {
          "internalType": "address",
          "name": "",
          "type": "address"
        }
      ],
      "stateMutability": "view",
      "type": "function"
    },
    {
      "inputs": [],
      "name": "referralFeeRate",
      "outputs": [
        {
          "internalType": "uint256",
          "name": "",
          "type": "uint256"
        }
      ],
      "stateMutability": "view",
      "type": "function"
    },
    {
      "inputs": [],
      "name": "renounceOwnership",
      "outputs": [],
      "stateMutability": "nonpayable",
      "type": "function"
    },
    {
      "inputs": [
        {
          "internalType": "uint256",
          "name": "challengeId",
          "type": "uint256"
        }
      ],
      "name": "resolveChallenge",
      "outputs": [],
      "stateMutability": "nonpayable",
      "type": "function"
    },
    {
      "inputs": [
        {
          "internalType": "uint256",
          "name": "_min",
          "type": "uint256"
        },
        {
          "internalType": "uint256",
          "name": "_max",
          "type": "uint256"
        }
      ],
      "name": "setAmountLimits",
      "outputs": [],
      "stateMutability": "nonpayable",
      "type": "function"
    },
    {
      "inputs": [
        {
          "internalType": "uint256",
          "name": "_duration",
          "type": "uint256"
        }
      ],
      "name": "setExpireDuration",
      "outputs": [],
      "stateMutability": "nonpayable",
      "type": "function"
    },
    {
      "inputs": [
        {
          "internalType": "uint256",
          "name": "_protocolFee",
          "type": "uint256"
        },
        {
          "internalType": "uint256",
          "name": "_referralFee",
          "type": "uint256"
        }
      ],
      "name": "setFeeRates",
      "outputs": [],
      "stateMutability": "nonpayable",
      "type": "function"
    },
    {
      "inputs": [
        {
          "internalType": "address",
          "name": "_treasury",
          "type": "address"
        }
      ],
      "name": "setProtocolTreasury",
      "outputs": [],
      "stateMutability": "nonpayable",
      "type": "function"
    },
    {
      "inputs": [
        {
          "internalType": "uint256",
          "name": "",
          "type": "uint256"
        }
      ],
      "name": "supportedAssets",
      "outputs": [
        {
          "internalType": "string",
          "name": "",
          "type": "string"
        }
      ],
      "stateMutability": "view",
      "type": "function"
    },
    {
      "inputs": [],
      "name": "totalChallenges",
      "outputs": [
        {
          "internalType": "uint256",
          "name": "",
          "type": "uint256"
        }
      ],
      "stateMutability": "view",
      "type": "function"
    },
    {
      "inputs": [],
      "name": "totalResolved",
      "outputs": [
        {
          "internalType": "uint256",
          "name": "",
          "type": "uint256"
        }
      ],
      "stateMutability": "view",
      "type": "function"
    },
    {
      "inputs": [],
      "name": "totalVolume",
      "outputs": [
        {
          "internalType": "uint256",
          "name": "",
          "type": "uint256"
        }
      ],
      "stateMutability": "view",
      "type": "function"
    },
    {
      "inputs": [
        {
          "internalType": "address",
          "name": "newOwner",
          "type": "address"
        }
      ],
      "name": "transferOwnership",
      "outputs": [],
      "stateMutability": "nonpayable",
      "type": "function"
    },
    {
      "inputs": [],
      "name": "unpause",
      "outputs": [],
      "stateMutability": "nonpayable",
      "type": "function"
    },
    {
      "inputs": [
        {
          "internalType": "string",
          "name": "symbol",
          "type": "string"
        },
        {
          "internalType": "address",
          "name": "feed",
          "type": "address"
        }
      ],
      "name": "updatePriceFeed",
      "outputs": [],
      "stateMutability": "nonpayable",
      "type": "function"
    },
    {
      "inputs": [
        {
          "internalType": "address",
          "name": "",
          "type": "address"
        },
        {
          "internalType": "uint256",
          "name": "",
          "type": "uint256"
        }
      ],
      "name": "userChallenges",
      "outputs": [
        {
          "internalType": "uint256",
          "name": "",
          "type": "uint256"
        }
      ],
      "stateMutability": "view",
      "type": "function"
    },
    {
      "inputs": [],
      "name": "withdrawFees",
      "outputs": [],
      "stateMutability": "nonpayable",
      "type": "function"
    }
  ],
  "bytecode": "0x60a034620001e6576200313590601f38839003908101601f19168201906001600160401b03821183831017620001eb5780839160409586948552833981010312620001e6576200005d6020620000558362000201565b920162000201565b3315620001ce5760008054336001600160a01b03198083168217845586519590946001600160a01b03949093859391908416907f8be0079c531659141344cd1fd0a4f28419497f9722a3daafe3b4186f6b6457e09080a36001805560c8600a556032600b5562015180600e55670de0b6b3a7640000600f5569021e19e0c9bab2400000601055169384156200018c5750169182156200015557608052600c541617600c55600160045551612f1e90816200021782396080518181816106340152818161095001528181610d59015281816115120152818161197a01528181611a92015281816129f201528181612a750152612b6e0152f35b835162461bcd60e51b815260206004820152601060248201526f496e76616c696420747265617375727960801b6044820152606490fd5b62461bcd60e51b815260206004820152601560248201527f496e76616c6964207061796d656e7420746f6b656e00000000000000000000006044820152606490fd5b8251631e4fbdf760e01b815260006004820152602490fd5b600080fd5b634e487b7160e01b600052604160045260246000fd5b51906001600160a01b0382168203620001e65756fe610120604052600436101561001357600080fd5b60003560e01c80630932a214146121215780630c5a61f8146120a15780630dc16e1f14611eb857806311da8e5414611e405780631bdd4b7414611afd5780631f78863214611adf5780632391b46414611ac15780633013ce2914611a7c578063372d6b2714611a455780633f4ba83a146119db578063476343ee1461194057806348ed7a1c146118e8578063587f5ed7146118ca57806358f85880146118ac5780635c975abb146118895780635f652ed41461186b5780635f81a57c1461184d5780636f23632114611813578063715018a6146117ba578063755923ff14611468578063761c7cfe1461143e578063803db96d146114155780638456cb59146113bb5780638a5c0f8714610c675780638cd4299114610c415780638da5cb5b14610c185780638f1d377614610a395780639e8a9b6b14610a1b578063a41483e3146108d5578063a5ff0a131461088b578063bc8be02714610814578063bd7562ff146107f6578063c68dbb3714610795578063cb31d3d414610769578063cb8ae86c146106ef578063d0192ed2146105b9578063d17defcb1461059b578063d73792a91461057e578063d9c5483014610547578063e5406dbf1461043d578063f2fde38b146103b4578063f5e8e75f14610396578063fb271bab1461032a578063fc67aa501461030c578063fd76cb35146102815763feaca5831461021757600080fd5b3461027c5761022536612530565b9061022e612546565b6101f461023b83836125db565b1161024857600a55600b55005b60405162461bcd60e51b815260206004820152600c60248201526b08ccaca40e8dede40d0d2ced60a31b6044820152606490fd5b600080fd5b3461027c57600036600319011261027c57604051806006549182815260208091019260066000527ff652222313e28459528d920b65115c16c04f3efc82aaedc97be59f3f377c0d3f916000905b8282106102f5576102f1856102e581890382612385565b60405191829182612294565b0390f35b8354865294850194600193840193909101906102ce565b3461027c57600036600319011261027c576020600454604051908152f35b3461027c5761033836612530565b90610341612546565b8015158061038d575b1561035757600f55601055005b60405162461bcd60e51b815260206004820152600e60248201526d496e76616c6964206c696d69747360901b6044820152606490fd5b5080821161034a565b3461027c57600036600319011261027c576020601354604051908152f35b3461027c57602036600319011261027c576103cd61223b565b6103d5612546565b6001600160a01b0390811690811561042457600054826001600160601b0360a01b821617600055167f8be0079c531659141344cd1fd0a4f28419497f9722a3daafe3b4186f6b6457e0600080a3005b604051631e4fbdf760e01b815260006004820152602490fd5b3461027c57600036600319011261027c5760095467ffffffffffffffff81116105315760405190602090610476828260051b0184612385565b808352818301908160096000527f6e1540171b6c0c960b71a7020d9f60077f6af931a8bbf590da0223dacf75c7af6000915b83831061050f5750505050604051918083019381845251809452604083019360408160051b85010192916000955b8287106104e35785850386f35b9091929382806104ff600193603f198a820301865288516122f2565b96019201960195929190926104d6565b6001868192610520859a999a6123a7565b8152019201920191909594956104a8565b634e487b7160e01b600052604160045260246000fd5b3461027c57602036600319011261027c5760043560065481101561027c5761057060209161249a565b90546040519160031b1c8152f35b3461027c57600036600319011261027c5760206040516127108152f35b3461027c57600036600319011261027c576020601154604051908152f35b3461027c57602036600319011261027c576004356105d561273a565b8060005260036020526040600020600f81019081549160ff83166105f881612317565b6106ba57600d82015442106106835760046106589360ff191617905561061d83612dc1565b6001810154600590910154906001600160a01b03167f0000000000000000000000000000000000000000000000000000000000000000612c81565b7f5e804f6ab65f629e96873f89acb6e5d1456139dc56369bcfc528171e348baa42600080a260018055005b60405162461bcd60e51b815260206004820152600f60248201526e139bdd08195e1c1a5c9959081e595d608a1b6044820152606490fd5b60405162461bcd60e51b815260206004820152600d60248201526c43616e6e6f742065787069726560981b6044820152606490fd5b3461027c57602036600319011261027c5760043567ffffffffffffffff811161027c573660238201121561027c5761073360209136906024816004013591016124e9565b8161074760405192838151938492016122cf565b600890820190815281900382019020546040516001600160a01b039091168152f35b3461027c57602036600319011261027c5760043560005260076020526020604060002054604051908152f35b3461027c57602036600319011261027c5760043560095481101561027c576107bc9061244d565b6107e0576107cc6102f1916123a7565b6040519182916020835260208301906122f2565b634e487b7160e01b600052600060045260246000fd5b3461027c57600036600319011261027c576020600b54604051908152f35b3461027c57602036600319011261027c57600435610830612546565b610e108110158061087e575b1561084657600e55005b60405162461bcd60e51b815260206004820152601060248201526f24b73b30b634b210323ab930ba34b7b760811b6044820152606490fd5b5062093a8081111561083c565b3461027c57604036600319011261027c576108a461223b565b6001600160a01b031660009081526005602052604090208054602435919082101561027c57602091610570916124d1565b3461027c57602036600319011261027c576004356108f161273a565b8060005260036020526040600020600f810190815460ff811661091381612317565b6109e6576001820180546001600160a01b039190821633036109a15761097494600360059460ff191617905561094886612dc1565b5416910154907f0000000000000000000000000000000000000000000000000000000000000000612c81565b33907f331f4510d26912f0e9f474e9a3151c359ce5d28378f1151479d27ec63236fa09600080a360018055005b60405162461bcd60e51b815260206004820152601760248201527f4f6e6c792063726561746f722063616e2063616e63656c0000000000000000006044820152606490fd5b60405162461bcd60e51b815260206004820152600d60248201526c10d85b9b9bdd0818d85b98d95b609a1b6044820152606490fd5b3461027c57600036600319011261027c576020600654604051908152f35b3461027c57602036600319011261027c576004356000526003602052604060002080549060018060a01b036001820154169160018060a01b0360028301541692600383015460c052600483015460a052600583015493600684015494610aa1600786016123a7565b95600886015460e052600986015496610b4c600a88015491600b89015493600c8a015495600d8b015497600e8c015499600f8d01549b8d601060018060a01b03910154169d601160018060a01b03910154166080526040518061010052526020610100510152604061010051015260c051606061010051015260a051608061010051015260a061010051015260c06101005101526102a08060e06101005101526101005101906122f2565b97610b5b60ff60e05116612317565b60ff60e0511661010080510152610b81610120610100510160ff60e05160081c16612321565b60018060a01b0360e05160101c166101406101005101526101606101005101526101806101005101526101a06101005101526101c06101005101526101e061010051015261020061010051015260ff8116610bdb81612317565b61022061010051015260018060a01b039060081c166102406101005101526102606101005101526080516102806101005101526101005180910390f35b3461027c57600036600319011261027c576000546040516001600160a01b039091168152602090f35b3461027c57602036600319011261027c576020610c5f600435612cd1565b604051908152f35b3461027c5761010036600319011261027c5760043567ffffffffffffffff811161027c57610c9990369060040161220d565b6005602435101561027c576002604435101561027c5760c435906001600160a01b038216820361027c5760e435151560e4350361027c57610cd861273a565b610ce061271c565b6040518184823760088183019081528190036020019020546001600160a01b03161561138057600f546064351061134a576010546084351161131357608435606435116112d75760643560a4351015806112c9575b1561128457610d4f6001600160a01b038316331415612572565b610d7d60a43530337f000000000000000000000000000000000000000000000000000000000000000061266b565b60045491610d8a836125b6565b60045560405182858237828101906008825260208160018060a01b039303019020541690610dba600e54426125db565b60405192610dc784612368565b858452336020850152600060408501526064356060850152608435608085015260a43560a0850152600060c0850152610e013686896124e9565b60e0850152610e11602435612317565b602435610100850152610e2a60443561012086016125e8565b61014084015260006101608401526000610180840152426101a084015260006101c08401526101e083015260006102008301526000610220830152600061024083015260018060a01b0316610260820152600061028082015282600052600360205260406000208151815560018060a01b036020830151166001600160601b0360a01b6001830154161760018201556002810160018060a01b036040840151166001600160601b0360a01b825416179055606082015160038201556080820151600482015560a0820151600582015560c0820151600682015560e082015180519067ffffffffffffffff8211610531578190610f3682610f2d600787015461232e565b600787016125f4565b602090601f831160011461121257600092611207575b50508160011b916000199060031b1c19161760078201555b61010082015190610f7482612317565b610f7d82612317565b60088101549161012084015160028110156111f15761ff0060119460ff62010000600160b01b0361014089015160101b1694169069ffffffffffffffffffff60b01b16179160081b16171760088201556101608301516009820155610180830151600a8201556101a0830151600b8201556101c0830151600c8201556101e0830151600d820155610200830151600e82015561105e600f820161022085015161102581612317565b61102e81612317565b8154610240870151610100600160a81b0360089190911b1660ff929092166001600160a81b031990911617179055565b6010810160018060a01b03610260850151166001600160601b0360a01b825416179055019061028060018060a01b03910151166001600160601b0360a01b8254161790553360005260056020526110b9826040600020612648565b6110c46011546125b6565b60115560e435611176575b817fc08b84196a9c6a945e5428c0d208a87ec0ca7e05b39288204a46cfaa551108f7602094836040519160e083528160e08401526101008301376000610100858301015261111e602435612317565b6024358682015261113460408201604435612321565b6064356060820152608435608082015260a43560a082015260e435151560c08201523393601f01601f191681018190036101000190a360018055604051908152f35b6006549282600052600760205283604060002055600160401b841015610531577fc08b84196a9c6a945e5428c0d208a87ec0ca7e05b39288204a46cfaa551108f783916111e8836111cf88600160209a0160065561249a565b90919082549060031b91821b91600019901b1916179055565b945050506110cf565b634e487b7160e01b600052602160045260246000fd5b015190508780610f4c565b9250600784016000526020600020906000935b601f1984168510611269576001945083601f19811610611250575b505050811b016007820155610f64565b015160001960f88460031b161c19169055878080611240565b81810151835560209485019460019093019290910190611225565b60405162461bcd60e51b815260206004820152601b60248201527f43726561746f7220616d6f756e74206f7574206f662072616e676500000000006044820152606490fd5b5060843560a4351115610d35565b60405162461bcd60e51b8152602060048201526014602482015273496e76616c696420616d6f756e742072616e676560601b6044820152606490fd5b60405162461bcd60e51b815260206004820152600f60248201526e082dadeeadce840e8dede40d0d2ced608b1b6044820152606490fd5b60405162461bcd60e51b815260206004820152600e60248201526d416d6f756e7420746f6f206c6f7760901b6044820152606490fd5b60405162461bcd60e51b8152602060048201526013602482015272105cdcd95d081b9bdd081cdd5c1c1bdc9d1959606a1b6044820152606490fd5b3461027c57600036600319011261027c576113d4612546565b6113dc61271c565b600160ff1960025416176002557f62e78cea01bee320cd4e420270b5ea74000d11b0c9f74754ebdbfc544b05a2586020604051338152a1005b3461027c57600036600319011261027c57600c546040516001600160a01b039091168152602090f35b3461027c57602036600319011261027c5761145761273a565b611462600435612844565b60018055005b3461027c57606036600319011261027c576024356004356001600160a01b036044358181169081900361027c5761149d61273a565b6114a561271c565b82600052602091600383526040600020600f81019260ff8454166114c881612317565b61177557600d82015442101561173c578260018301541633146116f7576003820154871015806116e9575b156116ae5790600493929161150a33821415612572565b6115368830337f000000000000000000000000000000000000000000000000000000000000000061266b565b60a060088301549360405196878092633fabe5a360e21b82528760101c165afa9283156116a2578893600096600091611663575b509261161b94926115a460ff60059461159e610e106115986116139a6115928f6000126127a9565b426127e5565b106127f2565b16612d13565b906115d960028401926001600160601b0360a01b9333858254161790558660068601558a600986015542600c860155426125db565b97600e8401988955600160ff1982541617905560118301918254161790553360005281885261160c896040600020612648565b01546125db565b6012546125db565b60125561162784612dc1565b549160405194855284015260408301527fa986bce3c8cc91056c6cc1c5a17ec2469199ac5cefdbee2cbf5f9d732d49abcd60603393a360018055005b919396505060a09391933d811161169b575b61167f8183612385565b810161168a91612774565b50919793959394925087905061156a565b503d611675565b6040513d6000823e3d90fd5b60405162461bcd60e51b8152600481018690526013602482015272416d6f756e74206f7574206f662072616e676560681b6044820152606490fd5b5060048201548711156114f3565b60405162461bcd60e51b815260048101869052601b60248201527f43616e6e6f7420616363657074206f776e206368616c6c656e676500000000006044820152606490fd5b60405162461bcd60e51b815260048101869052601160248201527010da185b1b195b99d948195e1c1a5c9959607a1b6044820152606490fd5b60405162461bcd60e51b815260048101869052601760248201527f4368616c6c656e6765206e6f7420617661696c61626c650000000000000000006044820152606490fd5b3461027c57600036600319011261027c576117d3612546565b600080546001600160a01b0319811682556001600160a01b03167f8be0079c531659141344cd1fd0a4f28419497f9722a3daafe3b4186f6b6457e08280a3005b3461027c57602036600319011261027c576001600160a01b0361183461223b565b1660005260056020526020604060002054604051908152f35b3461027c57600036600319011261027c576020601254604051908152f35b3461027c57600036600319011261027c576020601054604051908152f35b3461027c57600036600319011261027c57602060ff600254166040519015158152f35b3461027c57600036600319011261027c576020600a54604051908152f35b3461027c57600036600319011261027c576020600d54604051908152f35b3461027c57602036600319011261027c57600435600052600360205260206040600020600160ff600f8301541661191e81612317565b149081611931575b506040519015158152f35b600e9150015442101582611926565b3461027c57600036600319011261027c57611959612546565b600d5480156119a0576000600d55600c5461199e91906001600160a01b03167f0000000000000000000000000000000000000000000000000000000000000000612c81565b005b60405162461bcd60e51b81526020600482015260136024820152724e6f206665657320746f20776974686472617760681b6044820152606490fd5b3461027c57600036600319011261027c576119f4612546565b60025460ff811615611a335760ff19166002557f5db9ee0a495bf2e6ff9c91a7834c1ba4fdd244a5e8aa4e537bd38aeae4b073aa6020604051338152a1005b604051638dfc202b60e01b8152600490fd5b3461027c57600036600319011261027c57608060115460125460135460065491604051938452602084015260408301526060820152f35b3461027c57600036600319011261027c576040517f00000000000000000000000000000000000000000000000000000000000000006001600160a01b03168152602090f35b3461027c57600036600319011261027c576020600e54604051908152f35b3461027c57600036600319011261027c576020600f54604051908152f35b3461027c57602036600319011261027c576000610280604051611b1f81612368565b8281528260208201528260408201528260608201528260808201528260a08201528260c0820152606060e08201528261010082015282610120820152826101408201528261016082015282610180820152826101a0820152826101c0820152826101e08201528261020082015282610220820152826102408201528261026082015201526004356000526003602052604060002060405190611bc082612368565b8054825260018101546001600160a01b03908116602084015260028201541660408301526003810154606083015260048101546080830152600581015460a0830152600681015460c0830152611c18600782016123a7565b60e08301526008810154611c2e60ff8216612317565b60ff8116610100840152611c4c60ff8260081c1661012085016125e8565b60101c6001600160a01b03166101408301526009810154610160830152600a810154610180830152600b8101546101a0830152600c8101546101c0830152600d8101546101e0830152600e810154610200830152600f810154611cb160ff8216612317565b60ff811661022084015260018060a01b039060081c1661024083015260018060a01b03601082015416610260830152601160018060a01b03910154166102808201526040518091602082528051602083015260018060a01b03602082015116604083015260018060a01b03604082015116606083015260608101516080830152608081015160a083015260a081015160c083015260c081015160e0830152611d6b60e08201516102a06101008501526102c08401906122f2565b90610100810151611d7b81612317565b610120840152611d95610120820151610140850190612321565b60018060a01b03610140820151166101608401526101608101516101808401526101808101516101a08401526101a08101516101c08401526101c08101516101e08401526101e0810151610200840152610200810151610220840152610220810151611e0081612317565b610240848101919091528101516001600160a01b039081166102608086019190915282015181166102808086019190915290910151166102a08301520390f35b3461027c5760208060031936011261027c576001600160a01b03611e6261223b565b1660005260058152604060002090604051908181845491828152019360005281600020916000905b828210611ea1576102f1856102e581890382612385565b835486529485019460019384019390910190611e8a565b3461027c57611ec636612251565b611ece612546565b6001600160a01b0390811691611ee5831515612ead565b604051918185843782828101600881526020948591030190205416612066576040518185823782818381016008815203019020836001600160601b0360a01b82541617905560095493600160401b85101561053157611f4b60019586810160095561244d565b6107e05767ffffffffffffffff831161053157611f7283611f6c835461232e565b836125f4565b600095601f8411600114611fe6578380917f1899bfed19bb5ad63c2bc7846fb4c1d443587802ecd6529054c82d3fd962cc1b9798600093611fdb575b501b906000198560031b1c19161790555b81604051928392833781016000815203902092604051908152a2005b850135925089611fae565b601f1984169682600052856000209060005b8981106120515750857f1899bfed19bb5ad63c2bc7846fb4c1d443587802ecd6529054c82d3fd962cc1b989910612037575b505083811b019055611fbf565b840135600019600387901b60f8161c19169055878061202a565b85820135835591830191908701908701611ff8565b60405162461bcd60e51b81526004810183905260136024820152724665656420616c72656164792065786973747360681b6044820152606490fd5b3461027c57602036600319011261027c576120ba61223b565b6120c2612546565b6001600160a01b031680156120e9576001600160601b0360a01b600c541617600c55600080f35b60405162461bcd60e51b815260206004820152601060248201526f496e76616c696420747265617375727960801b6044820152606490fd5b3461027c5761212f36612251565b91612138612546565b6001600160a01b039283169261214f841515612ead565b6040518383823760208185810160088152030190205416156121d2577f1899bfed19bb5ad63c2bc7846fb4c1d443587802ecd6529054c82d3fd962cc1b916020916040518282823783818481016008815203019020856001600160601b0360a01b82541617905581604051928392833781016000815203902092604051908152a2005b60405162461bcd60e51b81526020600482015260136024820152721199595908191bd95cc81b9bdd08195e1a5cdd606a1b6044820152606490fd5b9181601f8401121561027c5782359167ffffffffffffffff831161027c576020838186019501011161027c57565b600435906001600160a01b038216820361027c57565b604060031982011261027c576004359067ffffffffffffffff821161027c5761227c9160040161220d565b90916024356001600160a01b038116810361027c5790565b6020908160408183019282815285518094520193019160005b8281106122bb575050505090565b8351855293810193928101926001016122ad565b60005b8381106122e25750506000910152565b81810151838201526020016122d2565b9060209161230b815180928185528580860191016122cf565b601f01601f1916010190565b600511156111f157565b9060028210156111f15752565b90600182811c9216801561235e575b602083101461234857565b634e487b7160e01b600052602260045260246000fd5b91607f169161233d565b6102a0810190811067ffffffffffffffff82111761053157604052565b90601f8019910116810190811067ffffffffffffffff82111761053157604052565b90604051918260008254926123bb8461232e565b90818452600194858116908160001461242a57506001146123e7575b50506123e592500383612385565b565b9093915060005260209081600020936000915b8183106124125750506123e5935082010138806123d7565b855488840185015294850194879450918301916123fa565b9150506123e594506020925060ff191682840152151560051b82010138806123d7565b6009548110156124845760096000527f6e1540171b6c0c960b71a7020d9f60077f6af931a8bbf590da0223dacf75c7af0190600090565b634e487b7160e01b600052603260045260246000fd5b6006548110156124845760066000527ff652222313e28459528d920b65115c16c04f3efc82aaedc97be59f3f377c0d3f0190600090565b80548210156124845760005260206000200190600090565b92919267ffffffffffffffff82116105315760405191612513601f8201601f191660200184612385565b82948184528183011161027c578281602093846000960137010152565b604090600319011261027c576004359060243590565b6000546001600160a01b0316330361255a57565b60405163118cdaa760e01b8152336004820152602490fd5b1561257957565b60405162461bcd60e51b815260206004820152601560248201527421b0b73737ba103932b332b9103cb7bab939b2b63360591b6044820152606490fd5b60001981146125c55760010190565b634e487b7160e01b600052601160045260246000fd5b919082018092116125c557565b60028210156111f15752565b90601f811161260257505050565b600091825260208220906020601f850160051c8301941061263e575b601f0160051c01915b82811061263357505050565b818155600101612627565b909250829061261e565b90815491600160401b83101561053157826111cf9160016123e5950181556124d1565b6040516323b872dd60e01b60208201526001600160a01b03928316602482015292909116604483015260648083019390935291815260a081019181831067ffffffffffffffff841117610531576123e5926040525b906000602091828151910182855af1156116a2576000513d61271357506001600160a01b0381163b155b6126f15750565b604051635274afe760e01b81526001600160a01b039091166004820152602490fd5b600114156126ea565b60ff6002541661272857565b60405163d93c066560e01b8152600490fd5b60026001541461274b576002600155565b604051633ee5aeb560e01b8152600490fd5b519069ffffffffffffffffffff8216820361027c57565b908160a091031261027c576127888161275d565b916020820151916040810151916127a660806060840151930161275d565b90565b156127b057565b60405162461bcd60e51b815260206004820152600d60248201526c496e76616c696420707269636560981b6044820152606490fd5b919082039182116125c557565b156127f957565b60405162461bcd60e51b815260206004820152601060248201526f50726963652064617461207374616c6560801b6044820152606490fd5b818102929181159184041417156125c557565b6000908082526020916003835260409283822091600f830191825495600160ff881661286f81612317565b03612c4757600e8501544210612c04576008850191825495825198633fabe5a360e21b8a5260a08a600481600180851b03809c60101c165afa8015612bfa57869a8791612bbf575b50906128d0610e106115986002946115928f8c126127a9565b600a83019a8b5560ff19161786556128e96013546125b6565b60135560058101549060068101916129028354826125db565b908b54936009840194855414612b2757505060ff8b54845412965460081c16956002871015612b1357917feac67a8493242e9c9e50a8bce81120a411ea15367db3f550af05ca303ba0da6c999795939187959360809a98159687612b0a575b8715612ae6575b5050906129e89186600014612ab55760018201548954610100600160a81b031916908b16600881901b610100600160a81b0316919091179099555b612710908d868c846129b7600a5486612831565b04956129c387866127e5565b9b15612aaa576010015416935b8d85169384612a2f575b505050505050600d546125db565b600d55612a1684877f0000000000000000000000000000000000000000000000000000000000000000612c81565b5499549082519a8b528a015288015260608701521693a3565b7f973e6d36a5e5dc44e17efca2a324a960a125c17cb2c868f983192f9971b9803693949596612a7292612a68612a9993600b5490612831565b04928380926127e5565b977f0000000000000000000000000000000000000000000000000000000000000000612c81565b8951908152a338808d8682806129da565b6011015416936129d0565b6129a38a600284015416809a8054610100600160a81b03191660089290921b610100600160a81b0316919091179055565b6129e8939297506001149081612b01575b5095909138612968565b90501538612af7565b96508096612961565b634e487b7160e01b88526021600452602488fd5b909150879b9796507feac67a8493242e9c9e50a8bce81120a411ea15367db3f550af05ca303ba0da6c996002612ba69460809b610100600160a81b03198154169055612b9b7f0000000000000000000000000000000000000000000000000000000000000000958460018401541687612c81565b015416905491612c81565b54935490825194855284015282015260016060820152a3565b905086919a5060a03d8111612bf3575b612bd98183612385565b8101612be491612774565b509c925050809b9192506128b7565b503d612bcf565b84513d88823e3d90fd5b60649250519062461bcd60e51b82526004820152601b60248201527f536574746c656d656e742074696d65206e6f74207265616368656400000000006044820152fd5b60649250519062461bcd60e51b8252600482015260146024820152734368616c6c656e6765206e6f742061637469766560601b6044820152fd5b60405163a9059cbb60e01b60208201526001600160a01b039092166024830152604480830193909352918152608081019167ffffffffffffffff831182841017610531576123e5926040526126c0565b60005260036020526040600020600160ff600f83015416612cf181612317565b03612d0d57600e015480421015612d0d576127a69042906127e5565b50600090565b612d1c81612317565b8015612dba57612d2b81612317565b60018114612db357612d3c81612317565b60028114612dac57612d4d81612317565b60038114612da55780612d61600492612317565b14612d9e5760405162461bcd60e51b815260206004820152601060248201526f24b73b30b634b210323ab930ba34b7b760811b6044820152606490fd5b6201518090565b5061384090565b50610e1090565b5061038490565b5061012c90565b60009080825260076020526040822054600654906000199182810190808211612e9957821080612e81575b612df8575b5050505050565b808203612e51575b50506006548015612e3d57810190612e178261249a565b909182549160031b1b191690556006558152600760205260408120553880808080612df1565b634e487b7160e01b84526031600452602484fd5b612e5a9061249a565b90549060031b1c612e6e816111cf8461249a565b8452600760205260408420553880612e00565b5083612e8c8361249a565b90549060031b1c14612dec565b634e487b7160e01b86526011600452602486fd5b15612eb457565b60405162461bcd60e51b815260206004820152600c60248201526b125b9d985b1a59081999595960a21b6044820152606490fdfea2646970667358221220d821f464bd39ed1b7de9de340760960c149fd69632048288c29776f52af5eb4164736f6c63430008140033",
  "linkReferences": {},
  "deployedLinkReferences": {}
}