{
  "_format": "hh-sol-artifact-1",
  "contractName": "PricePredictionMarket",
  "sourceName": "contracts/core/PricePredictionMarket.sol",
  "abi": [
    {
      "inputs": [
        {
          "internalType": "string",
          "name": "_assetSymbol",
          "type": "string"
        },
        {
          "internalType": "enum PricePredictionMarket.Duration",
          "name": "_duration",
          "type": "uint8"
        },
        {
          "internalType": "address",
          "name": "_priceFeed",
          "type": "address"
        },
        {
          "internalType": "uint256",
          "name": "_liquidityParameter",
          "type": "uint256"
        },
        {
          "internalType": "address",
          "name": "_creator",
          "type": "address"
        }
      ],
      "stateMutability": "nonpayable",
      "type": "constructor"
    },
    {
      "inputs": [],
      "name": "EnforcedPause",
      "type": "error"
    },
    {
      "inputs": [],
      "name": "ExpectedPause",
      "type": "error"
    },
    {
      "inputs": [
        {
          "internalType": "address",
          "name": "owner",
          "type": "address"
        }
      ],
      "name": "OwnableInvalidOwner",
      "type": "error"
    },
    {
      "inputs": [
        {
          "internalType": "address",
          "name": "account",
          "type": "address"
        }
      ],
      "name": "OwnableUnauthorizedAccount",
      "type": "error"
    },
    {
      "inputs": [],
      "name": "ReentrancyGuardReentrantCall",
      "type": "error"
    },
    {
      "anonymous": false,
      "inputs": [
        {
          "indexed": true,
          "internalType": "address",
          "name": "provider",
          "type": "address"
        },
        {
          "indexed": false,
          "internalType": "uint256",
          "name": "amount",
          "type": "uint256"
        },
        {
          "indexed": false,
          "internalType": "uint256",
          "name": "lpTokens",
          "type": "uint256"
        }
      ],
      "name": "LiquidityAdded",
      "type": "event"
    },
    {
      "anonymous": false,
      "inputs": [
        {
          "indexed": true,
          "internalType": "address",
          "name": "provider",
          "type": "address"
        },
        {
          "indexed": false,
          "internalType": "uint256",
          "name": "lpTokens",
          "type": "uint256"
        },
        {
          "indexed": false,
          "internalType": "uint256",
          "name": "amount",
          "type": "uint256"
        }
      ],
      "name": "LiquidityRemoved",
      "type": "event"
    },
    {
      "anonymous": false,
      "inputs": [
        {
          "indexed": true,
          "internalType": "string",
          "name": "assetSymbol",
          "type": "string"
        },
        {
          "indexed": false,
          "internalType": "enum PricePredictionMarket.Duration",
          "name": "duration",
          "type": "uint8"
        },
        {
          "indexed": false,
          "internalType": "uint256",
          "name": "startTime",
          "type": "uint256"
        },
        {
          "indexed": false,
          "internalType": "uint256",
          "name": "endTime",
          "type": "uint256"
        },
        {
          "indexed": false,
          "internalType": "address",
          "name": "priceFeed",
          "type": "address"
        }
      ],
      "name": "MarketCreated",
      "type": "event"
    },
    {
      "anonymous": false,
      "inputs": [
        {
          "indexed": false,
          "internalType": "enum PricePredictionMarket.PriceDirection",
          "name": "winningDirection",
          "type": "uint8"
        },
        {
          "indexed": false,
          "internalType": "int256",
          "name": "startPrice",
          "type": "int256"
        },
        {
          "indexed": false,
          "internalType": "int256",
          "name": "endPrice",
          "type": "int256"
        },
        {
          "indexed": false,
          "internalType": "uint256",
          "name": "timestamp",
          "type": "uint256"
        }
      ],
      "name": "MarketResolved",
      "type": "event"
    },
    {
      "anonymous": false,
      "inputs": [
        {
          "indexed": true,
          "internalType": "address",
          "name": "previousOwner",
          "type": "address"
        },
        {
          "indexed": true,
          "internalType": "address",
          "name": "newOwner",
          "type": "address"
        }
      ],
      "name": "OwnershipTransferred",
      "type": "event"
    },
    {
      "anonymous": false,
      "inputs": [
        {
          "indexed": false,
          "internalType": "address",
          "name": "account",
          "type": "address"
        }
      ],
      "name": "Paused",
      "type": "event"
    },
    {
      "anonymous": false,
      "inputs": [
        {
          "indexed": true,
          "internalType": "address",
          "name": "user",
          "type": "address"
        },
        {
          "indexed": false,
          "internalType": "enum PricePredictionMarket.PriceDirection",
          "name": "direction",
          "type": "uint8"
        },
        {
          "indexed": false,
          "internalType": "uint256",
          "name": "shares",
          "type": "uint256"
        },
        {
          "indexed": false,
          "internalType": "uint256",
          "name": "cost",
          "type": "uint256"
        }
      ],
      "name": "SharesPurchased",
      "type": "event"
    },
    {
      "anonymous": false,
      "inputs": [
        {
          "indexed": true,
          "internalType": "address",
          "name": "user",
          "type": "address"
        },
        {
          "indexed": false,
          "internalType": "enum PricePredictionMarket.PriceDirection",
          "name": "direction",
          "type": "uint8"
        },
        {
          "indexed": false,
          "internalType": "uint256",
          "name": "shares",
          "type": "uint256"
        },
        {
          "indexed": false,
          "internalType": "uint256",
          "name": "payout",
          "type": "uint256"
        }
      ],
      "name": "SharesSold",
      "type": "event"
    },
    {
      "anonymous": false,
      "inputs": [
        {
          "indexed": false,
          "internalType": "int256",
          "name": "price",
          "type": "int256"
        },
        {
          "indexed": false,
          "internalType": "uint256",
          "name": "timestamp",
          "type": "uint256"
        }
      ],
      "name": "StartPriceRecorded",
      "type": "event"
    },
    {
      "anonymous": false,
      "inputs": [
        {
          "indexed": false,
          "internalType": "address",
          "name": "account",
          "type": "address"
        }
      ],
      "name": "Unpaused",
      "type": "event"
    },
    {
      "anonymous": false,
      "inputs": [
        {
          "indexed": true,
          "internalType": "address",
          "name": "user",
          "type": "address"
        },
        {
          "indexed": false,
          "internalType": "uint256",
          "name": "amount",
          "type": "uint256"
        }
      ],
      "name": "WinningsClaimed",
      "type": "event"
    },
    {
      "inputs": [],
      "name": "CREATOR_FEE",
      "outputs": [
        {
          "internalType": "uint256",
          "name": "",
          "type": "uint256"
        }
      ],
      "stateMutability": "view",
      "type": "function"
    },
    {
      "inputs": [],
      "name": "FEE_DENOMINATOR",
      "outputs": [
        {
          "internalType": "uint256",
          "name": "",
          "type": "uint256"
        }
      ],
      "stateMutability": "view",
      "type": "function"
    },
    {
      "inputs": [],
      "name": "LP_FEE",
      "outputs": [
        {
          "internalType": "uint256",
          "name": "",
          "type": "uint256"
        }
      ],
      "stateMutability": "view",
      "type": "function"
    },
    {
      "inputs": [],
      "name": "PROTOCOL_FEE",
      "outputs": [
        {
          "internalType": "uint256",
          "name": "",
          "type": "uint256"
        }
      ],
      "stateMutability": "view",
      "type": "function"
    },
    {
      "inputs": [],
      "name": "TOTAL_FEE",
      "outputs": [
        {
          "internalType": "uint256",
          "name": "",
          "type": "uint256"
        }
      ],
      "stateMutability": "view",
      "type": "function"
    },
    {
      "inputs": [],
      "name": "accumulatedCreatorFees",
      "outputs": [
        {
          "internalType": "uint256",
          "name": "",
          "type": "uint256"
        }
      ],
      "stateMutability": "view",
      "type": "function"
    },
    {
      "inputs": [],
      "name": "accumulatedProtocolFees",
      "outputs": [
        {
          "internalType": "uint256",
          "name": "",
          "type": "uint256"
        }
      ],
      "stateMutability": "view",
      "type": "function"
    },
    {
      "inputs": [],
      "name": "addLiquidity",
      "outputs": [],
      "stateMutability": "payable",
      "type": "function"
    },
    {
      "inputs": [],
      "name": "assetSymbol",
      "outputs": [
        {
          "internalType": "string",
          "name": "",
          "type": "string"
        }
      ],
      "stateMutability": "view",
      "type": "function"
    },
    {
      "inputs": [
        {
          "internalType": "enum PricePredictionMarket.PriceDirection",
          "name": "direction",
          "type": "uint8"
        },
        {
          "internalType": "uint256",
          "name": "minShares",
          "type": "uint256"
        }
      ],
      "name": "buyShares",
      "outputs": [],
      "stateMutability": "payable",
      "type": "function"
    },
    {
      "inputs": [],
      "name": "canResolve",
      "outputs": [
        {
          "internalType": "bool",
          "name": "",
          "type": "bool"
        }
      ],
      "stateMutability": "view",
      "type": "function"
    },
    {
      "inputs": [],
      "name": "cancelMarket",
      "outputs": [],
      "stateMutability": "nonpayable",
      "type": "function"
    },
    {
      "inputs": [],
      "name": "claimWinnings",
      "outputs": [],
      "stateMutability": "nonpayable",
      "type": "function"
    },
    {
      "inputs": [],
      "name": "creator",
      "outputs": [
        {
          "internalType": "address",
          "name": "",
          "type": "address"
        }
      ],
      "stateMutability": "view",
      "type": "function"
    },
    {
      "inputs": [],
      "name": "duration",
      "outputs": [
        {
          "internalType": "enum PricePredictionMarket.Duration",
          "name": "",
          "type": "uint8"
        }
      ],
      "stateMutability": "view",
      "type": "function"
    },
    {
      "inputs": [],
      "name": "endPrice",
      "outputs": [
        {
          "internalType": "int256",
          "name": "",
          "type": "int256"
        }
      ],
      "stateMutability": "view",
      "type": "function"
    },
    {
      "inputs": [],
      "name": "endTime",
      "outputs": [
        {
          "internalType": "uint256",
          "name": "",
          "type": "uint256"
        }
      ],
      "stateMutability": "view",
      "type": "function"
    },
    {
      "inputs": [],
      "name": "getMarketInfo",
      "outputs": [
        {
          "internalType": "string",
          "name": "_assetSymbol",
          "type": "string"
        },
        {
          "internalType": "enum PricePredictionMarket.Duration",
          "name": "_duration",
          "type": "uint8"
        },
        {
          "internalType": "enum PricePredictionMarket.MarketState",
          "name": "_state",
          "type": "uint8"
        },
        {
          "internalType": "uint256",
          "name": "_startTime",
          "type": "uint256"
        },
        {
          "internalType": "uint256",
          "name": "_endTime",
          "type": "uint256"
        },
        {
          "internalType": "int256",
          "name": "_startPrice",
          "type": "int256"
        },
        {
          "internalType": "int256",
          "name": "_endPrice",
          "type": "int256"
        },
        {
          "internalType": "uint256[2]",
          "name": "_quantities",
          "type": "uint256[2]"
        },
        {
          "internalType": "uint256",
          "name": "_totalVolume",
          "type": "uint256"
        },
        {
          "internalType": "uint256",
          "name": "_totalLiquidity",
          "type": "uint256"
        }
      ],
      "stateMutability": "view",
      "type": "function"
    },
    {
      "inputs": [
        {
          "internalType": "enum PricePredictionMarket.PriceDirection",
          "name": "direction",
          "type": "uint8"
        }
      ],
      "name": "getPrice",
      "outputs": [
        {
          "internalType": "uint256",
          "name": "",
          "type": "uint256"
        }
      ],
      "stateMutability": "view",
      "type": "function"
    },
    {
      "inputs": [],
      "name": "getProbability",
      "outputs": [
        {
          "internalType": "uint256",
          "name": "",
          "type": "uint256"
        }
      ],
      "stateMutability": "view",
      "type": "function"
    },
    {
      "inputs": [],
      "name": "getTimeRemaining",
      "outputs": [
        {
          "internalType": "uint256",
          "name": "",
          "type": "uint256"
        }
      ],
      "stateMutability": "view",
      "type": "function"
    },
    {
      "inputs": [
        {
          "internalType": "address",
          "name": "user",
          "type": "address"
        }
      ],
      "name": "getUserPosition",
      "outputs": [
        {
          "internalType": "uint256",
          "name": "upShares",
          "type": "uint256"
        },
        {
          "internalType": "uint256",
          "name": "downShares",
          "type": "uint256"
        },
        {
          "internalType": "uint256",
          "name": "lpTokens",
          "type": "uint256"
        },
        {
          "internalType": "uint256",
          "name": "estimatedValue",
          "type": "uint256"
        }
      ],
      "stateMutability": "view",
      "type": "function"
    },
    {
      "inputs": [],
      "name": "liquidityParameter",
      "outputs": [
        {
          "internalType": "uint256",
          "name": "",
          "type": "uint256"
        }
      ],
      "stateMutability": "view",
      "type": "function"
    },
    {
      "inputs": [],
      "name": "lockMarket",
      "outputs": [],
      "stateMutability": "nonpayable",
      "type": "function"
    },
    {
      "inputs": [
        {
          "internalType": "address",
          "name": "",
          "type": "address"
        }
      ],
      "name": "lpTokenBalances",
      "outputs": [
        {
          "internalType": "uint256",
          "name": "",
          "type": "uint256"
        }
      ],
      "stateMutability": "view",
      "type": "function"
    },
    {
      "inputs": [],
      "name": "owner",
      "outputs": [
        {
          "internalType": "address",
          "name": "",
          "type": "address"
        }
      ],
      "stateMutability": "view",
      "type": "function"
    },
    {
      "inputs": [],
      "name": "pause",
      "outputs": [],
      "stateMutability": "nonpayable",
      "type": "function"
    },
    {
      "inputs": [],
      "name": "paused",
      "outputs": [
        {
          "internalType": "bool",
          "name": "",
          "type": "bool"
        }
      ],
      "stateMutability": "view",
      "type": "function"
    },
    {
      "inputs": [],
      "name": "priceFeed",
      "outputs": [
        {
          "internalType": "contract AggregatorV3Interface",
          "name": "",
          "type": "address"
        }
      ],
      "stateMutability": "view",
      "type": "function"
    },
    {
      "inputs": [],
      "name": "priceRecorded",
      "outputs": [
        {
          "internalType": "bool",
          "name": "",
          "type": "bool"
        }
      ],
      "stateMutability": "view",
      "type": "function"
    },
    {
      "inputs": [
        {
          "internalType": "uint256",
          "name": "",
          "type": "uint256"
        }
      ],
      "name": "quantities",
      "outputs": [
        {
          "internalType": "uint256",
          "name": "",
          "type": "uint256"
        }
      ],
      "stateMutability": "view",
      "type": "function"
    },
    {
      "inputs": [],
      "name": "recordStartPrice",
      "outputs": [],
      "stateMutability": "nonpayable",
      "type": "function"
    },
    {
      "inputs": [
        {
          "internalType": "uint256",
          "name": "lpTokens",
          "type": "uint256"
        }
      ],
      "name": "removeLiquidity",
      "outputs": [],
      "stateMutability": "nonpayable",
      "type": "function"
    },
    {
      "inputs": [],
      "name": "renounceOwnership",
      "outputs": [],
      "stateMutability": "nonpayable",
      "type": "function"
    },
    {
      "inputs": [],
      "name": "resolveMarket",
      "outputs": [],
      "stateMutability": "nonpayable",
      "type": "function"
    },
    {
      "inputs": [
        {
          "internalType": "enum PricePredictionMarket.PriceDirection",
          "name": "direction",
          "type": "uint8"
        },
        {
          "internalType": "uint256",
          "name": "shares",
          "type": "uint256"
        },
        {
          "internalType": "uint256",
          "name": "minPayout",
          "type": "uint256"
        }
      ],
      "name": "sellShares",
      "outputs": [],
      "stateMutability": "nonpayable",
      "type": "function"
    },
    {
      "inputs": [],
      "name": "startPrice",
      "outputs": [
        {
          "internalType": "int256",
          "name": "",
          "type": "int256"
        }
      ],
      "stateMutability": "view",
      "type": "function"
    },
    {
      "inputs": [],
      "name": "startTime",
      "outputs": [
        {
          "internalType": "uint256",
          "name": "",
          "type": "uint256"
        }
      ],
      "stateMutability": "view",
      "type": "function"
    },
    {
      "inputs": [],
      "name": "state",
      "outputs": [
        {
          "internalType": "enum PricePredictionMarket.MarketState",
          "name": "",
          "type": "uint8"
        }
      ],
      "stateMutability": "view",
      "type": "function"
    },
    {
      "inputs": [],
      "name": "totalLPTokens",
      "outputs": [
        {
          "internalType": "uint256",
          "name": "",
          "type": "uint256"
        }
      ],
      "stateMutability": "view",
      "type": "function"
    },
    {
      "inputs": [],
      "name": "totalLiquidity",
      "outputs": [
        {
          "internalType": "uint256",
          "name": "",
          "type": "uint256"
        }
      ],
      "stateMutability": "view",
      "type": "function"
    },
    {
      "inputs": [],
      "name": "totalVolume",
      "outputs": [
        {
          "internalType": "uint256",
          "name": "",
          "type": "uint256"
        }
      ],
      "stateMutability": "view",
      "type": "function"
    },
    {
      "inputs": [
        {
          "internalType": "address",
          "name": "newOwner",
          "type": "address"
        }
      ],
      "name": "transferOwnership",
      "outputs": [],
      "stateMutability": "nonpayable",
      "type": "function"
    },
    {
      "inputs": [],
      "name": "unpause",
      "outputs": [],
      "stateMutability": "nonpayable",
      "type": "function"
    },
    {
      "inputs": [
        {
          "internalType": "address",
          "name": "",
          "type": "address"
        },
        {
          "internalType": "enum PricePredictionMarket.PriceDirection",
          "name": "",
          "type": "uint8"
        }
      ],
      "name": "userShares",
      "outputs": [
        {
          "internalType": "uint256",
          "name": "",
          "type": "uint256"
        }
      ],
      "stateMutability": "view",
      "type": "function"
    },
    {
      "inputs": [],
      "name": "winningDirection",
      "outputs": [
        {
          "internalType": "enum PricePredictionMarket.PriceDirection",
          "name": "",
          "type": "uint8"
        }
      ],
      "stateMutability": "view",
      "type": "function"
    },
    {
      "inputs": [],
      "name": "withdrawCreatorFees",
      "outputs": [],
      "stateMutability": "nonpayable",
      "type": "function"
    },
    {
      "inputs": [],
      "name": "withdrawProtocolFees",
      "outputs": [],
      "stateMutability": "nonpayable",
      "type": "function"
    },
    {
      "stateMutability": "payable",
      "type": "receive"
    }
  ],
  "bytecode": "0x60406080815234620004b3576200275c803803806200001e81620004b8565b928339810160a082820312620004b35781516001600160401b0390818111620004b35783019082601f83011215620004b3578151918183116200040a57601f199262000072601f82018516602001620004b8565b9481865260208284010111620004b357620000949160208087019101620004de565b6020840151926003841015620004b357608092620000b487870162000503565b6060870151966001600160a01b03959194918691620000d4910162000503565b169182156200049b57600080546001600160a01b03198116851782558a519185918916907f8be0079c531659141344cd1fd0a4f28419497f9722a3daafe3b4186f6b6457e09080a360018055868616156200046457508715620004205783519182116200040a5760035490600182811c92168015620003ff575b6020831014620003e95781601f84931162000374575b50602090601f8311600114620002ee5750600091620002e2575b508160011b916000199060031b1c1916176003555b60049560ff1987541660ff871617875584841660018060a01b0319600954161760095560075560018060a01b031960085416176008554260055560009380156000146200029757600554610e10810180911162000282576006555b61ff0019600c5416600c5560055490620002196006549360208a5192828480945193849201620004de565b8101039020968851966200026d575085526020850152858401521660608201527fbbc96ce1c0319ba7121b9452309ad15ab8f8c6a727096de3e26b0ec31c38745290608090a2516122439081620005198239f35b602190634e487b7160e01b6000525260246000fd5b601187634e487b7160e01b6000525260246000fd5b6000945060018103620002bd5760055461384081018091116200028257600655620001ee565b600094506001198101620001ee576201518042018042116200028257600655620001ee565b9050830151386200017e565b600360009081527fc2575a0e9e593c00f959f8c92f12db2869c3395a3b0502d05e2516446f71f85b93909116905b8181106200035b5750908360019493921062000341575b5050811b0160035562000193565b85015160001960f88460031b161c19169055388062000333565b9192602060018192868a0151815501940192016200031c565b60036000529091507fc2575a0e9e593c00f959f8c92f12db2869c3395a3b0502d05e2516446f71f85b601f840160051c81019160208510620003de575b90601f859493920160051c01905b818110620003ce575062000164565b60008155849350600101620003bf565b9091508190620003b1565b634e487b7160e01b600052602260045260246000fd5b91607f16916200014e565b634e487b7160e01b600052604160045260246000fd5b885162461bcd60e51b815260206004820152601b60248201527f496e76616c6964206c697175696469747920706172616d6574657200000000006044820152606490fd5b62461bcd60e51b8152602060048201526012602482015271125b9d985b1a59081c1c9a58d9481999595960721b6044820152606490fd5b8851631e4fbdf760e01b815260006004820152602490fd5b600080fd5b6040519190601f01601f191682016001600160401b038111838210176200040a57604052565b60005b838110620004f25750506000910152565b8181015183820152602001620004e1565b51906001600160a01b0382168203620004b35756fe608060409080825260049081361015610061575b50361561001f57600080fd5b6020606492519162461bcd60e51b8352820152601b60248201527f557365206164644c697175696469747928292066756e6374696f6e00000000006044820152fd5b600090813560e01c90816302d05d3f1461193d575080630b4501fd146118bd5780630fb5a6b41461191657806315770f92146118f7578063176de7a8146118c25780631a7dfa9f146118bd57806323341a05146117b55780632963f580146117915780632b9b55b3146115bf5780633197cbb6146115a057806331d1c1b31461158157806337f1e7f2146115565780633a69a1be146115375780633f4ba83a146114cc57806345993c66146114785780635b7c2dad146112945780635c975abb146112705780635e3f2727146112545780635f81a57c1461123557806363db7eae146112195780636bfefd6b146111bf5780636c0a6f47146111a05780636ffde0d714610f7d578063715018a614610f23578063741bef1a14610efa57806378e9792514610edb5780638456cb5914610e805780638795cccb14610e355780638da5cb5b14610e0d5780639925279a14610d765780639c8f9f2314610c15578063a412540314610be8578063ac3791e314610b8d578063b401faf1146109da578063b868723e146109bb578063c19d93fb14610991578063c34eea41146107eb578063d2fa0a33146107bf578063d73792a9146107a2578063dac6270d1461077e578063dd9089aa14610552578063e1cd04b4146104c9578063e345365b14610491578063e8078d941461039a578063ee9b0cd514610347578063ef6283d914610328578063f1a9af89146103055763f2fde38b036100135791903461030157602036600319011261030157610295611b4e565b9061029e611b89565b6001600160a01b039182169283156102eb57505082546001600160a01b0319811683178455167f8be0079c531659141344cd1fd0a4f28419497f9722a3daafe3b4186f6b6457e08380a380f35b51631e4fbdf760e01b8152908101849052602490fd5b8280fd5b508234610324578160031936011261032457602090600a549051908152f35b5080fd5b5082346103245781600319360112610324576020906011549051908152f35b508234610324578060031936011261032457610361611b4e565b602435906002821015610396576001600160a01b03168352600f60209081529282902061038e9190611b71565b549051908152f35b8380fd5b509190826003193601126103015760ff600c5460081c16908082101561047e57506103c59015611cac565b6103d26006544210611cec565b6103da611e15565b6103e5341515611d2b565b7fac1d76749e5447b7b16f5ab61447e1bd502f3bb4807af3b28e620d1700a6ee4560115491821560001461045e5761042e3480945b61042634601054611bb5565b601055611bb5565b6011553384526012602052808420610447848254611bb5565b905580519234845260208401523392a26001805580f35b61042e61047761046e8534611d67565b60105490611d7a565b809461041a565b634e487b7160e01b845260219052602483fd5b5082346103245760203660031901126103245760209181906001600160a01b036104b9611b4e565b1681526012845220549051908152f35b509190346103015782600319360112610301576008546001600160a01b03169133839003610520578361051d818080808860145490610509821515612062565b826014555af1610517611e38565b50611e78565b80f35b906020606492519162461bcd60e51b8352820152600c60248201526b27b7363c9031b932b0ba37b960a11b6044820152fd5b509190816003193601126103015780359060028210156103965760ff600c5460081c168181101561076b576105879015611cac565b6105946006544210611cec565b61059c611e15565b6105a4611df7565b60ff600c5416156107285734156105bb8115611d2b565b60c8340234810460c81482171561071557612710809104906105dd8234611c60565b92603234029034820460321417156107025761060d6106309361060893610625930493848092611c60565b611c60565b9161061a81601354611bb5565b601355601454611bb5565b601455601054611bb5565b60105561063c83611fe0565b91670de0b6b3a7640000918281029281840414901517156106ef5750916106876106e5927fc1ab9d71477e1b8bc6e836e1816edbaa2f57a1a23338caa2ce0a9b1b1db6210894611d7a565b93610696602435861015611d9a565b81600d016106a5868254611bb5565b9055338652600f6020526106bb82828820611b71565b6106c6868254611bb5565b90556106d434601554611bb5565b601555519182913395349184611dda565b0390a26001805580f35b634e487b7160e01b865260119052602485fd5b634e487b7160e01b885260118552602488fd5b634e487b7160e01b865260118352602486fd5b606490602084519162461bcd60e51b8352820152601c60248201527f5374617274207072696365206e6f74207265636f7264656420796574000000006044820152fd5b634e487b7160e01b855260218252602485fd5b50823461032457816003193601126103245760209061079b6120a4565b9051908152f35b508234610324578160031936011261032457602090516127108152f35b5082346103245781600319360112610324576020906107e960ff600c5460101c1691518092611b64565bf35b509134610301578260031936011261030157600c549160ff83166109565760055461012c8101809111610943574211610901576009548251633fabe5a360e21b81529160a09183919082906001600160a01b03165afa9081156108f7577fc5bc035ed91d6009ab88e4f083be67cbf1d8d262d61a79a8f03637a79ee0df3593859186936108b3575b50610898610e10610892849561088c8a60019713611c24565b42611c60565b10611c6d565b82600a5560ff191617600c558151908152426020820152a180f35b610892935060019250610e106108e26108989260a03d81116108f0575b6108da81836119f4565b810190611bef565b509792505094505050610873565b503d6108d0565b82513d86823e3d90fd5b6020606492519162461bcd60e51b8352820152601860248201527f546f6f206c61746520746f207265636f726420707269636500000000000000006044820152fd5b634e487b7160e01b855260118252602485fd5b6020606492519162461bcd60e51b83528201526016602482015275141c9a58d948185b1c9958591e481c9958dbdc99195960521b6044820152fd5b5082346103245781600319360112610324576020906107e960ff600c5460081c1691518092611b41565b508234610324578160031936011261032457602090600b549051908152f35b50913461030157826003193601126103015760ff600c5460081c1682811015610b7a57600203610b4157610a0c611e15565b338352600f60205280832091610a2b60ff600c5460101c168094611b71565b548015610b0a57600284101561076b5783600d0154918215610ace5750610a788592610a73610a8993610a6d610a644760135490611c60565b60145490611c60565b90611d67565b611d7a565b93338352600f602052838320611b71565b55610a9d8380808086335af1610517611e38565b519081527f1a31e733a172afcf46074b3106c17f0c298e226442682a03c1e99ce256139ec260203392a26001805580f35b606490602085519162461bcd60e51b83528201526016602482015275139bc81dda5b9b9a5b99c81cda185c995cc81cdbdb1960521b6044820152fd5b506020606492519162461bcd60e51b835282015260116024820152704e6f2077696e6e696e672073686172657360781b6044820152fd5b906020606492519162461bcd60e51b8352820152601360248201527213585c9ad95d081b9bdd081c995cdbdb1d9959606a1b6044820152fd5b634e487b7160e01b845260218352602484fd5b508234610324578160031936011261032457600c549160ff8360081c169084821015610bd557602060018314848682610bca575b50519015158152f35b60ff16915083610bc1565b634e487b7160e01b815260218552602490fd5b50919034610301576020366003190112610301573560028110156103015760209250600d01549051908152f35b5091346103015760208060031936011261039657823592610c34611e15565b33855260128252838386205410610d3c5760ff600c5460081c1681811015610d295715610cf25750907f96cd817c6329656790ef8fba7675405193677d39619571282f5e21f3a98cd05991610c97610c8e60105486611d67565b60115490611d7a565b9033865260128152828620610cad868254611c60565b9055610cbb85601154611c60565b601155610cca82601054611c60565b601055610ce08680808086335af1610517611e38565b82519485528401523392a26001805580f35b915162461bcd60e51b81529182015260136024820152724d61726b6574207374696c6c2061637469766560681b6044820152606490fd5b634e487b7160e01b865260218252602486fd5b915162461bcd60e51b8152918201526016602482015275496e73756666696369656e74204c5020746f6b656e7360501b6044820152606490fd5b50919034610301578260031936011261030157600c549160ff8360081c1682811015610dfa57610da69015611cac565b6006544210610dc05761ff0019831661010017600c558380f35b906020606492519162461bcd60e51b8352820152601460248201527313585c9ad95d081b9bdd08195b991959081e595d60621b6044820152fd5b634e487b7160e01b855260218352602485fd5b508234610324578160031936011261032457905490516001600160a01b039091168152602090f35b5034610e7d5780600319360112610e7d57610e4e611b89565b61051d81808080601354610e63811515612062565b601382905581546001600160a01b03165af1610517611e38565b80fd5b50823461032457816003193601126103245760207f62e78cea01bee320cd4e420270b5ea74000d11b0c9f74754ebdbfc544b05a25891610ebe611b89565b610ec6611df7565b600160ff19600254161760025551338152a180f35b5082346103245781600319360112610324576020906005549051908152f35b50823461032457816003193601126103245760095490516001600160a01b039091168152602090f35b5034610e7d5780600319360112610e7d57610f3c611b89565b80546001600160a01b03198116825581906001600160a01b03167f8be0079c531659141344cd1fd0a4f28419497f9722a3daafe3b4186f6b6457e08280a380f35b5090346103245760603660031901126103245780359060028210156103015760249081359060ff600c5460081c168181101561118e57610fbd9015611cac565b610fca6006544210611cec565b610fd2611e15565b610fda611df7565b811561114c57338552600f60205281610ff585888820611b71565b541061111457670de0b6b3a764000061101661101086611fe0565b84611d67565b04611025604435821015611d9a565b60c881029080159481830460c814861715611103576127108093049361104b8584611c60565b966032840293840460321417156110f257505061060861062561060d6106e5957faa68026cba73386b81aaef0208a11ad1c3f8d1306cf0734631f076b7baea05ba999a9b9561109e950493848092611c60565b60105585600d016110b0848254611c60565b9055338752600f6020526110c686828920611b71565b6110d1848254611c60565b90556110e68780808088335af1610517611e38565b51928392339684611dda565b634e487b7160e01b89526011905287fd5b634e487b7160e01b88526011845287fd5b606490601384602089519362461bcd60e51b855284015282015272496e73756666696369656e742073686172657360681b6044820152fd5b606490601a84602089519362461bcd60e51b85528401528201527f4d7573742073656c6c206174206c6561737420312073686172650000000000006044820152fd5b634e487b7160e01b8652602182528386fd5b5082346103245781600319360112610324576020906014549051908152f35b5034610e7d5780600319360112610e7d576111d8611b89565b600c5460ff8160081c16928084101561120657506111fa610300929315611cac565b61ff00191617600c5580f35b634e487b7160e01b835260219052602482fd5b5082346103245781600319360112610324576020905160c88152f35b5082346103245781600319360112610324576020906015549051908152f35b5082346103245781600319360112610324576020905160648152f35b50823461032457816003193601126103245760209060ff6002541690519015158152f35b50829034610e7d5760209081600319360112610e7d576001600160a01b036112ba611b4e565b1692838252600f835280822082805283528082205493808352600f8452818320600190818552855282842054918452601285528284205493670de0b6b3a7640000918261130e611308611efd565b8a611d67565b0492855161131b816119d8565b6002815286368a830137600d5461133182611eb6565b52600e5461133e82611ed9565b5260075481518410156114405783806113608361135a86611ed9565b516120cf565b92879488935b611400575b50505050828102908082048414901517156113ed5760809b50926113d29594926113a461139e6113c7946113cd97611d7a565b89611d67565b04926113b26010548b611d67565b601154909290915081156113e5575090611d7a565b92611bb5565b611bb5565b9382519586528501528301526060820152f35b905090611d7a565b634e487b7160e01b855260118c52602485fd5b9091929481518610156114375761142861142e916114228561135a8a87611ee9565b90611bb5565b956120c0565b92919082611366565b9483925061136b565b875162461bcd60e51b8152808d018b90526012602482015271125b9d985b1a59081bdd5d18dbdb5948125160721b6044820152606490fd5b5034610e7d5780600319360112610e7d57611491611efd565b916064830292808404606414901517156114b957602083670de0b6b3a7640000865191048152f35b634e487b7160e01b825260119052602490fd5b509190346103015782600319360112610301576114e7611b89565b6002549060ff821615611529575060ff1916600255513381527f5db9ee0a495bf2e6ff9c91a7834c1ba4fdd244a5e8aa4e537bd38aeae4b073aa90602090a180f35b8251638dfc202b60e01b8152fd5b5082346103245781600319360112610324576020906007549051908152f35b509190346103015760203660031901126103015735916002831015610e7d575061079b602092611fe0565b5082346103245781600319360112610324576020906013549051908152f35b5082346103245781600319360112610324576020906006549051908152f35b50919034610301578260031936011261030157600c9060ff825460081c168181101561076b5760010361175a576115f4611e15565b81549060ff821615611717576009548451633fabe5a360e21b81529160a09183919082906001600160a01b03165afa801561170d579360ff92608094927faf1e4605fc21ca0a41ec8585ce5c1d60b3da2d0b813a61c474f20268d0436ea896889189916116db575b50610e106108926116729261088c8c8613611c24565b80600b55600a54126000146116c95750815462ff0000191682555b61020061ff001983541617809255600a546116b3600b5493835195869160101c16611b64565b6020840152820152426060820152a16001805580f35b62ff000019166201000017825561168d565b610892925061167291506116ff610e109160a03d81116108f0576108da81836119f4565b50959250509392505061165c565b84513d87823e3d90fd5b606490602085519162461bcd60e51b8352820152601860248201527f5374617274207072696365206e6f74207265636f7264656400000000000000006044820152fd5b606490602084519162461bcd60e51b8352820152601160248201527013585c9ad95d081b9bdd081b1bd8dad959607a1b6044820152fd5b50823461032457816003193601126103245760209060ff600c541690519015158152f35b5091903461030157826003193601126103015760ff83918380516117d8816119a6565b369037541660ff600c5460081c169260055460065491600a5491600b546015549360105495611805611a16565b9385519586600d908c905b600282106118a6575050506118439a9b6118579161182d896119a6565b61184f81519d8e99610160808c528b0190611b01565b9c6020809a0190611983565b8c0190611b41565b60608a0152608089015260a088015260c087015260e086019196915b60028310611891575050508394506101208401526101408301520390f35b81806001928a51815201980192019196611873565b825481526001928301929190910190602001611810565b611962565b5082346103245781600319360112610324576118f3906118e0611a16565b9051918291602083526020830190611b01565b0390f35b5082346103245781600319360112610324576020906010549051908152f35b50829034610e7d5780600319360112610e7d57506107e960ff602093541691518092611983565b9050346103245781600319360112610324576008546001600160a01b03168152602090f35b3461197e57600036600319011261197e57602060405160328152f35b600080fd5b9060038210156119905752565b634e487b7160e01b600052602160045260246000fd5b6040810190811067ffffffffffffffff8211176119c257604052565b634e487b7160e01b600052604160045260246000fd5b6060810190811067ffffffffffffffff8211176119c257604052565b90601f8019910116810190811067ffffffffffffffff8211176119c257604052565b60405190600060035490600182811c90808416938415611af7575b6020948584108114611ae35783885287949392918115611ac35750600114611a64575b5050611a62925003836119f4565b565b9093915060036000527fc2575a0e9e593c00f959f8c92f12db2869c3395a3b0502d05e2516446f71f85b936000915b818310611aab575050611a6293508201013880611a54565b85548884018501529485019487945091830191611a93565b915050611a6294925060ff191682840152151560051b8201013880611a54565b634e487b7160e01b85526022600452602485fd5b91607f1691611a31565b919082519283825260005b848110611b2d575050826000602080949584010152601f8019910116010190565b602081830181015184830182015201611b0c565b9060048210156119905752565b600435906001600160a01b038216820361197e57565b9060028210156119905752565b90600281101561199057600052602052604060002090565b6000546001600160a01b03163303611b9d57565b60405163118cdaa760e01b8152336004820152602490fd5b91908201809211611bc257565b634e487b7160e01b600052601160045260246000fd5b519069ffffffffffffffffffff8216820361197e57565b908160a091031261197e57611c0381611bd8565b91602082015191604081015191611c21608060608401519301611bd8565b90565b15611c2b57565b60405162461bcd60e51b815260206004820152600d60248201526c496e76616c696420707269636560981b6044820152606490fd5b91908203918211611bc257565b15611c7457565b60405162461bcd60e51b815260206004820152601060248201526f50726963652064617461207374616c6560801b6044820152606490fd5b15611cb357565b60405162461bcd60e51b81526020600482015260116024820152704d61726b6574206e6f742061637469766560781b6044820152606490fd5b15611cf357565b60405162461bcd60e51b815260206004820152601060248201526f13585c9ad95d081a185cc8195b99195960821b6044820152606490fd5b15611d3257565b60405162461bcd60e51b815260206004820152600d60248201526c26bab9ba1039b2b7321021272160991b6044820152606490fd5b81810292918115918404141715611bc257565b8115611d84570490565b634e487b7160e01b600052601260045260246000fd5b15611da157565b60405162461bcd60e51b815260206004820152601160248201527014db1a5c1c1859d948195e18d959591959607a1b6044820152606490fd5b604091949392611dee826060810197611b64565b60208201520152565b60ff60025416611e0357565b60405163d93c066560e01b8152600490fd5b600260015414611e26576002600155565b604051633ee5aeb560e01b8152600490fd5b3d15611e73573d9067ffffffffffffffff82116119c25760405191611e67601f8201601f1916602001846119f4565b82523d6000602084013e565b606090565b15611e7f57565b60405162461bcd60e51b815260206004820152600f60248201526e151c985b9cd9995c8819985a5b1959608a1b6044820152606490fd5b805115611ec35760200190565b634e487b7160e01b600052603260045260246000fd5b805160011015611ec35760400190565b8051821015611ec35760209160051b010190565b604051611f09816119d8565b6002815260208101916040368437600d54611f2383611eb6565b52600e54611f3083611ed9565b5260075492825115611fa657825115611ec35783611f4e91516120cf565b91600091825b8251841015611f7e57611f72611f78916114228861135a8888611ee9565b936120c0565b92611f54565b9250935050670de0b6b3a764000091828102928184041490151715611bc257611c2191611d7a565b60405162461bcd60e51b8152602060048201526012602482015271125b9d985b1a59081bdd5d18dbdb5948125160721b6044820152606490fd5b9060028210156119905760405190611ff7826119d8565b600282526040366020840137600d5461200f83611eb6565b52600e5461201c83611ed9565b52600754928251811015611fa6578361135a6120389285611ee9565b91600091825b8251841015611f7e57611f7261205c916114228861135a8888611ee9565b9261203e565b1561206957565b60405162461bcd60e51b81526020600482015260136024820152724e6f206665657320746f20776974686472617760681b6044820152606490fd5b600654804210156120ba57611c21904290611c60565b50600090565b6000198114611bc25760010190565b91909182156121c857670de0b6b3a76400009283820291808304851490151715611bc2576120fc91611d7a565b9068056bc75e2d6310000082101561218e57600192918290815b6014861115612128575b505050909150565b8161213291611d67565b82860290868204841487151715612179576121579161215091611d7a565b8095611bb5565b946103e885106121715761216a906120c0565b9493612116565b859450612120565b60246000634e487b7160e01b81526011600452fd5b60405162461bcd60e51b81526020600482015260126024820152714578706f6e656e7420746f6f206c6172676560701b6044820152606490fd5b60405162461bcd60e51b815260206004820152601a60248201527f44656e6f6d696e61746f722063616e6e6f74206265207a65726f0000000000006044820152606490fdfea2646970667358221220254ee803a7ae1fdf64ab2c29afe2a77b6766a31b0c96fef1e6968572882629c764736f6c63430008140033",
  "linkReferences": {},
  "deployedLinkReferences": {}
}