{
  "_format": "hh-sol-artifact-1",
  "contractName": "USDTFaucet",
  "sourceName": "contracts/test/USDTFaucet.sol",
  "abi": [
    {
      "inputs": [
        {
          "internalType": "address",
          "name": "_token",
          "type": "address"
        }
      ],
      "stateMutability": "nonpayable",
      "type": "constructor"
    },
    {
      "inputs": [],
      "name": "AlreadyClaimed",
      "type": "error"
    },
    {
      "inputs": [],
      "name": "InsufficientBalance",
      "type": "error"
    },
    {
      "inputs": [
        {
          "internalType": "address",
          "name": "owner",
          "type": "address"
        }
      ],
      "name": "OwnableInvalidOwner",
      "type": "error"
    },
    {
      "inputs": [
        {
          "internalType": "address",
          "name": "account",
          "type": "address"
        }
      ],
      "name": "OwnableUnauthorizedAccount",
      "type": "error"
    },
    {
      "inputs": [],
      "name": "ReentrancyGuardReentrantCall",
      "type": "error"
    },
    {
      "inputs": [],
      "name": "TransferFailed",
      "type": "error"
    },
    {
      "anonymous": false,
      "inputs": [
        {
          "indexed": true,
          "internalType": "address",
          "name": "user",
          "type": "address"
        },
        {
          "indexed": false,
          "internalType": "uint256",
          "name": "amount",
          "type": "uint256"
        }
      ],
      "name": "Claimed",
      "type": "event"
    },
    {
      "anonymous": false,
      "inputs": [
        {
          "indexed": true,
          "internalType": "address",
          "name": "funder",
          "type": "address"
        },
        {
          "indexed": false,
          "internalType": "uint256",
          "name": "amount",
          "type": "uint256"
        }
      ],
      "name": "FaucetFunded",
      "type": "event"
    },
    {
      "anonymous": false,
      "inputs": [
        {
          "indexed": true,
          "internalType": "address",
          "name": "previousOwner",
          "type": "address"
        },
        {
          "indexed": true,
          "internalType": "address",
          "name": "newOwner",
          "type": "address"
        }
      ],
      "name": "OwnershipTransferred",
      "type": "event"
    },
    {
      "inputs": [],
      "name": "CLAIM_AMOUNT",
      "outputs": [
        {
          "internalType": "uint256",
          "name": "",
          "type": "uint256"
        }
      ],
      "stateMutability": "view",
      "type": "function"
    },
    {
      "inputs": [],
      "name": "claim",
      "outputs": [],
      "stateMutability": "nonpayable",
      "type": "function"
    },
    {
      "inputs": [
        {
          "internalType": "uint256",
          "name": "amount",
          "type": "uint256"
        }
      ],
      "name": "emergencyWithdraw",
      "outputs": [],
      "stateMutability": "nonpayable",
      "type": "function"
    },
    {
      "inputs": [
        {
          "internalType": "uint256",
          "name": "amount",
          "type": "uint256"
        }
      ],
      "name": "fund",
      "outputs": [],
      "stateMutability": "nonpayable",
      "type": "function"
    },
    {
      "inputs": [],
      "name": "getBalance",
      "outputs": [
        {
          "internalType": "uint256",
          "name": "",
          "type": "uint256"
        }
      ],
      "stateMutability": "view",
      "type": "function"
    },
    {
      "inputs": [
        {
          "internalType": "address",
          "name": "",
          "type": "address"
        }
      ],
      "name": "hasClaimed",
      "outputs": [
        {
          "internalType": "bool",
          "name": "",
          "type": "bool"
        }
      ],
      "stateMutability": "view",
      "type": "function"
    },
    {
      "inputs": [
        {
          "internalType": "address",
          "name": "user",
          "type": "address"
        }
      ],
      "name": "hasClaimedTokens",
      "outputs": [
        {
          "internalType": "bool",
          "name": "",
          "type": "bool"
        }
      ],
      "stateMutability": "view",
      "type": "function"
    },
    {
      "inputs": [],
      "name": "owner",
      "outputs": [
        {
          "internalType": "address",
          "name": "",
          "type": "address"
        }
      ],
      "stateMutability": "view",
      "type": "function"
    },
    {
      "inputs": [],
      "name": "renounceOwnership",
      "outputs": [],
      "stateMutability": "nonpayable",
      "type": "function"
    },
    {
      "inputs": [],
      "name": "token",
      "outputs": [
        {
          "internalType": "contract IERC20",
          "name": "",
          "type": "address"
        }
      ],
      "stateMutability": "view",
      "type": "function"
    },
    {
      "inputs": [
        {
          "internalType": "address",
          "name": "newOwner",
          "type": "address"
        }
      ],
      "name": "transferOwnership",
      "outputs": [],
      "stateMutability": "nonpayable",
      "type": "function"
    }
  ],
  "bytecode": "0x60a0346100e757601f61081f38819003918201601f19168301916001600160401b038311848410176100ec578084926020946040528339810103126100e757516001600160a01b0390818116908190036100e75733156100ce576000543360018060a01b0319821617600055604051923391167f8be0079c531659141344cd1fd0a4f28419497f9722a3daafe3b4186f6b6457e0600080a36001805560805261071c9081610103823960805181818160b1015281816101fc015281816103820152818161043c01526105de0152f35b604051631e4fbdf760e01b815260006004820152602490fd5b600080fd5b634e487b7160e01b600052604160045260246000fdfe608060408181526004918236101561001657600080fd5b600092833560e01c91826312065fe0146105b457508163270ef3851461058f5781634e71d92d146103f15781635312ea8e14610333578163715018a6146102d657816373b2e80e146101775781638da5cb5b146102ae578163ca1d209d146101b6578163ed613ac114610177578163f2fde38b146100e4575063fc0c546a1461009e57600080fd5b346100e057816003193601126100e057517f00000000000000000000000000000000000000000000000000000000000000006001600160a01b03168152602090f35b5080fd5b91905034610173576020366003190112610173576001600160a01b0382358181169391929084900361016f57610118610665565b831561015957505082546001600160a01b0319811683178455167f8be0079c531659141344cd1fd0a4f28419497f9722a3daafe3b4186f6b6457e08380a380f35b51631e4fbdf760e01b8152908101849052602490fd5b8480fd5b8280fd5b90503461017357602036600319011261017357356001600160a01b0381169081900361017357818360ff92602095526002855220541690519015158152f35b91905034610173576020366003190112610173578135916101d5610665565b81516323b872dd60e01b8152338282015230602482015260448101849052602081606481887f00000000000000000000000000000000000000000000000000000000000000006001600160a01b03165af19081156102a4578591610276575b50156102685750519081527f7a5b46da290ee3d909b4070dcddb80b741e0365f2deb452791308c5c079fc57360203392a280f35b90516312171d8360e31b8152fd5b610297915060203d811161029d575b61028f8183610691565b8101906106c9565b38610234565b503d610285565b83513d87823e3d90fd5b5050346100e057816003193601126100e057905490516001600160a01b039091168152602090f35b83346103305780600319360112610330576102ef610665565b80546001600160a01b03198116825581906001600160a01b03167f8be0079c531659141344cd1fd0a4f28419497f9722a3daafe3b4186f6b6457e08280a380f35b80fd5b919050346101735760203660031901126101735761034f610665565b8254815163a9059cbb60e01b81526001600160a01b039182168482015283356024820152906020908290604490829088907f0000000000000000000000000000000000000000000000000000000000000000165af19081156103e75784916103c9575b50156103bc578280f35b516312171d8360e31b8152fd5b6103e1915060203d811161029d5761028f8183610691565b386103b2565b82513d86823e3d90fd5b919050346101735782600319360112610173576002600154146105825760026001553383526020906002825260ff81852054166105735780516370a0823160e01b81523081850152927f00000000000000000000000000000000000000000000000000000000000000006001600160a01b03168385602481845afa948515610527578695610540575b5069065a4da25d3016c000008095106105315783869133835260028252848320600160ff19825416179055604485518094819363a9059cbb60e01b835233888401528a60248401525af190811561052757869161050a575b50156102685750907fd8138f8a3f377c5259ca548e70e4c2de94f129f5a11036a15b69513cba2b426a91519283523392a26001805580f35b6105219150843d861161029d5761028f8183610691565b386104d2565b83513d88823e3d90fd5b509051631e9acf1760e31b8152fd5b9094508381813d831161056c575b6105588183610691565b810103126105685751933861047a565b8580fd5b503d61054e565b51630c8d9eab60e31b81529050fd5b51633ee5aeb560e01b8152fd5b5050346100e057816003193601126100e0576020905169065a4da25d3016c000008152f35b929150346106615783600319360112610661576370a0823160e01b835230908301526020826024817f00000000000000000000000000000000000000000000000000000000000000006001600160a01b03165afa918215610657578392610620575b6020838351908152f35b9091506020813d821161064f575b8161063b60209383610691565b810103126101735760209250519038610616565b3d915061062e565b81513d85823e3d90fd5b8380fd5b6000546001600160a01b0316330361067957565b60405163118cdaa760e01b8152336004820152602490fd5b90601f8019910116810190811067ffffffffffffffff8211176106b357604052565b634e487b7160e01b600052604160045260246000fd5b908160209103126106e1575180151581036106e15790565b600080fdfea264697066735822122091e1f7f479e650bcc45b4c8c25b46c0c3f3e992677f66dfab4442e32803e5bb864736f6c63430008140033",
  "linkReferences": {},
  "deployedLinkReferences": {}
}