{
  "_format": "hh-sol-artifact-1",
  "contractName": "USDTPricePredictionMarket",
  "sourceName": "contracts/core/USDTPricePredictionMarket.sol",
  "abi": [
    {
      "inputs": [
        {
          "internalType": "string",
          "name": "_assetSymbol",
          "type": "string"
        },
        {
          "internalType": "enum USDTPricePredictionMarket.Duration",
          "name": "_duration",
          "type": "uint8"
        },
        {
          "internalType": "address",
          "name": "_priceFeed",
          "type": "address"
        },
        {
          "internalType": "uint256",
          "name": "_liquidityParameter",
          "type": "uint256"
        },
        {
          "internalType": "address",
          "name": "_creator",
          "type": "address"
        },
        {
          "internalType": "address",
          "name": "_usdtToken",
          "type": "address"
        }
      ],
      "stateMutability": "nonpayable",
      "type": "constructor"
    },
    {
      "inputs": [],
      "name": "EnforcedPause",
      "type": "error"
    },
    {
      "inputs": [],
      "name": "ExpectedPause",
      "type": "error"
    },
    {
      "inputs": [
        {
          "internalType": "address",
          "name": "owner",
          "type": "address"
        }
      ],
      "name": "OwnableInvalidOwner",
      "type": "error"
    },
    {
      "inputs": [
        {
          "internalType": "address",
          "name": "account",
          "type": "address"
        }
      ],
      "name": "OwnableUnauthorizedAccount",
      "type": "error"
    },
    {
      "inputs": [],
      "name": "ReentrancyGuardReentrantCall",
      "type": "error"
    },
    {
      "inputs": [
        {
          "internalType": "address",
          "name": "token",
          "type": "address"
        }
      ],
      "name": "SafeERC20FailedOperation",
      "type": "error"
    },
    {
      "anonymous": false,
      "inputs": [
        {
          "indexed": true,
          "internalType": "address",
          "name": "provider",
          "type": "address"
        },
        {
          "indexed": false,
          "internalType": "uint256",
          "name": "amount",
          "type": "uint256"
        },
        {
          "indexed": false,
          "internalType": "uint256",
          "name": "lpTokens",
          "type": "uint256"
        }
      ],
      "name": "LiquidityAdded",
      "type": "event"
    },
    {
      "anonymous": false,
      "inputs": [
        {
          "indexed": true,
          "internalType": "address",
          "name": "provider",
          "type": "address"
        },
        {
          "indexed": false,
          "internalType": "uint256",
          "name": "lpTokens",
          "type": "uint256"
        },
        {
          "indexed": false,
          "internalType": "uint256",
          "name": "amount",
          "type": "uint256"
        }
      ],
      "name": "LiquidityRemoved",
      "type": "event"
    },
    {
      "anonymous": false,
      "inputs": [
        {
          "indexed": true,
          "internalType": "string",
          "name": "assetSymbol",
          "type": "string"
        },
        {
          "indexed": false,
          "internalType": "enum USDTPricePredictionMarket.Duration",
          "name": "duration",
          "type": "uint8"
        },
        {
          "indexed": false,
          "internalType": "uint256",
          "name": "startTime",
          "type": "uint256"
        },
        {
          "indexed": false,
          "internalType": "uint256",
          "name": "endTime",
          "type": "uint256"
        },
        {
          "indexed": false,
          "internalType": "address",
          "name": "priceFeed",
          "type": "address"
        },
        {
          "indexed": false,
          "internalType": "address",
          "name": "usdtToken",
          "type": "address"
        }
      ],
      "name": "MarketCreated",
      "type": "event"
    },
    {
      "anonymous": false,
      "inputs": [
        {
          "indexed": false,
          "internalType": "enum USDTPricePredictionMarket.PriceDirection",
          "name": "winningDirection",
          "type": "uint8"
        },
        {
          "indexed": false,
          "internalType": "int256",
          "name": "startPrice",
          "type": "int256"
        },
        {
          "indexed": false,
          "internalType": "int256",
          "name": "endPrice",
          "type": "int256"
        },
        {
          "indexed": false,
          "internalType": "uint256",
          "name": "timestamp",
          "type": "uint256"
        }
      ],
      "name": "MarketResolved",
      "type": "event"
    },
    {
      "anonymous": false,
      "inputs": [
        {
          "indexed": true,
          "internalType": "address",
          "name": "previousOwner",
          "type": "address"
        },
        {
          "indexed": true,
          "internalType": "address",
          "name": "newOwner",
          "type": "address"
        }
      ],
      "name": "OwnershipTransferred",
      "type": "event"
    },
    {
      "anonymous": false,
      "inputs": [
        {
          "indexed": false,
          "internalType": "address",
          "name": "account",
          "type": "address"
        }
      ],
      "name": "Paused",
      "type": "event"
    },
    {
      "anonymous": false,
      "inputs": [
        {
          "indexed": true,
          "internalType": "address",
          "name": "user",
          "type": "address"
        },
        {
          "indexed": false,
          "internalType": "enum USDTPricePredictionMarket.PriceDirection",
          "name": "direction",
          "type": "uint8"
        },
        {
          "indexed": false,
          "internalType": "uint256",
          "name": "shares",
          "type": "uint256"
        },
        {
          "indexed": false,
          "internalType": "uint256",
          "name": "cost",
          "type": "uint256"
        }
      ],
      "name": "SharesPurchased",
      "type": "event"
    },
    {
      "anonymous": false,
      "inputs": [
        {
          "indexed": true,
          "internalType": "address",
          "name": "user",
          "type": "address"
        },
        {
          "indexed": false,
          "internalType": "enum USDTPricePredictionMarket.PriceDirection",
          "name": "direction",
          "type": "uint8"
        },
        {
          "indexed": false,
          "internalType": "uint256",
          "name": "shares",
          "type": "uint256"
        },
        {
          "indexed": false,
          "internalType": "uint256",
          "name": "payout",
          "type": "uint256"
        }
      ],
      "name": "SharesSold",
      "type": "event"
    },
    {
      "anonymous": false,
      "inputs": [
        {
          "indexed": false,
          "internalType": "int256",
          "name": "price",
          "type": "int256"
        },
        {
          "indexed": false,
          "internalType": "uint256",
          "name": "timestamp",
          "type": "uint256"
        }
      ],
      "name": "StartPriceRecorded",
      "type": "event"
    },
    {
      "anonymous": false,
      "inputs": [
        {
          "indexed": false,
          "internalType": "address",
          "name": "account",
          "type": "address"
        }
      ],
      "name": "Unpaused",
      "type": "event"
    },
    {
      "anonymous": false,
      "inputs": [
        {
          "indexed": true,
          "internalType": "address",
          "name": "user",
          "type": "address"
        },
        {
          "indexed": false,
          "internalType": "uint256",
          "name": "amount",
          "type": "uint256"
        }
      ],
      "name": "WinningsClaimed",
      "type": "event"
    },
    {
      "inputs": [],
      "name": "CREATOR_FEE",
      "outputs": [
        {
          "internalType": "uint256",
          "name": "",
          "type": "uint256"
        }
      ],
      "stateMutability": "view",
      "type": "function"
    },
    {
      "inputs": [],
      "name": "FEE_DENOMINATOR",
      "outputs": [
        {
          "internalType": "uint256",
          "name": "",
          "type": "uint256"
        }
      ],
      "stateMutability": "view",
      "type": "function"
    },
    {
      "inputs": [],
      "name": "LP_FEE",
      "outputs": [
        {
          "internalType": "uint256",
          "name": "",
          "type": "uint256"
        }
      ],
      "stateMutability": "view",
      "type": "function"
    },
    {
      "inputs": [],
      "name": "PROTOCOL_FEE",
      "outputs": [
        {
          "internalType": "uint256",
          "name": "",
          "type": "uint256"
        }
      ],
      "stateMutability": "view",
      "type": "function"
    },
    {
      "inputs": [],
      "name": "TOTAL_FEE",
      "outputs": [
        {
          "internalType": "uint256",
          "name": "",
          "type": "uint256"
        }
      ],
      "stateMutability": "view",
      "type": "function"
    },
    {
      "inputs": [],
      "name": "accumulatedCreatorFees",
      "outputs": [
        {
          "internalType": "uint256",
          "name": "",
          "type": "uint256"
        }
      ],
      "stateMutability": "view",
      "type": "function"
    },
    {
      "inputs": [],
      "name": "accumulatedProtocolFees",
      "outputs": [
        {
          "internalType": "uint256",
          "name": "",
          "type": "uint256"
        }
      ],
      "stateMutability": "view",
      "type": "function"
    },
    {
      "inputs": [
        {
          "internalType": "uint256",
          "name": "amount",
          "type": "uint256"
        }
      ],
      "name": "addLiquidity",
      "outputs": [],
      "stateMutability": "nonpayable",
      "type": "function"
    },
    {
      "inputs": [],
      "name": "assetSymbol",
      "outputs": [
        {
          "internalType": "string",
          "name": "",
          "type": "string"
        }
      ],
      "stateMutability": "view",
      "type": "function"
    },
    {
      "inputs": [
        {
          "internalType": "enum USDTPricePredictionMarket.PriceDirection",
          "name": "direction",
          "type": "uint8"
        },
        {
          "internalType": "uint256",
          "name": "amount",
          "type": "uint256"
        },
        {
          "internalType": "uint256",
          "name": "minShares",
          "type": "uint256"
        }
      ],
      "name": "buyShares",
      "outputs": [],
      "stateMutability": "nonpayable",
      "type": "function"
    },
    {
      "inputs": [],
      "name": "cancelMarket",
      "outputs": [],
      "stateMutability": "nonpayable",
      "type": "function"
    },
    {
      "inputs": [],
      "name": "claimWinnings",
      "outputs": [],
      "stateMutability": "nonpayable",
      "type": "function"
    },
    {
      "inputs": [],
      "name": "creator",
      "outputs": [
        {
          "internalType": "address",
          "name": "",
          "type": "address"
        }
      ],
      "stateMutability": "view",
      "type": "function"
    },
    {
      "inputs": [],
      "name": "duration",
      "outputs": [
        {
          "internalType": "enum USDTPricePredictionMarket.Duration",
          "name": "",
          "type": "uint8"
        }
      ],
      "stateMutability": "view",
      "type": "function"
    },
    {
      "inputs": [],
      "name": "endPrice",
      "outputs": [
        {
          "internalType": "int256",
          "name": "",
          "type": "int256"
        }
      ],
      "stateMutability": "view",
      "type": "function"
    },
    {
      "inputs": [],
      "name": "endTime",
      "outputs": [
        {
          "internalType": "uint256",
          "name": "",
          "type": "uint256"
        }
      ],
      "stateMutability": "view",
      "type": "function"
    },
    {
      "inputs": [],
      "name": "getMarketInfo",
      "outputs": [
        {
          "internalType": "string",
          "name": "_assetSymbol",
          "type": "string"
        },
        {
          "internalType": "enum USDTPricePredictionMarket.Duration",
          "name": "_duration",
          "type": "uint8"
        },
        {
          "internalType": "enum USDTPricePredictionMarket.MarketState",
          "name": "_state",
          "type": "uint8"
        },
        {
          "internalType": "uint256",
          "name": "_startTime",
          "type": "uint256"
        },
        {
          "internalType": "uint256",
          "name": "_endTime",
          "type": "uint256"
        },
        {
          "internalType": "int256",
          "name": "_startPrice",
          "type": "int256"
        },
        {
          "internalType": "int256",
          "name": "_endPrice",
          "type": "int256"
        },
        {
          "internalType": "uint256[2]",
          "name": "_quantities",
          "type": "uint256[2]"
        },
        {
          "internalType": "uint256",
          "name": "_totalVolume",
          "type": "uint256"
        },
        {
          "internalType": "uint256",
          "name": "_totalLiquidity",
          "type": "uint256"
        }
      ],
      "stateMutability": "view",
      "type": "function"
    },
    {
      "inputs": [
        {
          "internalType": "enum USDTPricePredictionMarket.PriceDirection",
          "name": "direction",
          "type": "uint8"
        }
      ],
      "name": "getPrice",
      "outputs": [
        {
          "internalType": "uint256",
          "name": "",
          "type": "uint256"
        }
      ],
      "stateMutability": "view",
      "type": "function"
    },
    {
      "inputs": [],
      "name": "getProbability",
      "outputs": [
        {
          "internalType": "uint256",
          "name": "",
          "type": "uint256"
        }
      ],
      "stateMutability": "view",
      "type": "function"
    },
    {
      "inputs": [
        {
          "internalType": "address",
          "name": "user",
          "type": "address"
        },
        {
          "internalType": "enum USDTPricePredictionMarket.PriceDirection",
          "name": "direction",
          "type": "uint8"
        }
      ],
      "name": "getUserShares",
      "outputs": [
        {
          "internalType": "uint256",
          "name": "",
          "type": "uint256"
        }
      ],
      "stateMutability": "view",
      "type": "function"
    },
    {
      "inputs": [],
      "name": "isSettled",
      "outputs": [
        {
          "internalType": "bool",
          "name": "",
          "type": "bool"
        }
      ],
      "stateMutability": "view",
      "type": "function"
    },
    {
      "inputs": [],
      "name": "liquidityParameter",
      "outputs": [
        {
          "internalType": "uint256",
          "name": "",
          "type": "uint256"
        }
      ],
      "stateMutability": "view",
      "type": "function"
    },
    {
      "inputs": [],
      "name": "lockMarket",
      "outputs": [],
      "stateMutability": "nonpayable",
      "type": "function"
    },
    {
      "inputs": [
        {
          "internalType": "address",
          "name": "",
          "type": "address"
        }
      ],
      "name": "lpTokenBalances",
      "outputs": [
        {
          "internalType": "uint256",
          "name": "",
          "type": "uint256"
        }
      ],
      "stateMutability": "view",
      "type": "function"
    },
    {
      "inputs": [],
      "name": "owner",
      "outputs": [
        {
          "internalType": "address",
          "name": "",
          "type": "address"
        }
      ],
      "stateMutability": "view",
      "type": "function"
    },
    {
      "inputs": [],
      "name": "pause",
      "outputs": [],
      "stateMutability": "nonpayable",
      "type": "function"
    },
    {
      "inputs": [],
      "name": "paused",
      "outputs": [
        {
          "internalType": "bool",
          "name": "",
          "type": "bool"
        }
      ],
      "stateMutability": "view",
      "type": "function"
    },
    {
      "inputs": [],
      "name": "priceFeed",
      "outputs": [
        {
          "internalType": "contract AggregatorV3Interface",
          "name": "",
          "type": "address"
        }
      ],
      "stateMutability": "view",
      "type": "function"
    },
    {
      "inputs": [],
      "name": "priceRecorded",
      "outputs": [
        {
          "internalType": "bool",
          "name": "",
          "type": "bool"
        }
      ],
      "stateMutability": "view",
      "type": "function"
    },
    {
      "inputs": [
        {
          "internalType": "uint256",
          "name": "",
          "type": "uint256"
        }
      ],
      "name": "quantities",
      "outputs": [
        {
          "internalType": "uint256",
          "name": "",
          "type": "uint256"
        }
      ],
      "stateMutability": "view",
      "type": "function"
    },
    {
      "inputs": [],
      "name": "recordStartPrice",
      "outputs": [],
      "stateMutability": "nonpayable",
      "type": "function"
    },
    {
      "inputs": [
        {
          "internalType": "uint256",
          "name": "lpTokens",
          "type": "uint256"
        }
      ],
      "name": "removeLiquidity",
      "outputs": [],
      "stateMutability": "nonpayable",
      "type": "function"
    },
    {
      "inputs": [],
      "name": "renounceOwnership",
      "outputs": [],
      "stateMutability": "nonpayable",
      "type": "function"
    },
    {
      "inputs": [],
      "name": "resolveMarket",
      "outputs": [],
      "stateMutability": "nonpayable",
      "type": "function"
    },
    {
      "inputs": [
        {
          "internalType": "enum USDTPricePredictionMarket.PriceDirection",
          "name": "direction",
          "type": "uint8"
        },
        {
          "internalType": "uint256",
          "name": "shares",
          "type": "uint256"
        },
        {
          "internalType": "uint256",
          "name": "minPayout",
          "type": "uint256"
        }
      ],
      "name": "sellShares",
      "outputs": [],
      "stateMutability": "nonpayable",
      "type": "function"
    },
    {
      "inputs": [],
      "name": "startPrice",
      "outputs": [
        {
          "internalType": "int256",
          "name": "",
          "type": "int256"
        }
      ],
      "stateMutability": "view",
      "type": "function"
    },
    {
      "inputs": [],
      "name": "startTime",
      "outputs": [
        {
          "internalType": "uint256",
          "name": "",
          "type": "uint256"
        }
      ],
      "stateMutability": "view",
      "type": "function"
    },
    {
      "inputs": [],
      "name": "state",
      "outputs": [
        {
          "internalType": "enum USDTPricePredictionMarket.MarketState",
          "name": "",
          "type": "uint8"
        }
      ],
      "stateMutability": "view",
      "type": "function"
    },
    {
      "inputs": [],
      "name": "totalLPTokens",
      "outputs": [
        {
          "internalType": "uint256",
          "name": "",
          "type": "uint256"
        }
      ],
      "stateMutability": "view",
      "type": "function"
    },
    {
      "inputs": [],
      "name": "totalLiquidity",
      "outputs": [
        {
          "internalType": "uint256",
          "name": "",
          "type": "uint256"
        }
      ],
      "stateMutability": "view",
      "type": "function"
    },
    {
      "inputs": [],
      "name": "totalVolume",
      "outputs": [
        {
          "internalType": "uint256",
          "name": "",
          "type": "uint256"
        }
      ],
      "stateMutability": "view",
      "type": "function"
    },
    {
      "inputs": [
        {
          "internalType": "address",
          "name": "newOwner",
          "type": "address"
        }
      ],
      "name": "transferOwnership",
      "outputs": [],
      "stateMutability": "nonpayable",
      "type": "function"
    },
    {
      "inputs": [],
      "name": "unpause",
      "outputs": [],
      "stateMutability": "nonpayable",
      "type": "function"
    },
    {
      "inputs": [],
      "name": "usdtToken",
      "outputs": [
        {
          "internalType": "contract IERC20",
          "name": "",
          "type": "address"
        }
      ],
      "stateMutability": "view",
      "type": "function"
    },
    {
      "inputs": [
        {
          "internalType": "address",
          "name": "",
          "type": "address"
        },
        {
          "internalType": "enum USDTPricePredictionMarket.PriceDirection",
          "name": "",
          "type": "uint8"
        }
      ],
      "name": "userShares",
      "outputs": [
        {
          "internalType": "uint256",
          "name": "",
          "type": "uint256"
        }
      ],
      "stateMutability": "view",
      "type": "function"
    },
    {
      "inputs": [],
      "name": "winningDirection",
      "outputs": [
        {
          "internalType": "enum USDTPricePredictionMarket.PriceDirection",
          "name": "",
          "type": "uint8"
        }
      ],
      "stateMutability": "view",
      "type": "function"
    },
    {
      "inputs": [],
      "name": "withdrawCreatorFees",
      "outputs": [],
      "stateMutability": "nonpayable",
      "type": "function"
    },
    {
      "inputs": [],
      "name": "withdrawProtocolFees",
      "outputs": [],
      "stateMutability": "nonpayable",
      "type": "function"
    }
  ],
  "bytecode": "0x604060a081523462000578576200285d803803806200001e816200057d565b92833981019060c081830312620005785780516001600160401b0381116200057857810182601f82011215620005785780516001600160401b0381116200048b5762000074601f8201601f19166020016200057d565b93818552602082840101116200057857620000969160208086019101620005a3565b60208101519060038210156200057857620000b3848201620005c8565b606082015193620000d560a0620000cd60808601620005c8565b9401620005c8565b926001600160a01b038116156200056057600080546001600160a01b031981166001600160a01b0384811691821784558a5193919216907f8be0079c531659141344cd1fd0a4f28419497f9722a3daafe3b4186f6b6457e09080a3600180556001600160a01b038416156200052957508515620004e5576001600160a01b03841615620004a15781516001600160401b0381116200048b57600354600181811c9116801562000480575b60208210146200046a57601f811162000400575b50806020601f821160011462000377576000916200036b575b508160011b916000199060031b1c1916176003555b6004805460ff191660ff8716178155600980546001600160a01b038681166001600160a01b031992831617909255600798909855600880549382169390981692909217909655831660805242600555600093806200032057600554610e1081018091116200030b576006555b61ff0019600c5416600c5560055490620002586006549360208a5192828480945193849201620005a3565b810103902096885196620002f6575085526020850152858401526001600160a01b0390811660608401521660808201527fc3c99c899381183e7e6a378454f8705bd1a7701585846d03ef3917dc337407439060a090a25161227f9081620005de82396080518181816103ad015281816106c30152818161091101528181610b1101528181610c2a01528181610dce0152818161103f015261126d0152f35b602190634e487b7160e01b6000525260246000fd5b601187634e487b7160e01b6000525260246000fd5b6000945060018103620003465760055461384081018091116200030b576006556200022d565b6000945060011981016200022d576201518042018042116200030b576006556200022d565b905083015138620001ac565b600360009081527fc2575a0e9e593c00f959f8c92f12db2869c3395a3b0502d05e2516446f71f85b9250601f198416905b818110620003e757509083600194939210620003cd575b5050811b01600355620001c1565b85015160001960f88460031b161c191690553880620003bf565b9192602060018192868a015181550194019201620003a8565b60036000527fc2575a0e9e593c00f959f8c92f12db2869c3395a3b0502d05e2516446f71f85b601f830160051c810191602084106200045f575b601f0160051c01905b81811062000452575062000193565b6000815560010162000443565b90915081906200043a565b634e487b7160e01b600052602260045260246000fd5b90607f16906200017f565b634e487b7160e01b600052604160045260246000fd5b865162461bcd60e51b815260206004820152601460248201527f496e76616c6964205553445420616464726573730000000000000000000000006044820152606490fd5b865162461bcd60e51b815260206004820152601b60248201527f496e76616c6964206c697175696469747920706172616d6574657200000000006044820152606490fd5b62461bcd60e51b8152602060048201526012602482015271125b9d985b1a59081c1c9a58d9481999595960721b6044820152606490fd5b8651631e4fbdf760e01b815260006004820152602490fd5b600080fd5b6040519190601f01601f191682016001600160401b038111838210176200048b57604052565b60005b838110620005b75750506000910152565b8181015183820152602001620005a6565b51906001600160a01b0382168203620005785756fe6080604081815260048036101561001557600080fd5b600092833560e01c90816302d05d3f1461192e575080630b4501fd146118af5780630fb5a6b41461190857806315770f92146118e9578063176de7a8146118b45780631a7dfa9f146118af57806323341a05146117a95780632963f580146117855780632b9b55b3146115a25780633197cbb61461158357806331d1c1b3146115645780633270bb5b1461152057806337f1e7f2146114f05780633a69a1be146114d15780633f4ba83a1461146857806345993c661461131657806351c6590a146111f15780635c975abb146111cd5780635e3f2727146111b15780635f81a57c1461119257806363db7eae146111765780636bfefd6b1461111b5780636c0a6f47146110fc5780636ffde0d714610eef578063715018a614610e95578063741bef1a14610e6c57806378e9792514610e4d5780638456cb5914610df25780638795cccb14610d925780638da5cb5b14610d6a5780639925279a14610cd55780639c8f9f2314610b6b578063a412540314610b40578063a98ad46c14610afc578063ac0bd1fb146108a6578063b401faf11461063e578063b868723e1461061f578063c19d93fb146105f5578063c235253f146102fe578063c34eea411461044f578063d2fa0a3314610423578063d73792a914610406578063e1cd04b41461036d578063e345365b14610335578063ee9b0cd5146102fe578063ef6283d9146102df578063f1a9af89146102bc5763f2fde38b1461023357600080fd5b346102b85760203660031901126102b85761024c611b62565b90610255611bcc565b6001600160a01b039182169283156102a257505082546001600160a01b0319811683178455167f8be0079c531659141344cd1fd0a4f28419497f9722a3daafe3b4186f6b6457e08380a380f35b51631e4fbdf760e01b8152908101849052602490fd5b8280fd5b5050346102db57816003193601126102db57602090600a549051908152f35b5080fd5b5050346102db57816003193601126102db576020906011549051908152f35b5050346102db5761032d6020928261031536611b78565b6001600160a01b039091168352600f86529120611bb4565b549051908152f35b5050346102db5760203660031901126102db5760209181906001600160a01b0361035d611b62565b1681526012845220549051908152f35b50346102b857826003193601126102b8576008546001600160a01b031691338390036103d457836103d184601454906103a78215156120ba565b836014557f0000000000000000000000000000000000000000000000000000000000000000611f39565b80f35b906020606492519162461bcd60e51b8352820152600c60248201526b27b7363c9031b932b0ba37b960a11b6044820152fd5b5050346102db57816003193601126102db57602090516127108152f35b5050346102db57816003193601126102db5760209061044d60ff600c5460101c1691518092611ba7565bf35b5090346102b857826003193601126102b857600c549160ff83166105ba5760055461012c81018091116105a7574211610565576009548251633fabe5a360e21b81529160a09183919082906001600160a01b03165afa90811561055b577fc5bc035ed91d6009ab88e4f083be67cbf1d8d262d61a79a8f03637a79ee0df359385918693610517575b506104fc610e106104f684956104f08a60019713611c67565b42611ca3565b10611cb0565b82600a5560ff191617600c558151908152426020820152a180f35b6104f6935060019250610e106105466104fc9260a03d8111610554575b61053e81836119e5565b810190611c32565b5097925050945050506104d7565b503d610534565b82513d86823e3d90fd5b6020606492519162461bcd60e51b8352820152601860248201527f546f6f206c61746520746f207265636f726420707269636500000000000000006044820152fd5b634e487b7160e01b855260118252602485fd5b6020606492519162461bcd60e51b83528201526016602482015275141c9a58d948185b1c9958591e481c9958dbdc99195960521b6044820152fd5b5050346102db57816003193601126102db5760209061044d60ff600c5460081c1691518092611b32565b5050346102db57816003193601126102db57602090600b549051908152f35b5090346102b857826003193601126102b85760ff600c5460081c16828110156108935760020361085a57610670611f16565b338352602091600f83528184209061069160ff600c5460101c168093611bb4565b5480156108235760028310156108105782600d01549081156107d45784516370a0823160e01b815230938101939093527f0000000000000000000000000000000000000000000000000000000000000000928792919087816024816001600160a01b0389165afa9081156107ca578491610787575b509261075f61077198969361075a7f1a31e733a172afcf46074b3106c17f0c298e226442682a03c1e99ce256139ec299979461075461074b6107799960135490611ca3565b60145490611ca3565b90611dab565b611dbe565b978893338352600f8852868320611bb4565b553390611f39565b519283523392a26001805580f35b9390508784819794989693993d83116107c3575b6107a581836119e5565b810103126107c057925194969395919490939061075f610706565b80fd5b503d61079b565b87513d86823e3d90fd5b845162461bcd60e51b81528084018790526016602482015275139bc81dda5b9b9a5b99c81cda185c995cc81cdbdb1960521b6044820152606490fd5b634e487b7160e01b865260218252602486fd5b835162461bcd60e51b815280830186905260116024820152704e6f2077696e6e696e672073686172657360781b6044820152606490fd5b906020606492519162461bcd60e51b8352820152601360248201527213585c9ad95d081b9bdd081c995cdbdb1d9959606a1b6044820152fd5b634e487b7160e01b845260218352602484fd5b509190346102db576108b736611b3f565b90919260ff600c5460081c1686811015610ae9576108d59015611cef565b6108e26006544210611d2f565b6108ea611f16565b6108f2611ef8565b60ff600c541615610aa75782156109098115611d6e565b6109358430337f0000000000000000000000000000000000000000000000000000000000000000611e3b565b60c8840284810460c814821715610a8157612710809104906109578287611ca3565b9260328702908782046032141715610a94576109876109aa936109829361099f930493848092611ca3565b611ca3565b9161099481601354611bf8565b601355601454611bf8565b601455601054611bf8565b6010556109b685611fd0565b90670de0b6b3a764000090818102918183041490151715610a81576109e7916109de91611dbe565b92831015611dde565b6002841015610a6e5790610a647fc1ab9d71477e1b8bc6e836e1816edbaa2f57a1a23338caa2ce0a9b1b1db62108939285600d01610a26848254611bf8565b9055338752600f602052610a3c86828920611bb4565b610a47848254611bf8565b9055610a5584601554611bf8565b60155551928392339684611e1e565b0390a26001805580f35b634e487b7160e01b855260218652602485fd5b634e487b7160e01b875260118852602487fd5b634e487b7160e01b895260118a52602489fd5b5162461bcd60e51b8152602081870152601c60248201527f5374617274207072696365206e6f74207265636f7264656420796574000000006044820152606490fd5b634e487b7160e01b865260218752602486fd5b5050346102db57816003193601126102db57517f00000000000000000000000000000000000000000000000000000000000000006001600160a01b03168152602090f35b50346102b85760203660031901126102b8573560028110156102b85760209250600d01549051908152f35b5090346102b857602080600319360112610cd157823592610b8a611f16565b33855260128252838386205410610c975760ff600c5460081c16818110156108105715610c605750907f96cd817c6329656790ef8fba7675405193677d39619571282f5e21f3a98cd05991610bed610be460105486611dab565b60115490611dbe565b9033865260128152828620610c03868254611ca3565b9055610c1185601154611ca3565b601155610c2082601054611ca3565b601055610c4e82337f0000000000000000000000000000000000000000000000000000000000000000611f39565b82519485528401523392a26001805580f35b915162461bcd60e51b81529182015260136024820152724d61726b6574207374696c6c2061637469766560681b6044820152606490fd5b915162461bcd60e51b8152918201526016602482015275496e73756666696369656e74204c5020746f6b656e7360501b6044820152606490fd5b8380fd5b50346102b857826003193601126102b857600c549160ff8360081c1682811015610d5757610d039015611cef565b6006544210610d1d5761ff0019831661010017600c558380f35b906020606492519162461bcd60e51b8352820152601460248201527313585c9ad95d081b9bdd08195b991959081e595d60621b6044820152fd5b634e487b7160e01b855260218352602485fd5b5050346102db57816003193601126102db57905490516001600160a01b039091168152602090f35b83346107c057806003193601126107c057610dab611bcc565b6103d1601354610dbc8115156120ba565b601383905582546001600160a01b03167f0000000000000000000000000000000000000000000000000000000000000000611f39565b5050346102db57816003193601126102db5760207f62e78cea01bee320cd4e420270b5ea74000d11b0c9f74754ebdbfc544b05a25891610e30611bcc565b610e38611ef8565b600160ff19600254161760025551338152a180f35b5050346102db57816003193601126102db576020906005549051908152f35b5050346102db57816003193601126102db5760095490516001600160a01b039091168152602090f35b83346107c057806003193601126107c057610eae611bcc565b80546001600160a01b03198116825581906001600160a01b03167f8be0079c531659141344cd1fd0a4f28419497f9722a3daafe3b4186f6b6457e08280a380f35b509190346102db57610f0036611b3f565b919260ff600c5460081c1686811015610ae957610f1d9015611cef565b610f2a6006544210611d2f565b610f32611f16565b610f3a611ef8565b81156110ba57338552600f60205281610f5585838820611bb4565b541061108257610f83670de0b6b3a7640000610f79610f7387611fd0565b85611dab565b0493841015611dde565b60c883029280159381810460c814851715610a815761271080910491610fa98382611ca3565b9560328202918204603214171561106f57610987610fd3936109829361099f930493848092611ca3565b6010556002841015610a6e5790610a647faa68026cba73386b81aaef0208a11ad1c3f8d1306cf0734631f076b7baea05ba939285600d01611015848254611ca3565b9055338752600f60205261102b86828920611bb4565b611036848254611ca3565b905561106384337f0000000000000000000000000000000000000000000000000000000000000000611f39565b51928392339684611e1e565b634e487b7160e01b885260118952602488fd5b5162461bcd60e51b81526020818701526013602482015272496e73756666696369656e742073686172657360681b6044820152606490fd5b5162461bcd60e51b8152602081870152601a60248201527f4d7573742073656c6c206174206c6561737420312073686172650000000000006044820152606490fd5b5050346102db57816003193601126102db576020906014549051908152f35b5082346107c057806003193601126107c057611135611bcc565b600c5460ff8160081c1692808410156111635750611157610300929315611cef565b61ff00191617600c5580f35b634e487b7160e01b835260219052602482fd5b5050346102db57816003193601126102db576020905160c88152f35b5050346102db57816003193601126102db576020906015549051908152f35b5050346102db57816003193601126102db576020905160648152f35b5050346102db57816003193601126102db5760209060ff6002541690519015158152f35b509190346102db5760203660031901126102db5782359060ff600c5460081c168481101561130357906112457fac1d76749e5447b7b16f5ab61447e1bd502f3bb4807af3b28e620d1700a6ee459215611cef565b6112526006544210611d2f565b61125a611f16565b611265831515611d6e565b6112918330337f0000000000000000000000000000000000000000000000000000000000000000611e3b565b601154806112e3576112b48480925b6112ac87601054611bf8565b601055611bf8565b60115533855260126020528185206112cd828254611bf8565b9055815193845260208401523392a26001805580f35b6112b46112fc6112f38387611dab565b60105490611dbe565b80926112a0565b634e487b7160e01b845260218552602484fd5b50346102b857826003193601126102b8578151611332816119c9565b60028152602081019183368437600d5461134b83611f89565b52600e5461135883611fac565b52600754928251156114305782511561141d5783611376915161210b565b8590815b84518810156113b0576113a46113aa9161139e886113988c8a611fbc565b5161210b565b90611bf8565b976120fc565b9661137a565b8690670de0b6b3a7640000928381029080820485149015171561140a57906113d791611dbe565b926064840293808504606414901517156113f75750602093505191048152f35b634e487b7160e01b815260118552602490fd5b634e487b7160e01b855260118652602485fd5b634e487b7160e01b865260328252602486fd5b845162461bcd60e51b81526020818401526012602482015271125b9d985b1a59081bdd5d18dbdb5948125160721b6044820152606490fd5b50346102b857826003193601126102b857611481611bcc565b6002549060ff8216156114c3575060ff1916600255513381527f5db9ee0a495bf2e6ff9c91a7834c1ba4fdd244a5e8aa4e537bd38aeae4b073aa90602090a180f35b8251638dfc202b60e01b8152fd5b5050346102db57816003193601126102db576020906007549051908152f35b50346102b85760203660031901126102b857359160028310156107c05750611519602092611fd0565b9051908152f35b5082346107c057806003193601126107c05760ff600c5460081c169180831015611551576020836002865191148152f35b634e487b7160e01b825260219052602490fd5b5050346102db57816003193601126102db576020906013549051908152f35b5050346102db57816003193601126102db576020906006549051908152f35b50346102b857826003193601126102b857600c9060ff825460081c16818110156117725760010361173b576115d5611f16565b81549060ff8216156116f8576009548451633fabe5a360e21b81529160a09183919082906001600160a01b03165afa80156116ee579360ff92608094927faf1e4605fc21ca0a41ec8585ce5c1d60b3da2d0b813a61c474f20268d0436ea896889189916116bc575b50610e106104f6611653926104f08c8613611c67565b80600b55600a54126000146116aa5750815462ff0000191682555b61020061ff001983541617809255600a54611694600b5493835195869160101c16611ba7565b6020840152820152426060820152a16001805580f35b62ff000019166201000017825561166e565b6104f6925061165391506116e0610e109160a03d81116105545761053e81836119e5565b50959250509392505061163d565b84513d87823e3d90fd5b606490602085519162461bcd60e51b8352820152601860248201527f5374617274207072696365206e6f74207265636f7264656400000000000000006044820152fd5b606490602084519162461bcd60e51b8352820152601160248201527013585c9ad95d081b9bdd081b1bd8dad959607a1b6044820152fd5b634e487b7160e01b855260218252602485fd5b5050346102db57816003193601126102db5760209060ff600c541690519015158152f35b50346102b857826003193601126102b85760ff83918380516117ca81611997565b369037541660ff600c5460081c169260055460065491600a5491600b5460155493601054956117f7611a07565b9385519586600d908c905b60028210611898575050506118359a9b6118499161181f89611997565b61184181519d8e99610160808c528b0190611af2565b9c6020809a0190611974565b8c0190611b32565b60608a0152608089015260a088015260c087015260e086019196915b60028310611883575050508394506101208401526101408301520390f35b81806001928a51815201980192019196611865565b825481526001928301929190910190602001611802565b611953565b5050346102db57816003193601126102db576118e5906118d2611a07565b9051918291602083526020830190611af2565b0390f35b5050346102db57816003193601126102db576020906010549051908152f35b5091346107c057806003193601126107c0575061044d60ff602093541691518092611974565b8490346102db57816003193601126102db576008546001600160a01b03168152602090f35b3461196f57600036600319011261196f57602060405160328152f35b600080fd5b9060038210156119815752565b634e487b7160e01b600052602160045260246000fd5b6040810190811067ffffffffffffffff8211176119b357604052565b634e487b7160e01b600052604160045260246000fd5b6060810190811067ffffffffffffffff8211176119b357604052565b90601f8019910116810190811067ffffffffffffffff8211176119b357604052565b60405190600060035490600182811c90808416938415611ae8575b6020948584108114611ad45783885287949392918115611ab45750600114611a55575b5050611a53925003836119e5565b565b9093915060036000527fc2575a0e9e593c00f959f8c92f12db2869c3395a3b0502d05e2516446f71f85b936000915b818310611a9c575050611a5393508201013880611a45565b85548884018501529485019487945091830191611a84565b915050611a5394925060ff191682840152151560051b8201013880611a45565b634e487b7160e01b85526022600452602485fd5b91607f1691611a22565b919082519283825260005b848110611b1e575050826000602080949584010152601f8019910116010190565b602081830181015184830182015201611afd565b9060048210156119815752565b606090600319011261196f57600435600281101561196f57906024359060443590565b600435906001600160a01b038216820361196f57565b604090600319011261196f576004356001600160a01b038116810361196f5790602435600281101561196f5790565b9060028210156119815752565b90600281101561198157600052602052604060002090565b6000546001600160a01b03163303611be057565b60405163118cdaa760e01b8152336004820152602490fd5b91908201809211611c0557565b634e487b7160e01b600052601160045260246000fd5b519069ffffffffffffffffffff8216820361196f57565b908160a091031261196f57611c4681611c1b565b91602082015191604081015191611c64608060608401519301611c1b565b90565b15611c6e57565b60405162461bcd60e51b815260206004820152600d60248201526c496e76616c696420707269636560981b6044820152606490fd5b91908203918211611c0557565b15611cb757565b60405162461bcd60e51b815260206004820152601060248201526f50726963652064617461207374616c6560801b6044820152606490fd5b15611cf657565b60405162461bcd60e51b81526020600482015260116024820152704d61726b6574206e6f742061637469766560781b6044820152606490fd5b15611d3657565b60405162461bcd60e51b815260206004820152601060248201526f13585c9ad95d081a185cc8195b99195960821b6044820152606490fd5b15611d7557565b60405162461bcd60e51b815260206004820152600e60248201526d135d5cdd081cd95b99081554d11560921b6044820152606490fd5b81810292918115918404141715611c0557565b8115611dc8570490565b634e487b7160e01b600052601260045260246000fd5b15611de557565b60405162461bcd60e51b815260206004820152601160248201527014db1a5c1c1859d948195e18d959591959607a1b6044820152606490fd5b604091949392611e32826060810197611ba7565b60208201520152565b6040516323b872dd60e01b60208201526001600160a01b03928316602482015292909116604483015260648083019390935291815260a081019181831067ffffffffffffffff8411176119b357611a53926040525b906000602091828151910182855af115611eec576000513d611ee357506001600160a01b0381163b155b611ec15750565b604051635274afe760e01b81526001600160a01b039091166004820152602490fd5b60011415611eba565b6040513d6000823e3d90fd5b60ff60025416611f0457565b60405163d93c066560e01b8152600490fd5b600260015414611f27576002600155565b604051633ee5aeb560e01b8152600490fd5b60405163a9059cbb60e01b60208201526001600160a01b039092166024830152604480830193909352918152608081019167ffffffffffffffff8311828410176119b357611a5392604052611e90565b805115611f965760200190565b634e487b7160e01b600052603260045260246000fd5b805160011015611f965760400190565b8051821015611f965760209160051b010190565b9060028210156119815760405190611fe7826119c9565b600282526040366020840137600d54611fff83611f89565b52600e5461200c83611fac565b5260075492825181101561208057836113986120289285611fbc565b91600091825b82518410156120585761204c6120529161139e886113988888611fbc565b936120fc565b9261202e565b9250935050670de0b6b3a764000091828102928184041490151715611c0557611c6491611dbe565b60405162461bcd60e51b8152602060048201526012602482015271125b9d985b1a59081bdd5d18dbdb5948125160721b6044820152606490fd5b156120c157565b60405162461bcd60e51b81526020600482015260136024820152724e6f206665657320746f20776974686472617760681b6044820152606490fd5b6000198114611c055760010190565b919091821561220457670de0b6b3a76400009283820291808304851490151715611c055761213891611dbe565b9068056bc75e2d631000008210156121ca57600192918290815b6014861115612164575b505050909150565b8161216e91611dab565b828602908682048414871517156121b5576121939161218c91611dbe565b8095611bf8565b946103e885106121ad576121a6906120fc565b9493612152565b85945061215c565b60246000634e487b7160e01b81526011600452fd5b60405162461bcd60e51b81526020600482015260126024820152714578706f6e656e7420746f6f206c6172676560701b6044820152606490fd5b60405162461bcd60e51b815260206004820152601a60248201527f44656e6f6d696e61746f722063616e6e6f74206265207a65726f0000000000006044820152606490fdfea264697066735822122072d0a3c63256955a17b48e298519e066713e145ac0370e60a4b0d22875b7d2cf64736f6c63430008140033",
  "linkReferences": {},
  "deployedLinkReferences": {}
}