{
  "_format": "hh-sol-artifact-1",
  "contractName": "USDTPriceMarketFactory",
  "sourceName": "contracts/core/USDTPriceMarketFactory.sol",
  "abi": [
    {
      "inputs": [
        {
          "internalType": "address",
          "name": "_protocolTreasury",
          "type": "address"
        },
        {
          "internalType": "address",
          "name": "_usdtToken",
          "type": "address"
        }
      ],
      "stateMutability": "nonpayable",
      "type": "constructor"
    },
    {
      "inputs": [
        {
          "internalType": "address",
          "name": "owner",
          "type": "address"
        }
      ],
      "name": "OwnableInvalidOwner",
      "type": "error"
    },
    {
      "inputs": [
        {
          "internalType": "address",
          "name": "account",
          "type": "address"
        }
      ],
      "name": "OwnableUnauthorizedAccount",
      "type": "error"
    },
    {
      "anonymous": false,
      "inputs": [
        {
          "indexed": false,
          "internalType": "uint256",
          "name": "oldFee",
          "type": "uint256"
        },
        {
          "indexed": false,
          "internalType": "uint256",
          "name": "newFee",
          "type": "uint256"
        }
      ],
      "name": "CreationFeeUpdated",
      "type": "event"
    },
    {
      "anonymous": false,
      "inputs": [
        {
          "indexed": false,
          "internalType": "uint256",
          "name": "oldParam",
          "type": "uint256"
        },
        {
          "indexed": false,
          "internalType": "uint256",
          "name": "newParam",
          "type": "uint256"
        }
      ],
      "name": "LiquidityParameterUpdated",
      "type": "event"
    },
    {
      "anonymous": false,
      "inputs": [
        {
          "indexed": true,
          "internalType": "address",
          "name": "market",
          "type": "address"
        },
        {
          "indexed": false,
          "internalType": "string",
          "name": "assetSymbol",
          "type": "string"
        },
        {
          "indexed": false,
          "internalType": "enum USDTPricePredictionMarket.Duration",
          "name": "duration",
          "type": "uint8"
        },
        {
          "indexed": true,
          "internalType": "address",
          "name": "creator",
          "type": "address"
        },
        {
          "indexed": false,
          "internalType": "uint256",
          "name": "timestamp",
          "type": "uint256"
        }
      ],
      "name": "MarketCreated",
      "type": "event"
    },
    {
      "anonymous": false,
      "inputs": [
        {
          "indexed": true,
          "internalType": "address",
          "name": "previousOwner",
          "type": "address"
        },
        {
          "indexed": true,
          "internalType": "address",
          "name": "newOwner",
          "type": "address"
        }
      ],
      "name": "OwnershipTransferred",
      "type": "event"
    },
    {
      "anonymous": false,
      "inputs": [
        {
          "indexed": true,
          "internalType": "string",
          "name": "symbol",
          "type": "string"
        },
        {
          "indexed": false,
          "internalType": "address",
          "name": "priceFeed",
          "type": "address"
        }
      ],
      "name": "PriceFeedAdded",
      "type": "event"
    },
    {
      "inputs": [
        {
          "internalType": "string",
          "name": "symbol",
          "type": "string"
        },
        {
          "internalType": "address",
          "name": "priceFeed",
          "type": "address"
        }
      ],
      "name": "addPriceFeed",
      "outputs": [],
      "stateMutability": "nonpayable",
      "type": "function"
    },
    {
      "inputs": [
        {
          "internalType": "uint256",
          "name": "",
          "type": "uint256"
        }
      ],
      "name": "allMarkets",
      "outputs": [
        {
          "internalType": "address",
          "name": "",
          "type": "address"
        }
      ],
      "stateMutability": "view",
      "type": "function"
    },
    {
      "inputs": [],
      "name": "createBNB24H",
      "outputs": [
        {
          "internalType": "address",
          "name": "",
          "type": "address"
        }
      ],
      "stateMutability": "payable",
      "type": "function"
    },
    {
      "inputs": [],
      "name": "createBNB4H",
      "outputs": [
        {
          "internalType": "address",
          "name": "",
          "type": "address"
        }
      ],
      "stateMutability": "payable",
      "type": "function"
    },
    {
      "inputs": [],
      "name": "createBTC1H",
      "outputs": [
        {
          "internalType": "address",
          "name": "",
          "type": "address"
        }
      ],
      "stateMutability": "payable",
      "type": "function"
    },
    {
      "inputs": [],
      "name": "createBTC24H",
      "outputs": [
        {
          "internalType": "address",
          "name": "",
          "type": "address"
        }
      ],
      "stateMutability": "payable",
      "type": "function"
    },
    {
      "inputs": [],
      "name": "createBTC4H",
      "outputs": [
        {
          "internalType": "address",
          "name": "",
          "type": "address"
        }
      ],
      "stateMutability": "payable",
      "type": "function"
    },
    {
      "inputs": [],
      "name": "createETH1H",
      "outputs": [
        {
          "internalType": "address",
          "name": "",
          "type": "address"
        }
      ],
      "stateMutability": "payable",
      "type": "function"
    },
    {
      "inputs": [],
      "name": "createETH24H",
      "outputs": [
        {
          "internalType": "address",
          "name": "",
          "type": "address"
        }
      ],
      "stateMutability": "payable",
      "type": "function"
    },
    {
      "inputs": [
        {
          "internalType": "string",
          "name": "assetSymbol",
          "type": "string"
        },
        {
          "internalType": "enum USDTPricePredictionMarket.Duration",
          "name": "duration",
          "type": "uint8"
        }
      ],
      "name": "createMarket",
      "outputs": [
        {
          "internalType": "address",
          "name": "market",
          "type": "address"
        }
      ],
      "stateMutability": "payable",
      "type": "function"
    },
    {
      "inputs": [],
      "name": "creationFee",
      "outputs": [
        {
          "internalType": "uint256",
          "name": "",
          "type": "uint256"
        }
      ],
      "stateMutability": "view",
      "type": "function"
    },
    {
      "inputs": [],
      "name": "defaultLiquidityParameter",
      "outputs": [
        {
          "internalType": "uint256",
          "name": "",
          "type": "uint256"
        }
      ],
      "stateMutability": "view",
      "type": "function"
    },
    {
      "inputs": [],
      "name": "getAllMarkets",
      "outputs": [
        {
          "internalType": "address[]",
          "name": "",
          "type": "address[]"
        }
      ],
      "stateMutability": "view",
      "type": "function"
    },
    {
      "inputs": [],
      "name": "getMarketCount",
      "outputs": [
        {
          "internalType": "uint256",
          "name": "",
          "type": "uint256"
        }
      ],
      "stateMutability": "view",
      "type": "function"
    },
    {
      "inputs": [
        {
          "internalType": "uint256",
          "name": "start",
          "type": "uint256"
        },
        {
          "internalType": "uint256",
          "name": "limit",
          "type": "uint256"
        }
      ],
      "name": "getMarkets",
      "outputs": [
        {
          "internalType": "address[]",
          "name": "",
          "type": "address[]"
        }
      ],
      "stateMutability": "view",
      "type": "function"
    },
    {
      "inputs": [
        {
          "internalType": "string",
          "name": "symbol",
          "type": "string"
        }
      ],
      "name": "getPriceFeed",
      "outputs": [
        {
          "internalType": "address",
          "name": "",
          "type": "address"
        }
      ],
      "stateMutability": "view",
      "type": "function"
    },
    {
      "inputs": [
        {
          "internalType": "address",
          "name": "",
          "type": "address"
        }
      ],
      "name": "isMarket",
      "outputs": [
        {
          "internalType": "bool",
          "name": "",
          "type": "bool"
        }
      ],
      "stateMutability": "view",
      "type": "function"
    },
    {
      "inputs": [],
      "name": "owner",
      "outputs": [
        {
          "internalType": "address",
          "name": "",
          "type": "address"
        }
      ],
      "stateMutability": "view",
      "type": "function"
    },
    {
      "inputs": [],
      "name": "paused",
      "outputs": [
        {
          "internalType": "bool",
          "name": "",
          "type": "bool"
        }
      ],
      "stateMutability": "view",
      "type": "function"
    },
    {
      "inputs": [
        {
          "internalType": "string",
          "name": "",
          "type": "string"
        }
      ],
      "name": "priceFeeds",
      "outputs": [
        {
          "internalType": "address",
          "name": "",
          "type": "address"
        }
      ],
      "stateMutability": "view",
      "type": "function"
    },
    {
      "inputs": [],
      "name": "protocolTreasury",
      "outputs": [
        {
          "internalType": "address",
          "name": "",
          "type": "address"
        }
      ],
      "stateMutability": "view",
      "type": "function"
    },
    {
      "inputs": [],
      "name": "renounceOwnership",
      "outputs": [],
      "stateMutability": "nonpayable",
      "type": "function"
    },
    {
      "inputs": [
        {
          "internalType": "uint256",
          "name": "newFee",
          "type": "uint256"
        }
      ],
      "name": "setCreationFee",
      "outputs": [],
      "stateMutability": "nonpayable",
      "type": "function"
    },
    {
      "inputs": [
        {
          "internalType": "uint256",
          "name": "newParam",
          "type": "uint256"
        }
      ],
      "name": "setLiquidityParameter",
      "outputs": [],
      "stateMutability": "nonpayable",
      "type": "function"
    },
    {
      "inputs": [
        {
          "internalType": "bool",
          "name": "_paused",
          "type": "bool"
        }
      ],
      "name": "setPaused",
      "outputs": [],
      "stateMutability": "nonpayable",
      "type": "function"
    },
    {
      "inputs": [
        {
          "internalType": "address",
          "name": "newTreasury",
          "type": "address"
        }
      ],
      "name": "setProtocolTreasury",
      "outputs": [],
      "stateMutability": "nonpayable",
      "type": "function"
    },
    {
      "inputs": [
        {
          "internalType": "address",
          "name": "newOwner",
          "type": "address"
        }
      ],
      "name": "transferOwnership",
      "outputs": [],
      "stateMutability": "nonpayable",
      "type": "function"
    },
    {
      "inputs": [],
      "name": "usdtToken",
      "outputs": [
        {
          "internalType": "address",
          "name": "",
          "type": "address"
        }
      ],
      "stateMutability": "view",
      "type": "function"
    }
  ],
  "bytecode": "0x60a034620003095762003e0c90601f38839003908101601f19168201906001600160401b038211838310176200030e578083916040958694855283398101031262000309576200004f8162000344565b906200005f602080920162000344565b3315620002f15760008054336001600160a01b0319808316821784558751909690936001600160a01b0393849391908416907f8be0079c531659141344cd1fd0a4f28419497f9722a3daafe3b4186f6b6457e09080a3662386f26fc1000060045568056bc75e2d6310000060055516918215620002bc5750821615620002785783600654161760065560805280620000f662000324565b6007815266109510cbd554d160ca1b8282015262000150855183816200011d818662000359565b600181520301902091735741306c21795fdcbb9b265ea0255f499dfe515c92838782541617905586519182809262000359565b0390209085519081527f1899bfed19bb5ad63c2bc7846fb4c1d443587802ecd6529054c82d3fd962cc1b938491a26200018862000324565b60078152661155120bd554d160ca1b828201528282620001e487518281620001b1818862000359565b60018152030190209373143db3ceefbdfe5631add3e50f7614b6ba708ba794858982541617905588519182809262000359565b039020928751908152a262000250620001fc62000324565b60078152661093908bd554d160ca1b83820152855183816200021f818562000359565b6001815203019020732514895c72f50d8bd4b4f9b1110f0d6bd2c97526809682541617905585519182809262000359565b039020928451908152a251613a85908162000387823960805181818161047501526108c80152f35b845162461bcd60e51b815260048101849052601460248201527f496e76616c6964205553445420616464726573730000000000000000000000006044820152606490fd5b62461bcd60e51b815260048101859052601060248201526f496e76616c696420747265617375727960801b6044820152606490fd5b8351631e4fbdf760e01b815260006004820152602490fd5b600080fd5b634e487b7160e01b600052604160045260246000fd5b60408051919082016001600160401b038111838210176200030e57604052565b51906001600160a01b03821682036200030957565b9081519160005b83811062000372575050016000815290565b80602080928401015181850152016200036056fe604060808152600490813610156200001657600080fd5b600091823560e01c9081630c5a61f81462000f175781630dc16e1f1462000dfb5781631575e6571462000d9057816316c38b3c1462000d455781633c1c3aee1462000cda57816343ded2711462000c6f57816352d84d1e1462000c295781635c975abb1462000c005781636ec934da1462000bbe578163715018a61462000b6057816379ae7cff1462000af5578163803db96d1462000aca57816380968d4814620009ad57816387892cf014620009425781638da5cb5b14620009185781639171172c14620008f7578163a98ad46c14620008b1578163b0772d0b1462000818578163b464f469146200077e578163b50584b314620002f3578163b7d862251462000727578163ba6c5fe614620006be578163c2ca748b1462000366578163cb8ae86c14620002f3578163d30ebfc11462000249578163dce0b4e41462000229578163f2fde38b1462000197575063fd69f3c2146200017457600080fd5b3462000193578160031936011262000193576020906002549051908152f35b5080fd5b905034620002255760203660031901126200022557620001b662000fa4565b90620001c16200111c565b6001600160a01b039182169283156200020f57505082546001600160a01b0319811683178455167f8be0079c531659141344cd1fd0a4f28419497f9722a3daafe3b4186f6b6457e08380a380f35b51631e4fbdf760e01b8152908101849052602490fd5b8280fd5b905034620002255782600319360112620002255760209250549051908152f35b9190508260031936011262000225578080519263c2ca748b60e01b845283015260076044830152661155120bd554d160ca1b606483015282602483015260208260848134305af1918215620002e95760209392620002b3575b50516001600160a01b039091168152f35b620002d9919250833d8111620002e1575b620002d0818362000fc0565b81019062001194565b9038620002a2565b503d620002c4565b81513d85823e3d90fd5b82843462000363576020366003190112620003635782359067ffffffffffffffff82116200036357506020926200032d9136910162001016565b826200034283519283815193849201620010f7565b6001908201908152819003830190205490516001600160a01b039091168152f35b80fd5b838380600319360112620001935767ffffffffffffffff928035848111620006ba5762000397903690830162001016565b6024918235926003841015620006b65760ff60065460a01c16620006835781543410620006415784519583519760209889860190620003d8818b84620010f7565b890160018152898b60018060a01b039b8c9303019020541615620005ff576200040e8a8a928a51809381928b51928391620010f7565b8101600181520301902054169060055488519261285d8085019385851090851117620005ed57918493918d93620011f3863960c08352620004616200045760c085018c62001149565b9484018c62001170565b8b830152606082015233608082015260a08b7f000000000000000000000000000000000000000000000000000000000000000016910152039082f08015620005e15787169660025468010000000000000000811015620005cf57828080938b620004d385600185970160025562001063565b83829392549160031b92831b921b19161790558b825260038d528a8220600160ff198254161790553490600654165af1903d15620005c8573d90620005188262000ff9565b91620005278951938462000fc0565b8252893d92013e5b15620005905750507fde126a50931dd07f7de339e9d51a95f068173ef67a801351cd40f4cf3d868f8784916200057f6200057486519260608452606084019062001149565b948883019062001170565b42858201528033940390a351908152f35b845162461bcd60e51b815291820187905260139082015272119959481d1c985b9cd9995c8819985a5b1959606a1b6044820152606490fd5b506200052f565b5050634e487b7160e01b815260418352fd5b508551903d90823e3d90fd5b634e487b7160e01b8652604188528686fd5b875162461bcd60e51b81528086018b90526018818601527f50726963652066656564206e6f7420737570706f7274656400000000000000006044820152606490fd5b906019606492602087519362461bcd60e51b85528401528201527f496e73756666696369656e74206372656174696f6e20666565000000000000006044820152fd5b90600e606492602087519362461bcd60e51b85528401528201526d119858dd1bdc9e481c185d5cd95960921b6044820152fd5b8580fd5b8380fd5b9190508260031936011262000225578080519263c2ca748b60e01b84528301526007604483015266109510cbd554d160ca1b606483015282602483015260208260848134305af1918215620002e95760209392620002b35750516001600160a01b039091168152f35b91905034620002255760203660031901126200022557817f5de302eeb1c80d4fb0c0953b692353f09ddf431411b8eb2034d5e8576956191292356200076b6200111c565b808254925582519182526020820152a180f35b905034620002255760203660031901126200022557803590620007a06200111c565b8115620007e15750907f6e515712d7c1b079931bc2e5abaaa2232d0bbaec22a28a19a2500a3790dbba9491600554908060055582519182526020820152a180f35b606490602084519162461bcd60e51b8352820152601160248201527024b73b30b634b2103830b930b6b2ba32b960791b6044820152fd5b82843462000363578060031936011262000363578151918291600254808552602080950194600283527f405787fa12a823e0f2b7631cc41b3ba8828b3321ca811111fa75cd3aa3bb5ace92905b82821062000890576200088c868662000881828b038362000fc0565b5191829182620010b1565b0390f35b83546001600160a01b03168752958601956001938401939091019062000865565b5050346200019357816003193601126200019357517f00000000000000000000000000000000000000000000000000000000000000006001600160a01b03168152602090f35b50503462000193578160031936011262000193576020906005549051908152f35b5050346200019357816003193601126200019357905490516001600160a01b039091168152602090f35b919050826003193601126200022557805163c2ca748b60e01b815291820181905260076044830152661093908bd554d160ca1b60648301526001602483015260208260848134305af1918215620002e95760209392620002b35750516001600160a01b039091168152f35b919050346200022557806003193601126200022557813591602493620009d5853585620011b5565b9160025480841162000ac1575b5084830392831162000aaf57620009f983620011d9565b9462000a088551968762000fc0565b838652601f1962000a1985620011d9565b01906020913683890137835b85811062000a3c578651806200088c8a82620010b1565b62000a5262000a4c8284620011b5565b62001063565b9054895183101562000a9d5760039190911b1c6001600160a01b0316600582901b8901840152600019811462000a8b5760010162000a25565b634e487b7160e01b8552601184528885fd5b634e487b7160e01b8752603286528a87fd5b634e487b7160e01b8252601190528490fd5b925038620009e2565b505034620001935781600319360112620001935760065490516001600160a01b039091168152602090f35b919050826003193601126200022557805163c2ca748b60e01b815291820181905260076044830152661093908bd554d160ca1b60648301526002602483015260208260848134305af1918215620002e95760209392620002b35750516001600160a01b039091168152f35b8334620003635780600319360112620003635762000b7d6200111c565b80546001600160a01b03198116825581906001600160a01b03167f8be0079c531659141344cd1fd0a4f28419497f9722a3daafe3b4186f6b6457e08280a380f35b50503462000193576020366003190112620001935760209160ff9082906001600160a01b0362000bed62000fa4565b1681526003855220541690519015158152f35b505034620001935781600319360112620001935760209060ff60065460a01c1690519015158152f35b905034620002255760203660031901126200022557359160025483101562000363575062000c5960209262001063565b905491519160018060a01b039160031b1c168152f35b919050826003193601126200022557805163c2ca748b60e01b81529182018190526007604483015266109510cbd554d160ca1b60648301526002602483015260208260848134305af1918215620002e95760209392620002b35750516001600160a01b039091168152f35b919050826003193601126200022557805163c2ca748b60e01b815291820181905260076044830152661155120bd554d160ca1b60648301526002602483015260208260848134305af1918215620002e95760209392620002b35750516001600160a01b039091168152f35b83903462000193576020366003190112620001935735801515809103620001935762000d706200111c565b6006805460ff60a01b191660a09290921b60ff60a01b1691909117905580f35b919050826003193601126200022557805163c2ca748b60e01b81529182018190526007604483015266109510cbd554d160ca1b60648301526001602483015260208260848134305af1918215620002e95760209392620002b35750516001600160a01b039091168152f35b9050346200022557816003193601126200022557803567ffffffffffffffff8111620006ba5762000e30903690830162001016565b6024356001600160a01b038116929083900362000f135762000e516200111c565b821562000edb57507f1899bfed19bb5ad63c2bc7846fb4c1d443587802ecd6529054c82d3fd962cc1b9162000ecd60209285519080519185818184019462000e9b818388620010f7565b81016001815203019020846bffffffffffffffffffffffff60a01b8254161790558651928392839251928391620010f7565b81010390209351908152a280f35b606490602085519162461bcd60e51b83528201526012602482015271125b9d985b1a59081c1c9a58d9481999595960721b6044820152fd5b8480fd5b90503462000225576020366003190112620002255762000f3662000fa4565b62000f406200111c565b6001600160a01b031691821562000f6e5750506bffffffffffffffffffffffff60a01b600654161760065580f35b906020606492519162461bcd60e51b8352820152601060248201526f496e76616c696420747265617375727960801b6044820152fd5b600435906001600160a01b038216820362000fbb57565b600080fd5b90601f8019910116810190811067ffffffffffffffff82111762000fe357604052565b634e487b7160e01b600052604160045260246000fd5b67ffffffffffffffff811162000fe357601f01601f191660200190565b81601f8201121562000fbb57803590620010308262000ff9565b9262001040604051948562000fc0565b8284526020838301011162000fbb57816000926020809301838601378301015290565b6002548110156200109b5760026000527f405787fa12a823e0f2b7631cc41b3ba8828b3321ca811111fa75cd3aa3bb5ace0190600090565b634e487b7160e01b600052603260045260246000fd5b6020908160408183019282815285518094520193019160005b828110620010d9575050505090565b83516001600160a01b031685529381019392810192600101620010ca565b60005b8381106200110b5750506000910152565b8181015183820152602001620010fa565b6000546001600160a01b031633036200113157565b60405163118cdaa760e01b8152336004820152602490fd5b906020916200116481518092818552858086019101620010f7565b601f01601f1916010190565b9060038210156200117e5752565b634e487b7160e01b600052602160045260246000fd5b9081602091031262000fbb57516001600160a01b038116810362000fbb5790565b91908201809211620011c357565b634e487b7160e01b600052601160045260246000fd5b67ffffffffffffffff811162000fe35760051b6020019056fe604060a081523462000578576200285d803803806200001e816200057d565b92833981019060c081830312620005785780516001600160401b0381116200057857810182601f82011215620005785780516001600160401b0381116200048b5762000074601f8201601f19166020016200057d565b93818552602082840101116200057857620000969160208086019101620005a3565b60208101519060038210156200057857620000b3848201620005c8565b606082015193620000d560a0620000cd60808601620005c8565b9401620005c8565b926001600160a01b038116156200056057600080546001600160a01b031981166001600160a01b0384811691821784558a5193919216907f8be0079c531659141344cd1fd0a4f28419497f9722a3daafe3b4186f6b6457e09080a3600180556001600160a01b038416156200052957508515620004e5576001600160a01b03841615620004a15781516001600160401b0381116200048b57600354600181811c9116801562000480575b60208210146200046a57601f811162000400575b50806020601f821160011462000377576000916200036b575b508160011b916000199060031b1c1916176003555b6004805460ff191660ff8716178155600980546001600160a01b038681166001600160a01b031992831617909255600798909855600880549382169390981692909217909655831660805242600555600093806200032057600554610e1081018091116200030b576006555b61ff0019600c5416600c5560055490620002586006549360208a5192828480945193849201620005a3565b810103902096885196620002f6575085526020850152858401526001600160a01b0390811660608401521660808201527fc3c99c899381183e7e6a378454f8705bd1a7701585846d03ef3917dc337407439060a090a25161227f9081620005de82396080518181816103ad015281816106c30152818161091101528181610b1101528181610c2a01528181610dce0152818161103f015261126d0152f35b602190634e487b7160e01b6000525260246000fd5b601187634e487b7160e01b6000525260246000fd5b6000945060018103620003465760055461384081018091116200030b576006556200022d565b6000945060011981016200022d576201518042018042116200030b576006556200022d565b905083015138620001ac565b600360009081527fc2575a0e9e593c00f959f8c92f12db2869c3395a3b0502d05e2516446f71f85b9250601f198416905b818110620003e757509083600194939210620003cd575b5050811b01600355620001c1565b85015160001960f88460031b161c191690553880620003bf565b9192602060018192868a015181550194019201620003a8565b60036000527fc2575a0e9e593c00f959f8c92f12db2869c3395a3b0502d05e2516446f71f85b601f830160051c810191602084106200045f575b601f0160051c01905b81811062000452575062000193565b6000815560010162000443565b90915081906200043a565b634e487b7160e01b600052602260045260246000fd5b90607f16906200017f565b634e487b7160e01b600052604160045260246000fd5b865162461bcd60e51b815260206004820152601460248201527f496e76616c6964205553445420616464726573730000000000000000000000006044820152606490fd5b865162461bcd60e51b815260206004820152601b60248201527f496e76616c6964206c697175696469747920706172616d6574657200000000006044820152606490fd5b62461bcd60e51b8152602060048201526012602482015271125b9d985b1a59081c1c9a58d9481999595960721b6044820152606490fd5b8651631e4fbdf760e01b815260006004820152602490fd5b600080fd5b6040519190601f01601f191682016001600160401b038111838210176200048b57604052565b60005b838110620005b75750506000910152565b8181015183820152602001620005a6565b51906001600160a01b0382168203620005785756fe6080604081815260048036101561001557600080fd5b600092833560e01c90816302d05d3f1461192e575080630b4501fd146118af5780630fb5a6b41461190857806315770f92146118e9578063176de7a8146118b45780631a7dfa9f146118af57806323341a05146117a95780632963f580146117855780632b9b55b3146115a25780633197cbb61461158357806331d1c1b3146115645780633270bb5b1461152057806337f1e7f2146114f05780633a69a1be146114d15780633f4ba83a1461146857806345993c661461131657806351c6590a146111f15780635c975abb146111cd5780635e3f2727146111b15780635f81a57c1461119257806363db7eae146111765780636bfefd6b1461111b5780636c0a6f47146110fc5780636ffde0d714610eef578063715018a614610e95578063741bef1a14610e6c57806378e9792514610e4d5780638456cb5914610df25780638795cccb14610d925780638da5cb5b14610d6a5780639925279a14610cd55780639c8f9f2314610b6b578063a412540314610b40578063a98ad46c14610afc578063ac0bd1fb146108a6578063b401faf11461063e578063b868723e1461061f578063c19d93fb146105f5578063c235253f146102fe578063c34eea411461044f578063d2fa0a3314610423578063d73792a914610406578063e1cd04b41461036d578063e345365b14610335578063ee9b0cd5146102fe578063ef6283d9146102df578063f1a9af89146102bc5763f2fde38b1461023357600080fd5b346102b85760203660031901126102b85761024c611b62565b90610255611bcc565b6001600160a01b039182169283156102a257505082546001600160a01b0319811683178455167f8be0079c531659141344cd1fd0a4f28419497f9722a3daafe3b4186f6b6457e08380a380f35b51631e4fbdf760e01b8152908101849052602490fd5b8280fd5b5050346102db57816003193601126102db57602090600a549051908152f35b5080fd5b5050346102db57816003193601126102db576020906011549051908152f35b5050346102db5761032d6020928261031536611b78565b6001600160a01b039091168352600f86529120611bb4565b549051908152f35b5050346102db5760203660031901126102db5760209181906001600160a01b0361035d611b62565b1681526012845220549051908152f35b50346102b857826003193601126102b8576008546001600160a01b031691338390036103d457836103d184601454906103a78215156120ba565b836014557f0000000000000000000000000000000000000000000000000000000000000000611f39565b80f35b906020606492519162461bcd60e51b8352820152600c60248201526b27b7363c9031b932b0ba37b960a11b6044820152fd5b5050346102db57816003193601126102db57602090516127108152f35b5050346102db57816003193601126102db5760209061044d60ff600c5460101c1691518092611ba7565bf35b5090346102b857826003193601126102b857600c549160ff83166105ba5760055461012c81018091116105a7574211610565576009548251633fabe5a360e21b81529160a09183919082906001600160a01b03165afa90811561055b577fc5bc035ed91d6009ab88e4f083be67cbf1d8d262d61a79a8f03637a79ee0df359385918693610517575b506104fc610e106104f684956104f08a60019713611c67565b42611ca3565b10611cb0565b82600a5560ff191617600c558151908152426020820152a180f35b6104f6935060019250610e106105466104fc9260a03d8111610554575b61053e81836119e5565b810190611c32565b5097925050945050506104d7565b503d610534565b82513d86823e3d90fd5b6020606492519162461bcd60e51b8352820152601860248201527f546f6f206c61746520746f207265636f726420707269636500000000000000006044820152fd5b634e487b7160e01b855260118252602485fd5b6020606492519162461bcd60e51b83528201526016602482015275141c9a58d948185b1c9958591e481c9958dbdc99195960521b6044820152fd5b5050346102db57816003193601126102db5760209061044d60ff600c5460081c1691518092611b32565b5050346102db57816003193601126102db57602090600b549051908152f35b5090346102b857826003193601126102b85760ff600c5460081c16828110156108935760020361085a57610670611f16565b338352602091600f83528184209061069160ff600c5460101c168093611bb4565b5480156108235760028310156108105782600d01549081156107d45784516370a0823160e01b815230938101939093527f0000000000000000000000000000000000000000000000000000000000000000928792919087816024816001600160a01b0389165afa9081156107ca578491610787575b509261075f61077198969361075a7f1a31e733a172afcf46074b3106c17f0c298e226442682a03c1e99ce256139ec299979461075461074b6107799960135490611ca3565b60145490611ca3565b90611dab565b611dbe565b978893338352600f8852868320611bb4565b553390611f39565b519283523392a26001805580f35b9390508784819794989693993d83116107c3575b6107a581836119e5565b810103126107c057925194969395919490939061075f610706565b80fd5b503d61079b565b87513d86823e3d90fd5b845162461bcd60e51b81528084018790526016602482015275139bc81dda5b9b9a5b99c81cda185c995cc81cdbdb1960521b6044820152606490fd5b634e487b7160e01b865260218252602486fd5b835162461bcd60e51b815280830186905260116024820152704e6f2077696e6e696e672073686172657360781b6044820152606490fd5b906020606492519162461bcd60e51b8352820152601360248201527213585c9ad95d081b9bdd081c995cdbdb1d9959606a1b6044820152fd5b634e487b7160e01b845260218352602484fd5b509190346102db576108b736611b3f565b90919260ff600c5460081c1686811015610ae9576108d59015611cef565b6108e26006544210611d2f565b6108ea611f16565b6108f2611ef8565b60ff600c541615610aa75782156109098115611d6e565b6109358430337f0000000000000000000000000000000000000000000000000000000000000000611e3b565b60c8840284810460c814821715610a8157612710809104906109578287611ca3565b9260328702908782046032141715610a94576109876109aa936109829361099f930493848092611ca3565b611ca3565b9161099481601354611bf8565b601355601454611bf8565b601455601054611bf8565b6010556109b685611fd0565b90670de0b6b3a764000090818102918183041490151715610a81576109e7916109de91611dbe565b92831015611dde565b6002841015610a6e5790610a647fc1ab9d71477e1b8bc6e836e1816edbaa2f57a1a23338caa2ce0a9b1b1db62108939285600d01610a26848254611bf8565b9055338752600f602052610a3c86828920611bb4565b610a47848254611bf8565b9055610a5584601554611bf8565b60155551928392339684611e1e565b0390a26001805580f35b634e487b7160e01b855260218652602485fd5b634e487b7160e01b875260118852602487fd5b634e487b7160e01b895260118a52602489fd5b5162461bcd60e51b8152602081870152601c60248201527f5374617274207072696365206e6f74207265636f7264656420796574000000006044820152606490fd5b634e487b7160e01b865260218752602486fd5b5050346102db57816003193601126102db57517f00000000000000000000000000000000000000000000000000000000000000006001600160a01b03168152602090f35b50346102b85760203660031901126102b8573560028110156102b85760209250600d01549051908152f35b5090346102b857602080600319360112610cd157823592610b8a611f16565b33855260128252838386205410610c975760ff600c5460081c16818110156108105715610c605750907f96cd817c6329656790ef8fba7675405193677d39619571282f5e21f3a98cd05991610bed610be460105486611dab565b60115490611dbe565b9033865260128152828620610c03868254611ca3565b9055610c1185601154611ca3565b601155610c2082601054611ca3565b601055610c4e82337f0000000000000000000000000000000000000000000000000000000000000000611f39565b82519485528401523392a26001805580f35b915162461bcd60e51b81529182015260136024820152724d61726b6574207374696c6c2061637469766560681b6044820152606490fd5b915162461bcd60e51b8152918201526016602482015275496e73756666696369656e74204c5020746f6b656e7360501b6044820152606490fd5b8380fd5b50346102b857826003193601126102b857600c549160ff8360081c1682811015610d5757610d039015611cef565b6006544210610d1d5761ff0019831661010017600c558380f35b906020606492519162461bcd60e51b8352820152601460248201527313585c9ad95d081b9bdd08195b991959081e595d60621b6044820152fd5b634e487b7160e01b855260218352602485fd5b5050346102db57816003193601126102db57905490516001600160a01b039091168152602090f35b83346107c057806003193601126107c057610dab611bcc565b6103d1601354610dbc8115156120ba565b601383905582546001600160a01b03167f0000000000000000000000000000000000000000000000000000000000000000611f39565b5050346102db57816003193601126102db5760207f62e78cea01bee320cd4e420270b5ea74000d11b0c9f74754ebdbfc544b05a25891610e30611bcc565b610e38611ef8565b600160ff19600254161760025551338152a180f35b5050346102db57816003193601126102db576020906005549051908152f35b5050346102db57816003193601126102db5760095490516001600160a01b039091168152602090f35b83346107c057806003193601126107c057610eae611bcc565b80546001600160a01b03198116825581906001600160a01b03167f8be0079c531659141344cd1fd0a4f28419497f9722a3daafe3b4186f6b6457e08280a380f35b509190346102db57610f0036611b3f565b919260ff600c5460081c1686811015610ae957610f1d9015611cef565b610f2a6006544210611d2f565b610f32611f16565b610f3a611ef8565b81156110ba57338552600f60205281610f5585838820611bb4565b541061108257610f83670de0b6b3a7640000610f79610f7387611fd0565b85611dab565b0493841015611dde565b60c883029280159381810460c814851715610a815761271080910491610fa98382611ca3565b9560328202918204603214171561106f57610987610fd3936109829361099f930493848092611ca3565b6010556002841015610a6e5790610a647faa68026cba73386b81aaef0208a11ad1c3f8d1306cf0734631f076b7baea05ba939285600d01611015848254611ca3565b9055338752600f60205261102b86828920611bb4565b611036848254611ca3565b905561106384337f0000000000000000000000000000000000000000000000000000000000000000611f39565b51928392339684611e1e565b634e487b7160e01b885260118952602488fd5b5162461bcd60e51b81526020818701526013602482015272496e73756666696369656e742073686172657360681b6044820152606490fd5b5162461bcd60e51b8152602081870152601a60248201527f4d7573742073656c6c206174206c6561737420312073686172650000000000006044820152606490fd5b5050346102db57816003193601126102db576020906014549051908152f35b5082346107c057806003193601126107c057611135611bcc565b600c5460ff8160081c1692808410156111635750611157610300929315611cef565b61ff00191617600c5580f35b634e487b7160e01b835260219052602482fd5b5050346102db57816003193601126102db576020905160c88152f35b5050346102db57816003193601126102db576020906015549051908152f35b5050346102db57816003193601126102db576020905160648152f35b5050346102db57816003193601126102db5760209060ff6002541690519015158152f35b509190346102db5760203660031901126102db5782359060ff600c5460081c168481101561130357906112457fac1d76749e5447b7b16f5ab61447e1bd502f3bb4807af3b28e620d1700a6ee459215611cef565b6112526006544210611d2f565b61125a611f16565b611265831515611d6e565b6112918330337f0000000000000000000000000000000000000000000000000000000000000000611e3b565b601154806112e3576112b48480925b6112ac87601054611bf8565b601055611bf8565b60115533855260126020528185206112cd828254611bf8565b9055815193845260208401523392a26001805580f35b6112b46112fc6112f38387611dab565b60105490611dbe565b80926112a0565b634e487b7160e01b845260218552602484fd5b50346102b857826003193601126102b8578151611332816119c9565b60028152602081019183368437600d5461134b83611f89565b52600e5461135883611fac565b52600754928251156114305782511561141d5783611376915161210b565b8590815b84518810156113b0576113a46113aa9161139e886113988c8a611fbc565b5161210b565b90611bf8565b976120fc565b9661137a565b8690670de0b6b3a7640000928381029080820485149015171561140a57906113d791611dbe565b926064840293808504606414901517156113f75750602093505191048152f35b634e487b7160e01b815260118552602490fd5b634e487b7160e01b855260118652602485fd5b634e487b7160e01b865260328252602486fd5b845162461bcd60e51b81526020818401526012602482015271125b9d985b1a59081bdd5d18dbdb5948125160721b6044820152606490fd5b50346102b857826003193601126102b857611481611bcc565b6002549060ff8216156114c3575060ff1916600255513381527f5db9ee0a495bf2e6ff9c91a7834c1ba4fdd244a5e8aa4e537bd38aeae4b073aa90602090a180f35b8251638dfc202b60e01b8152fd5b5050346102db57816003193601126102db576020906007549051908152f35b50346102b85760203660031901126102b857359160028310156107c05750611519602092611fd0565b9051908152f35b5082346107c057806003193601126107c05760ff600c5460081c169180831015611551576020836002865191148152f35b634e487b7160e01b825260219052602490fd5b5050346102db57816003193601126102db576020906013549051908152f35b5050346102db57816003193601126102db576020906006549051908152f35b50346102b857826003193601126102b857600c9060ff825460081c16818110156117725760010361173b576115d5611f16565b81549060ff8216156116f8576009548451633fabe5a360e21b81529160a09183919082906001600160a01b03165afa80156116ee579360ff92608094927faf1e4605fc21ca0a41ec8585ce5c1d60b3da2d0b813a61c474f20268d0436ea896889189916116bc575b50610e106104f6611653926104f08c8613611c67565b80600b55600a54126000146116aa5750815462ff0000191682555b61020061ff001983541617809255600a54611694600b5493835195869160101c16611ba7565b6020840152820152426060820152a16001805580f35b62ff000019166201000017825561166e565b6104f6925061165391506116e0610e109160a03d81116105545761053e81836119e5565b50959250509392505061163d565b84513d87823e3d90fd5b606490602085519162461bcd60e51b8352820152601860248201527f5374617274207072696365206e6f74207265636f7264656400000000000000006044820152fd5b606490602084519162461bcd60e51b8352820152601160248201527013585c9ad95d081b9bdd081b1bd8dad959607a1b6044820152fd5b634e487b7160e01b855260218252602485fd5b5050346102db57816003193601126102db5760209060ff600c541690519015158152f35b50346102b857826003193601126102b85760ff83918380516117ca81611997565b369037541660ff600c5460081c169260055460065491600a5491600b5460155493601054956117f7611a07565b9385519586600d908c905b60028210611898575050506118359a9b6118499161181f89611997565b61184181519d8e99610160808c528b0190611af2565b9c6020809a0190611974565b8c0190611b32565b60608a0152608089015260a088015260c087015260e086019196915b60028310611883575050508394506101208401526101408301520390f35b81806001928a51815201980192019196611865565b825481526001928301929190910190602001611802565b611953565b5050346102db57816003193601126102db576118e5906118d2611a07565b9051918291602083526020830190611af2565b0390f35b5050346102db57816003193601126102db576020906010549051908152f35b5091346107c057806003193601126107c0575061044d60ff602093541691518092611974565b8490346102db57816003193601126102db576008546001600160a01b03168152602090f35b3461196f57600036600319011261196f57602060405160328152f35b600080fd5b9060038210156119815752565b634e487b7160e01b600052602160045260246000fd5b6040810190811067ffffffffffffffff8211176119b357604052565b634e487b7160e01b600052604160045260246000fd5b6060810190811067ffffffffffffffff8211176119b357604052565b90601f8019910116810190811067ffffffffffffffff8211176119b357604052565b60405190600060035490600182811c90808416938415611ae8575b6020948584108114611ad45783885287949392918115611ab45750600114611a55575b5050611a53925003836119e5565b565b9093915060036000527fc2575a0e9e593c00f959f8c92f12db2869c3395a3b0502d05e2516446f71f85b936000915b818310611a9c575050611a5393508201013880611a45565b85548884018501529485019487945091830191611a84565b915050611a5394925060ff191682840152151560051b8201013880611a45565b634e487b7160e01b85526022600452602485fd5b91607f1691611a22565b919082519283825260005b848110611b1e575050826000602080949584010152601f8019910116010190565b602081830181015184830182015201611afd565b9060048210156119815752565b606090600319011261196f57600435600281101561196f57906024359060443590565b600435906001600160a01b038216820361196f57565b604090600319011261196f576004356001600160a01b038116810361196f5790602435600281101561196f5790565b9060028210156119815752565b90600281101561198157600052602052604060002090565b6000546001600160a01b03163303611be057565b60405163118cdaa760e01b8152336004820152602490fd5b91908201809211611c0557565b634e487b7160e01b600052601160045260246000fd5b519069ffffffffffffffffffff8216820361196f57565b908160a091031261196f57611c4681611c1b565b91602082015191604081015191611c64608060608401519301611c1b565b90565b15611c6e57565b60405162461bcd60e51b815260206004820152600d60248201526c496e76616c696420707269636560981b6044820152606490fd5b91908203918211611c0557565b15611cb757565b60405162461bcd60e51b815260206004820152601060248201526f50726963652064617461207374616c6560801b6044820152606490fd5b15611cf657565b60405162461bcd60e51b81526020600482015260116024820152704d61726b6574206e6f742061637469766560781b6044820152606490fd5b15611d3657565b60405162461bcd60e51b815260206004820152601060248201526f13585c9ad95d081a185cc8195b99195960821b6044820152606490fd5b15611d7557565b60405162461bcd60e51b815260206004820152600e60248201526d135d5cdd081cd95b99081554d11560921b6044820152606490fd5b81810292918115918404141715611c0557565b8115611dc8570490565b634e487b7160e01b600052601260045260246000fd5b15611de557565b60405162461bcd60e51b815260206004820152601160248201527014db1a5c1c1859d948195e18d959591959607a1b6044820152606490fd5b604091949392611e32826060810197611ba7565b60208201520152565b6040516323b872dd60e01b60208201526001600160a01b03928316602482015292909116604483015260648083019390935291815260a081019181831067ffffffffffffffff8411176119b357611a53926040525b906000602091828151910182855af115611eec576000513d611ee357506001600160a01b0381163b155b611ec15750565b604051635274afe760e01b81526001600160a01b039091166004820152602490fd5b60011415611eba565b6040513d6000823e3d90fd5b60ff60025416611f0457565b60405163d93c066560e01b8152600490fd5b600260015414611f27576002600155565b604051633ee5aeb560e01b8152600490fd5b60405163a9059cbb60e01b60208201526001600160a01b039092166024830152604480830193909352918152608081019167ffffffffffffffff8311828410176119b357611a5392604052611e90565b805115611f965760200190565b634e487b7160e01b600052603260045260246000fd5b805160011015611f965760400190565b8051821015611f965760209160051b010190565b9060028210156119815760405190611fe7826119c9565b600282526040366020840137600d54611fff83611f89565b52600e5461200c83611fac565b5260075492825181101561208057836113986120289285611fbc565b91600091825b82518410156120585761204c6120529161139e886113988888611fbc565b936120fc565b9261202e565b9250935050670de0b6b3a764000091828102928184041490151715611c0557611c6491611dbe565b60405162461bcd60e51b8152602060048201526012602482015271125b9d985b1a59081bdd5d18dbdb5948125160721b6044820152606490fd5b156120c157565b60405162461bcd60e51b81526020600482015260136024820152724e6f206665657320746f20776974686472617760681b6044820152606490fd5b6000198114611c055760010190565b919091821561220457670de0b6b3a76400009283820291808304851490151715611c055761213891611dbe565b9068056bc75e2d631000008210156121ca57600192918290815b6014861115612164575b505050909150565b8161216e91611dab565b828602908682048414871517156121b5576121939161218c91611dbe565b8095611bf8565b946103e885106121ad576121a6906120fc565b9493612152565b85945061215c565b60246000634e487b7160e01b81526011600452fd5b60405162461bcd60e51b81526020600482015260126024820152714578706f6e656e7420746f6f206c6172676560701b6044820152606490fd5b60405162461bcd60e51b815260206004820152601a60248201527f44656e6f6d696e61746f722063616e6e6f74206265207a65726f0000000000006044820152606490fdfea264697066735822122072d0a3c63256955a17b48e298519e066713e145ac0370e60a4b0d22875b7d2cf64736f6c63430008140033a2646970667358221220b9ea5d58cdf35cde566bb0f47c48b4567249e291c2f4b18f27483dca98b0cba164736f6c63430008140033",
  "linkReferences": {},
  "deployedLinkReferences": {}
}